{
	"contracts/FundMe.sol": {
		"FundMe": {
			"abi": [
				{
					"inputs": [],
					"name": "fund",
					"outputs": [],
					"stateMutability": "payable",
					"type": "function"
				},
				{
					"inputs": [],
					"name": "withdraw",
					"outputs": [],
					"stateMutability": "nonpayable",
					"type": "function"
				}
			],
			"devdoc": {
				"kind": "dev",
				"methods": {},
				"version": 1
			},
			"evm": {
				"assembly": "    /* \"contracts/FundMe.sol\":119:422  contract FundMe{... */\n  mstore(0x40, 0x80)\n    /* \"contracts/FundMe.sol\":198:202  5e18 */\n  0x4563918244f40000\n    /* \"contracts/FundMe.sol\":183:202  uint min_usd = 5e18 */\n  0x00\n  sstore\n    /* \"contracts/FundMe.sol\":119:422  contract FundMe{... */\n  callvalue\n  dup1\n  iszero\n  tag_1\n  jumpi\n  revert(0x00, 0x00)\ntag_1:\n  pop\n  dataSize(sub_0)\n  dup1\n  dataOffset(sub_0)\n  0x00\n  codecopy\n  0x00\n  return\nstop\n\nsub_0: assembly {\n        /* \"contracts/FundMe.sol\":119:422  contract FundMe{... */\n      mstore(0x40, 0x80)\n      jumpi(tag_1, lt(calldatasize, 0x04))\n      shr(0xe0, calldataload(0x00))\n      dup1\n      0x3ccfd60b\n      eq\n      tag_2\n      jumpi\n      dup1\n      0xb60d4288\n      eq\n      tag_3\n      jumpi\n    tag_1:\n      revert(0x00, 0x00)\n        /* \"contracts/FundMe.sol\":387:415  function withdraw() public{} */\n    tag_2:\n      callvalue\n      dup1\n      iszero\n      tag_4\n      jumpi\n      revert(0x00, 0x00)\n    tag_4:\n      pop\n      tag_5\n      tag_6\n      jump\t// in\n    tag_5:\n      stop\n        /* \"contracts/FundMe.sol\":243:381  function fund() public payable{... */\n    tag_3:\n      tag_7\n      tag_8\n      jump\t// in\n    tag_7:\n      stop\n        /* \"contracts/FundMe.sol\":387:415  function withdraw() public{} */\n    tag_6:\n      jump\t// out\n        /* \"contracts/FundMe.sol\":243:381  function fund() public payable{... */\n    tag_8:\n        /* \"contracts/FundMe.sol\":322:329  min_usd */\n      sload(0x00)\n        /* \"contracts/FundMe.sol\":291:320  msg.value.getConversionRate() */\n      tag_11\n        /* \"contracts/FundMe.sol\":291:300  msg.value */\n      callvalue\n        /* \"contracts/FundMe.sol\":291:318  msg.value.getConversionRate */\n      tag_12\n        /* \"contracts/FundMe.sol\":291:320  msg.value.getConversionRate() */\n      jump\t// in\n    tag_11:\n        /* \"contracts/FundMe.sol\":291:329  msg.value.getConversionRate()>=min_usd */\n      lt\n      iszero\n        /* \"contracts/FundMe.sol\":283:365  require(msg.value.getConversionRate()>=min_usd, \"Send Atleast 5 usd worth of eth\") */\n      tag_13\n      jumpi\n      mload(0x40)\n      0x08c379a000000000000000000000000000000000000000000000000000000000\n      dup2\n      mstore\n      0x04\n      add\n      tag_14\n      swap1\n      tag_15\n      jump\t// in\n    tag_14:\n      mload(0x40)\n      dup1\n      swap2\n      sub\n      swap1\n      revert\n    tag_13:\n        /* \"contracts/FundMe.sol\":243:381  function fund() public payable{... */\n      jump\t// out\n        /* \"contracts/PriceConversionLib.sol\":500:761  function getConversionRate(uint256 eth_amt) internal view returns(uint256){... */\n    tag_12:\n        /* \"contracts/PriceConversionLib.sol\":566:573  uint256 */\n      0x00\n        /* \"contracts/PriceConversionLib.sol\":584:602  uint256 ETHUSDrate */\n      0x00\n        /* \"contracts/PriceConversionLib.sol\":605:615  getPrice() */\n      tag_17\n        /* \"contracts/PriceConversionLib.sol\":605:613  getPrice */\n      tag_18\n        /* \"contracts/PriceConversionLib.sol\":605:615  getPrice() */\n      jump\t// in\n    tag_17:\n        /* \"contracts/PriceConversionLib.sol\":584:615  uint256 ETHUSDrate = getPrice() */\n      swap1\n      pop\n        /* \"contracts/PriceConversionLib.sol\":683:687  1e18 */\n      0x0de0b6b3a7640000\n        /* \"contracts/PriceConversionLib.sol\":674:681  eth_amt */\n      dup4\n        /* \"contracts/PriceConversionLib.sol\":663:673  ETHUSDrate */\n      dup3\n        /* \"contracts/PriceConversionLib.sol\":663:681  ETHUSDrate*eth_amt */\n      tag_19\n      swap2\n      swap1\n      tag_20\n      jump\t// in\n    tag_19:\n        /* \"contracts/PriceConversionLib.sol\":662:687  (ETHUSDrate*eth_amt)/1e18 */\n      tag_21\n      swap2\n      swap1\n      tag_22\n      jump\t// in\n    tag_21:\n        /* \"contracts/PriceConversionLib.sol\":655:687  return (ETHUSDrate*eth_amt)/1e18 */\n      swap2\n      pop\n      pop\n        /* \"contracts/PriceConversionLib.sol\":500:761  function getConversionRate(uint256 eth_amt) internal view returns(uint256){... */\n      swap2\n      swap1\n      pop\n      jump\t// out\n        /* \"contracts/PriceConversionLib.sol\":209:494  function getPrice()  internal view returns(uint256){... */\n    tag_18:\n        /* \"contracts/PriceConversionLib.sol\":252:259  uint256 */\n      0x00\n        /* \"contracts/PriceConversionLib.sol\":270:301  AggregatorV3Interface priceFeed */\n      0x00\n        /* \"contracts/PriceConversionLib.sol\":328:370  0x0fC5025C764cE34df352757e82f7B5c4Df39A836 */\n      0x0fc5025c764ce34df352757e82f7b5c4df39a836\n        /* \"contracts/PriceConversionLib.sol\":270:371  AggregatorV3Interface priceFeed =   AggregatorV3Interface(0x0fC5025C764cE34df352757e82f7B5c4Df39A836) */\n      swap1\n      pop\n        /* \"contracts/PriceConversionLib.sol\":384:401  int256 ETH_in_USD */\n      0x00\n        /* \"contracts/PriceConversionLib.sol\":408:417  priceFeed */\n      dup2\n        /* \"contracts/PriceConversionLib.sol\":408:433  priceFeed.latestRoundData */\n      0xffffffffffffffffffffffffffffffffffffffff\n      and\n      0xfeaf968c\n        /* \"contracts/PriceConversionLib.sol\":408:435  priceFeed.latestRoundData() */\n      mload(0x40)\n      dup2\n      0xffffffff\n      and\n      0xe0\n      shl\n      dup2\n      mstore\n      0x04\n      add\n      0xa0\n      mload(0x40)\n      dup1\n      dup4\n      sub\n      dup2\n      dup7\n      gas\n      staticcall\n      iszero\n      dup1\n      iszero\n      tag_25\n      jumpi\n      returndatacopy(0x00, 0x00, returndatasize)\n      revert(0x00, returndatasize)\n    tag_25:\n      pop\n      pop\n      pop\n      pop\n      mload(0x40)\n      returndatasize\n      not(0x1f)\n      0x1f\n      dup3\n      add\n      and\n      dup3\n      add\n      dup1\n      0x40\n      mstore\n      pop\n      dup2\n      add\n      swap1\n      tag_26\n      swap2\n      swap1\n      tag_27\n      jump\t// in\n    tag_26:\n        /* \"contracts/PriceConversionLib.sol\":382:435  (,int256 ETH_in_USD,,,) = priceFeed.latestRoundData() */\n      pop\n      pop\n      pop\n      swap2\n      pop\n      pop\n        /* \"contracts/PriceConversionLib.sol\":482:486  1e10 */\n      0x02540be400\n        /* \"contracts/PriceConversionLib.sol\":471:481  ETH_in_USD */\n      dup2\n        /* \"contracts/PriceConversionLib.sol\":471:486  ETH_in_USD*1e10 */\n      tag_28\n      swap2\n      swap1\n      tag_29\n      jump\t// in\n    tag_28:\n        /* \"contracts/PriceConversionLib.sol\":456:487  return uint256(ETH_in_USD*1e10) */\n      swap3\n      pop\n      pop\n      pop\n        /* \"contracts/PriceConversionLib.sol\":209:494  function getPrice()  internal view returns(uint256){... */\n      swap1\n      jump\t// out\n        /* \"#utility.yul\":7:176   */\n    tag_30:\n        /* \"#utility.yul\":91:102   */\n      0x00\n        /* \"#utility.yul\":125:131   */\n      dup3\n        /* \"#utility.yul\":120:123   */\n      dup3\n        /* \"#utility.yul\":113:132   */\n      mstore\n        /* \"#utility.yul\":165:169   */\n      0x20\n        /* \"#utility.yul\":160:163   */\n      dup3\n        /* \"#utility.yul\":156:170   */\n      add\n        /* \"#utility.yul\":141:170   */\n      swap1\n      pop\n        /* \"#utility.yul\":7:176   */\n      swap3\n      swap2\n      pop\n      pop\n      jump\t// out\n        /* \"#utility.yul\":182:363   */\n    tag_31:\n        /* \"#utility.yul\":322:355   */\n      0x53656e642041746c6561737420352075736420776f727468206f662065746800\n        /* \"#utility.yul\":318:319   */\n      0x00\n        /* \"#utility.yul\":310:316   */\n      dup3\n        /* \"#utility.yul\":306:320   */\n      add\n        /* \"#utility.yul\":299:356   */\n      mstore\n        /* \"#utility.yul\":182:363   */\n      pop\n      jump\t// out\n        /* \"#utility.yul\":369:735   */\n    tag_32:\n        /* \"#utility.yul\":511:514   */\n      0x00\n        /* \"#utility.yul\":532:599   */\n      tag_51\n        /* \"#utility.yul\":596:598   */\n      0x1f\n        /* \"#utility.yul\":591:594   */\n      dup4\n        /* \"#utility.yul\":532:599   */\n      tag_30\n      jump\t// in\n    tag_51:\n        /* \"#utility.yul\":525:599   */\n      swap2\n      pop\n        /* \"#utility.yul\":608:701   */\n      tag_52\n        /* \"#utility.yul\":697:700   */\n      dup3\n        /* \"#utility.yul\":608:701   */\n      tag_31\n      jump\t// in\n    tag_52:\n        /* \"#utility.yul\":726:728   */\n      0x20\n        /* \"#utility.yul\":721:724   */\n      dup3\n        /* \"#utility.yul\":717:729   */\n      add\n        /* \"#utility.yul\":710:729   */\n      swap1\n      pop\n        /* \"#utility.yul\":369:735   */\n      swap2\n      swap1\n      pop\n      jump\t// out\n        /* \"#utility.yul\":741:1160   */\n    tag_15:\n        /* \"#utility.yul\":907:911   */\n      0x00\n        /* \"#utility.yul\":945:947   */\n      0x20\n        /* \"#utility.yul\":934:943   */\n      dup3\n        /* \"#utility.yul\":930:948   */\n      add\n        /* \"#utility.yul\":922:948   */\n      swap1\n      pop\n        /* \"#utility.yul\":994:1003   */\n      dup2\n        /* \"#utility.yul\":988:992   */\n      dup2\n        /* \"#utility.yul\":984:1004   */\n      sub\n        /* \"#utility.yul\":980:981   */\n      0x00\n        /* \"#utility.yul\":969:978   */\n      dup4\n        /* \"#utility.yul\":965:982   */\n      add\n        /* \"#utility.yul\":958:1005   */\n      mstore\n        /* \"#utility.yul\":1022:1153   */\n      tag_54\n        /* \"#utility.yul\":1148:1152   */\n      dup2\n        /* \"#utility.yul\":1022:1153   */\n      tag_32\n      jump\t// in\n    tag_54:\n        /* \"#utility.yul\":1014:1153   */\n      swap1\n      pop\n        /* \"#utility.yul\":741:1160   */\n      swap2\n      swap1\n      pop\n      jump\t// out\n        /* \"#utility.yul\":1166:1243   */\n    tag_33:\n        /* \"#utility.yul\":1203:1210   */\n      0x00\n        /* \"#utility.yul\":1232:1237   */\n      dup2\n        /* \"#utility.yul\":1221:1237   */\n      swap1\n      pop\n        /* \"#utility.yul\":1166:1243   */\n      swap2\n      swap1\n      pop\n      jump\t// out\n        /* \"#utility.yul\":1249:1429   */\n    tag_34:\n        /* \"#utility.yul\":1297:1374   */\n      0x4e487b7100000000000000000000000000000000000000000000000000000000\n        /* \"#utility.yul\":1294:1295   */\n      0x00\n        /* \"#utility.yul\":1287:1375   */\n      mstore\n        /* \"#utility.yul\":1394:1398   */\n      0x11\n        /* \"#utility.yul\":1391:1392   */\n      0x04\n        /* \"#utility.yul\":1384:1399   */\n      mstore\n        /* \"#utility.yul\":1418:1422   */\n      0x24\n        /* \"#utility.yul\":1415:1416   */\n      0x00\n        /* \"#utility.yul\":1408:1423   */\n      revert\n        /* \"#utility.yul\":1435:1845   */\n    tag_20:\n        /* \"#utility.yul\":1475:1482   */\n      0x00\n        /* \"#utility.yul\":1498:1518   */\n      tag_58\n        /* \"#utility.yul\":1516:1517   */\n      dup3\n        /* \"#utility.yul\":1498:1518   */\n      tag_33\n      jump\t// in\n    tag_58:\n        /* \"#utility.yul\":1493:1518   */\n      swap2\n      pop\n        /* \"#utility.yul\":1532:1552   */\n      tag_59\n        /* \"#utility.yul\":1550:1551   */\n      dup4\n        /* \"#utility.yul\":1532:1552   */\n      tag_33\n      jump\t// in\n    tag_59:\n        /* \"#utility.yul\":1527:1552   */\n      swap3\n      pop\n        /* \"#utility.yul\":1587:1588   */\n      dup3\n        /* \"#utility.yul\":1584:1585   */\n      dup3\n        /* \"#utility.yul\":1580:1589   */\n      mul\n        /* \"#utility.yul\":1609:1639   */\n      tag_60\n        /* \"#utility.yul\":1627:1638   */\n      dup2\n        /* \"#utility.yul\":1609:1639   */\n      tag_33\n      jump\t// in\n    tag_60:\n        /* \"#utility.yul\":1598:1639   */\n      swap2\n      pop\n        /* \"#utility.yul\":1788:1789   */\n      dup3\n        /* \"#utility.yul\":1779:1786   */\n      dup3\n        /* \"#utility.yul\":1775:1790   */\n      div\n        /* \"#utility.yul\":1772:1773   */\n      dup5\n        /* \"#utility.yul\":1769:1791   */\n      eq\n        /* \"#utility.yul\":1749:1750   */\n      dup4\n        /* \"#utility.yul\":1742:1751   */\n      iszero\n        /* \"#utility.yul\":1722:1805   */\n      or\n        /* \"#utility.yul\":1699:1838   */\n      tag_61\n      jumpi\n        /* \"#utility.yul\":1818:1836   */\n      tag_62\n      tag_34\n      jump\t// in\n    tag_62:\n        /* \"#utility.yul\":1699:1838   */\n    tag_61:\n        /* \"#utility.yul\":1483:1845   */\n      pop\n        /* \"#utility.yul\":1435:1845   */\n      swap3\n      swap2\n      pop\n      pop\n      jump\t// out\n        /* \"#utility.yul\":1851:2031   */\n    tag_35:\n        /* \"#utility.yul\":1899:1976   */\n      0x4e487b7100000000000000000000000000000000000000000000000000000000\n        /* \"#utility.yul\":1896:1897   */\n      0x00\n        /* \"#utility.yul\":1889:1977   */\n      mstore\n        /* \"#utility.yul\":1996:2000   */\n      0x12\n        /* \"#utility.yul\":1993:1994   */\n      0x04\n        /* \"#utility.yul\":1986:2001   */\n      mstore\n        /* \"#utility.yul\":2020:2024   */\n      0x24\n        /* \"#utility.yul\":2017:2018   */\n      0x00\n        /* \"#utility.yul\":2010:2025   */\n      revert\n        /* \"#utility.yul\":2037:2222   */\n    tag_22:\n        /* \"#utility.yul\":2077:2078   */\n      0x00\n        /* \"#utility.yul\":2094:2114   */\n      tag_65\n        /* \"#utility.yul\":2112:2113   */\n      dup3\n        /* \"#utility.yul\":2094:2114   */\n      tag_33\n      jump\t// in\n    tag_65:\n        /* \"#utility.yul\":2089:2114   */\n      swap2\n      pop\n        /* \"#utility.yul\":2128:2148   */\n      tag_66\n        /* \"#utility.yul\":2146:2147   */\n      dup4\n        /* \"#utility.yul\":2128:2148   */\n      tag_33\n      jump\t// in\n    tag_66:\n        /* \"#utility.yul\":2123:2148   */\n      swap3\n      pop\n        /* \"#utility.yul\":2167:2168   */\n      dup3\n        /* \"#utility.yul\":2157:2192   */\n      tag_67\n      jumpi\n        /* \"#utility.yul\":2172:2190   */\n      tag_68\n      tag_35\n      jump\t// in\n    tag_68:\n        /* \"#utility.yul\":2157:2192   */\n    tag_67:\n        /* \"#utility.yul\":2214:2215   */\n      dup3\n        /* \"#utility.yul\":2211:2212   */\n      dup3\n        /* \"#utility.yul\":2207:2216   */\n      div\n        /* \"#utility.yul\":2202:2216   */\n      swap1\n      pop\n        /* \"#utility.yul\":2037:2222   */\n      swap3\n      swap2\n      pop\n      pop\n      jump\t// out\n        /* \"#utility.yul\":2309:2426   */\n    tag_37:\n        /* \"#utility.yul\":2418:2419   */\n      0x00\n        /* \"#utility.yul\":2415:2416   */\n      0x00\n        /* \"#utility.yul\":2408:2420   */\n      revert\n        /* \"#utility.yul\":2555:2660   */\n    tag_39:\n        /* \"#utility.yul\":2591:2598   */\n      0x00\n        /* \"#utility.yul\":2631:2653   */\n      0xffffffffffffffffffff\n        /* \"#utility.yul\":2624:2629   */\n      dup3\n        /* \"#utility.yul\":2620:2654   */\n      and\n        /* \"#utility.yul\":2609:2654   */\n      swap1\n      pop\n        /* \"#utility.yul\":2555:2660   */\n      swap2\n      swap1\n      pop\n      jump\t// out\n        /* \"#utility.yul\":2666:2786   */\n    tag_40:\n        /* \"#utility.yul\":2738:2761   */\n      tag_74\n        /* \"#utility.yul\":2755:2760   */\n      dup2\n        /* \"#utility.yul\":2738:2761   */\n      tag_39\n      jump\t// in\n    tag_74:\n        /* \"#utility.yul\":2731:2736   */\n      dup2\n        /* \"#utility.yul\":2728:2762   */\n      eq\n        /* \"#utility.yul\":2718:2780   */\n      tag_75\n      jumpi\n        /* \"#utility.yul\":2776:2777   */\n      0x00\n        /* \"#utility.yul\":2773:2774   */\n      0x00\n        /* \"#utility.yul\":2766:2778   */\n      revert\n        /* \"#utility.yul\":2718:2780   */\n    tag_75:\n        /* \"#utility.yul\":2666:2786   */\n      pop\n      jump\t// out\n        /* \"#utility.yul\":2792:2933   */\n    tag_41:\n        /* \"#utility.yul\":2848:2853   */\n      0x00\n        /* \"#utility.yul\":2879:2885   */\n      dup2\n        /* \"#utility.yul\":2873:2886   */\n      mload\n        /* \"#utility.yul\":2864:2886   */\n      swap1\n      pop\n        /* \"#utility.yul\":2895:2927   */\n      tag_77\n        /* \"#utility.yul\":2921:2926   */\n      dup2\n        /* \"#utility.yul\":2895:2927   */\n      tag_40\n      jump\t// in\n    tag_77:\n        /* \"#utility.yul\":2792:2933   */\n      swap3\n      swap2\n      pop\n      pop\n      jump\t// out\n        /* \"#utility.yul\":2939:3015   */\n    tag_42:\n        /* \"#utility.yul\":2975:2982   */\n      0x00\n        /* \"#utility.yul\":3004:3009   */\n      dup2\n        /* \"#utility.yul\":2993:3009   */\n      swap1\n      pop\n        /* \"#utility.yul\":2939:3015   */\n      swap2\n      swap1\n      pop\n      jump\t// out\n        /* \"#utility.yul\":3021:3141   */\n    tag_43:\n        /* \"#utility.yul\":3093:3116   */\n      tag_80\n        /* \"#utility.yul\":3110:3115   */\n      dup2\n        /* \"#utility.yul\":3093:3116   */\n      tag_42\n      jump\t// in\n    tag_80:\n        /* \"#utility.yul\":3086:3091   */\n      dup2\n        /* \"#utility.yul\":3083:3117   */\n      eq\n        /* \"#utility.yul\":3073:3135   */\n      tag_81\n      jumpi\n        /* \"#utility.yul\":3131:3132   */\n      0x00\n        /* \"#utility.yul\":3128:3129   */\n      0x00\n        /* \"#utility.yul\":3121:3133   */\n      revert\n        /* \"#utility.yul\":3073:3135   */\n    tag_81:\n        /* \"#utility.yul\":3021:3141   */\n      pop\n      jump\t// out\n        /* \"#utility.yul\":3147:3288   */\n    tag_44:\n        /* \"#utility.yul\":3203:3208   */\n      0x00\n        /* \"#utility.yul\":3234:3240   */\n      dup2\n        /* \"#utility.yul\":3228:3241   */\n      mload\n        /* \"#utility.yul\":3219:3241   */\n      swap1\n      pop\n        /* \"#utility.yul\":3250:3282   */\n      tag_83\n        /* \"#utility.yul\":3276:3281   */\n      dup2\n        /* \"#utility.yul\":3250:3282   */\n      tag_43\n      jump\t// in\n    tag_83:\n        /* \"#utility.yul\":3147:3288   */\n      swap3\n      swap2\n      pop\n      pop\n      jump\t// out\n        /* \"#utility.yul\":3294:3416   */\n    tag_45:\n        /* \"#utility.yul\":3367:3391   */\n      tag_85\n        /* \"#utility.yul\":3385:3390   */\n      dup2\n        /* \"#utility.yul\":3367:3391   */\n      tag_33\n      jump\t// in\n    tag_85:\n        /* \"#utility.yul\":3360:3365   */\n      dup2\n        /* \"#utility.yul\":3357:3392   */\n      eq\n        /* \"#utility.yul\":3347:3410   */\n      tag_86\n      jumpi\n        /* \"#utility.yul\":3406:3407   */\n      0x00\n        /* \"#utility.yul\":3403:3404   */\n      0x00\n        /* \"#utility.yul\":3396:3408   */\n      revert\n        /* \"#utility.yul\":3347:3410   */\n    tag_86:\n        /* \"#utility.yul\":3294:3416   */\n      pop\n      jump\t// out\n        /* \"#utility.yul\":3422:3565   */\n    tag_46:\n        /* \"#utility.yul\":3479:3484   */\n      0x00\n        /* \"#utility.yul\":3510:3516   */\n      dup2\n        /* \"#utility.yul\":3504:3517   */\n      mload\n        /* \"#utility.yul\":3495:3517   */\n      swap1\n      pop\n        /* \"#utility.yul\":3526:3559   */\n      tag_88\n        /* \"#utility.yul\":3553:3558   */\n      dup2\n        /* \"#utility.yul\":3526:3559   */\n      tag_45\n      jump\t// in\n    tag_88:\n        /* \"#utility.yul\":3422:3565   */\n      swap3\n      swap2\n      pop\n      pop\n      jump\t// out\n        /* \"#utility.yul\":3571:4542   */\n    tag_27:\n        /* \"#utility.yul\":3674:3680   */\n      0x00\n        /* \"#utility.yul\":3682:3688   */\n      0x00\n        /* \"#utility.yul\":3690:3696   */\n      0x00\n        /* \"#utility.yul\":3698:3704   */\n      0x00\n        /* \"#utility.yul\":3706:3712   */\n      0x00\n        /* \"#utility.yul\":3755:3758   */\n      0xa0\n        /* \"#utility.yul\":3743:3752   */\n      dup7\n        /* \"#utility.yul\":3734:3741   */\n      dup9\n        /* \"#utility.yul\":3730:3753   */\n      sub\n        /* \"#utility.yul\":3726:3759   */\n      slt\n        /* \"#utility.yul\":3723:3843   */\n      iszero\n      tag_90\n      jumpi\n        /* \"#utility.yul\":3762:3841   */\n      tag_91\n      tag_37\n      jump\t// in\n    tag_91:\n        /* \"#utility.yul\":3723:3843   */\n    tag_90:\n        /* \"#utility.yul\":3882:3883   */\n      0x00\n        /* \"#utility.yul\":3907:3970   */\n      tag_92\n        /* \"#utility.yul\":3962:3969   */\n      dup9\n        /* \"#utility.yul\":3953:3959   */\n      dup3\n        /* \"#utility.yul\":3942:3951   */\n      dup10\n        /* \"#utility.yul\":3938:3960   */\n      add\n        /* \"#utility.yul\":3907:3970   */\n      tag_41\n      jump\t// in\n    tag_92:\n        /* \"#utility.yul\":3897:3970   */\n      swap6\n      pop\n        /* \"#utility.yul\":3853:3980   */\n      pop\n        /* \"#utility.yul\":4019:4021   */\n      0x20\n        /* \"#utility.yul\":4045:4108   */\n      tag_93\n        /* \"#utility.yul\":4100:4107   */\n      dup9\n        /* \"#utility.yul\":4091:4097   */\n      dup3\n        /* \"#utility.yul\":4080:4089   */\n      dup10\n        /* \"#utility.yul\":4076:4098   */\n      add\n        /* \"#utility.yul\":4045:4108   */\n      tag_44\n      jump\t// in\n    tag_93:\n        /* \"#utility.yul\":4035:4108   */\n      swap5\n      pop\n        /* \"#utility.yul\":3990:4118   */\n      pop\n        /* \"#utility.yul\":4157:4159   */\n      0x40\n        /* \"#utility.yul\":4183:4247   */\n      tag_94\n        /* \"#utility.yul\":4239:4246   */\n      dup9\n        /* \"#utility.yul\":4230:4236   */\n      dup3\n        /* \"#utility.yul\":4219:4228   */\n      dup10\n        /* \"#utility.yul\":4215:4237   */\n      add\n        /* \"#utility.yul\":4183:4247   */\n      tag_46\n      jump\t// in\n    tag_94:\n        /* \"#utility.yul\":4173:4247   */\n      swap4\n      pop\n        /* \"#utility.yul\":4128:4257   */\n      pop\n        /* \"#utility.yul\":4296:4298   */\n      0x60\n        /* \"#utility.yul\":4322:4386   */\n      tag_95\n        /* \"#utility.yul\":4378:4385   */\n      dup9\n        /* \"#utility.yul\":4369:4375   */\n      dup3\n        /* \"#utility.yul\":4358:4367   */\n      dup10\n        /* \"#utility.yul\":4354:4376   */\n      add\n        /* \"#utility.yul\":4322:4386   */\n      tag_46\n      jump\t// in\n    tag_95:\n        /* \"#utility.yul\":4312:4386   */\n      swap3\n      pop\n        /* \"#utility.yul\":4267:4396   */\n      pop\n        /* \"#utility.yul\":4435:4438   */\n      0x80\n        /* \"#utility.yul\":4462:4525   */\n      tag_96\n        /* \"#utility.yul\":4517:4524   */\n      dup9\n        /* \"#utility.yul\":4508:4514   */\n      dup3\n        /* \"#utility.yul\":4497:4506   */\n      dup10\n        /* \"#utility.yul\":4493:4515   */\n      add\n        /* \"#utility.yul\":4462:4525   */\n      tag_41\n      jump\t// in\n    tag_96:\n        /* \"#utility.yul\":4452:4525   */\n      swap2\n      pop\n        /* \"#utility.yul\":4406:4535   */\n      pop\n        /* \"#utility.yul\":3571:4542   */\n      swap3\n      swap6\n      pop\n      swap3\n      swap6\n      swap1\n      swap4\n      pop\n      jump\t// out\n        /* \"#utility.yul\":4548:5104   */\n    tag_29:\n        /* \"#utility.yul\":4587:4594   */\n      0x00\n        /* \"#utility.yul\":4610:4629   */\n      tag_98\n        /* \"#utility.yul\":4627:4628   */\n      dup3\n        /* \"#utility.yul\":4610:4629   */\n      tag_42\n      jump\t// in\n    tag_98:\n        /* \"#utility.yul\":4605:4629   */\n      swap2\n      pop\n        /* \"#utility.yul\":4643:4662   */\n      tag_99\n        /* \"#utility.yul\":4660:4661   */\n      dup4\n        /* \"#utility.yul\":4643:4662   */\n      tag_42\n      jump\t// in\n    tag_99:\n        /* \"#utility.yul\":4638:4662   */\n      swap3\n      pop\n        /* \"#utility.yul\":4697:4698   */\n      dup3\n        /* \"#utility.yul\":4694:4695   */\n      dup3\n        /* \"#utility.yul\":4690:4699   */\n      mul\n        /* \"#utility.yul\":4719:4748   */\n      tag_100\n        /* \"#utility.yul\":4736:4747   */\n      dup2\n        /* \"#utility.yul\":4719:4748   */\n      tag_42\n      jump\t// in\n    tag_100:\n        /* \"#utility.yul\":4708:4748   */\n      swap2\n      pop\n        /* \"#utility.yul\":4806:4872   */\n      0x8000000000000000000000000000000000000000000000000000000000000000\n        /* \"#utility.yul\":4803:4804   */\n      dup5\n        /* \"#utility.yul\":4800:4873   */\n      eq\n        /* \"#utility.yul\":4796:4797   */\n      0x00\n        /* \"#utility.yul\":4793:4794   */\n      dup5\n        /* \"#utility.yul\":4789:4798   */\n      slt\n        /* \"#utility.yul\":4785:4874   */\n      and\n        /* \"#utility.yul\":4782:4897   */\n      iszero\n      tag_101\n      jumpi\n        /* \"#utility.yul\":4877:4895   */\n      tag_102\n      tag_34\n      jump\t// in\n    tag_102:\n        /* \"#utility.yul\":4782:4897   */\n    tag_101:\n        /* \"#utility.yul\":5047:5048   */\n      dup3\n        /* \"#utility.yul\":5038:5045   */\n      dup3\n        /* \"#utility.yul\":5033:5049   */\n      sdiv\n        /* \"#utility.yul\":5030:5031   */\n      dup5\n        /* \"#utility.yul\":5027:5050   */\n      eq\n        /* \"#utility.yul\":5007:5008   */\n      dup4\n        /* \"#utility.yul\":5000:5009   */\n      iszero\n        /* \"#utility.yul\":4980:5064   */\n      or\n        /* \"#utility.yul\":4957:5097   */\n      tag_103\n      jumpi\n        /* \"#utility.yul\":5077:5095   */\n      tag_104\n      tag_34\n      jump\t// in\n    tag_104:\n        /* \"#utility.yul\":4957:5097   */\n    tag_103:\n        /* \"#utility.yul\":4595:5104   */\n      pop\n        /* \"#utility.yul\":4548:5104   */\n      swap3\n      swap2\n      pop\n      pop\n      jump\t// out\n\n    auxdata: 0xa2646970667358221220d083ee218ec6360e82201de7967eeb3f4a6d91b31bb02701ef2d3fb64433e18c64736f6c634300081f0033\n}\n",
				"bytecode": {
					"linkReferences": {},
					"object": "6080604052674563918244f400005f553480156019575f5ffd5b50610483806100275f395ff3fe608060405260043610610028575f3560e01c80633ccfd60b1461002c578063b60d428814610042575b5f5ffd5b348015610037575f5ffd5b5061004061004c565b005b61004a61004e565b005b565b5f546100593461009c565b101561009a576040517f08c379a0000000000000000000000000000000000000000000000000000000008152600401610091906101ce565b60405180910390fd5b565b5f5f6100a66100cf565b9050670de0b6b3a764000083826100bd9190610222565b6100c79190610290565b915050919050565b5f5f730fc5025c764ce34df352757e82f7b5c4df39a83690505f8173ffffffffffffffffffffffffffffffffffffffff1663feaf968c6040518163ffffffff1660e01b815260040160a060405180830381865afa158015610132573d5f5f3e3d5ffd5b505050506040513d601f19601f820116820180604052508101906101569190610360565b5050509150506402540be4008161016d91906103d7565b9250505090565b5f82825260208201905092915050565b7f53656e642041746c6561737420352075736420776f727468206f6620657468005f82015250565b5f6101b8601f83610174565b91506101c382610184565b602082019050919050565b5f6020820190508181035f8301526101e5816101ac565b9050919050565b5f819050919050565b7f4e487b71000000000000000000000000000000000000000000000000000000005f52601160045260245ffd5b5f61022c826101ec565b9150610237836101ec565b9250828202610245816101ec565b9150828204841483151761025c5761025b6101f5565b5b5092915050565b7f4e487b71000000000000000000000000000000000000000000000000000000005f52601260045260245ffd5b5f61029a826101ec565b91506102a5836101ec565b9250826102b5576102b4610263565b5b828204905092915050565b5f5ffd5b5f69ffffffffffffffffffff82169050919050565b6102e2816102c4565b81146102ec575f5ffd5b50565b5f815190506102fd816102d9565b92915050565b5f819050919050565b61031581610303565b811461031f575f5ffd5b50565b5f815190506103308161030c565b92915050565b61033f816101ec565b8114610349575f5ffd5b50565b5f8151905061035a81610336565b92915050565b5f5f5f5f5f60a08688031215610379576103786102c0565b5b5f610386888289016102ef565b955050602061039788828901610322565b94505060406103a88882890161034c565b93505060606103b98882890161034c565b92505060806103ca888289016102ef565b9150509295509295909350565b5f6103e182610303565b91506103ec83610303565b92508282026103fa81610303565b91507f800000000000000000000000000000000000000000000000000000000000000084145f84121615610431576104306101f5565b5b8282058414831517610446576104456101f5565b5b509291505056fea2646970667358221220d083ee218ec6360e82201de7967eeb3f4a6d91b31bb02701ef2d3fb64433e18c64736f6c634300081f0033",
					"opcodes": "PUSH1 0x80 PUSH1 0x40 MSTORE PUSH8 0x4563918244F40000 PUSH0 SSTORE CALLVALUE DUP1 ISZERO PUSH1 0x19 JUMPI PUSH0 PUSH0 REVERT JUMPDEST POP PUSH2 0x483 DUP1 PUSH2 0x27 PUSH0 CODECOPY PUSH0 RETURN INVALID PUSH1 0x80 PUSH1 0x40 MSTORE PUSH1 0x4 CALLDATASIZE LT PUSH2 0x28 JUMPI PUSH0 CALLDATALOAD PUSH1 0xE0 SHR DUP1 PUSH4 0x3CCFD60B EQ PUSH2 0x2C JUMPI DUP1 PUSH4 0xB60D4288 EQ PUSH2 0x42 JUMPI JUMPDEST PUSH0 PUSH0 REVERT JUMPDEST CALLVALUE DUP1 ISZERO PUSH2 0x37 JUMPI PUSH0 PUSH0 REVERT JUMPDEST POP PUSH2 0x40 PUSH2 0x4C JUMP JUMPDEST STOP JUMPDEST PUSH2 0x4A PUSH2 0x4E JUMP JUMPDEST STOP JUMPDEST JUMP JUMPDEST PUSH0 SLOAD PUSH2 0x59 CALLVALUE PUSH2 0x9C JUMP JUMPDEST LT ISZERO PUSH2 0x9A JUMPI PUSH1 0x40 MLOAD PUSH32 0x8C379A000000000000000000000000000000000000000000000000000000000 DUP2 MSTORE PUSH1 0x4 ADD PUSH2 0x91 SWAP1 PUSH2 0x1CE JUMP JUMPDEST PUSH1 0x40 MLOAD DUP1 SWAP2 SUB SWAP1 REVERT JUMPDEST JUMP JUMPDEST PUSH0 PUSH0 PUSH2 0xA6 PUSH2 0xCF JUMP JUMPDEST SWAP1 POP PUSH8 0xDE0B6B3A7640000 DUP4 DUP3 PUSH2 0xBD SWAP2 SWAP1 PUSH2 0x222 JUMP JUMPDEST PUSH2 0xC7 SWAP2 SWAP1 PUSH2 0x290 JUMP JUMPDEST SWAP2 POP POP SWAP2 SWAP1 POP JUMP JUMPDEST PUSH0 PUSH0 PUSH20 0xFC5025C764CE34DF352757E82F7B5C4DF39A836 SWAP1 POP PUSH0 DUP2 PUSH20 0xFFFFFFFFFFFFFFFFFFFFFFFFFFFFFFFFFFFFFFFF AND PUSH4 0xFEAF968C PUSH1 0x40 MLOAD DUP2 PUSH4 0xFFFFFFFF AND PUSH1 0xE0 SHL DUP2 MSTORE PUSH1 0x4 ADD PUSH1 0xA0 PUSH1 0x40 MLOAD DUP1 DUP4 SUB DUP2 DUP7 GAS STATICCALL ISZERO DUP1 ISZERO PUSH2 0x132 JUMPI RETURNDATASIZE PUSH0 PUSH0 RETURNDATACOPY RETURNDATASIZE PUSH0 REVERT JUMPDEST POP POP POP POP PUSH1 0x40 MLOAD RETURNDATASIZE PUSH1 0x1F NOT PUSH1 0x1F DUP3 ADD AND DUP3 ADD DUP1 PUSH1 0x40 MSTORE POP DUP2 ADD SWAP1 PUSH2 0x156 SWAP2 SWAP1 PUSH2 0x360 JUMP JUMPDEST POP POP POP SWAP2 POP POP PUSH5 0x2540BE400 DUP2 PUSH2 0x16D SWAP2 SWAP1 PUSH2 0x3D7 JUMP JUMPDEST SWAP3 POP POP POP SWAP1 JUMP JUMPDEST PUSH0 DUP3 DUP3 MSTORE PUSH1 0x20 DUP3 ADD SWAP1 POP SWAP3 SWAP2 POP POP JUMP JUMPDEST PUSH32 0x53656E642041746C6561737420352075736420776F727468206F662065746800 PUSH0 DUP3 ADD MSTORE POP JUMP JUMPDEST PUSH0 PUSH2 0x1B8 PUSH1 0x1F DUP4 PUSH2 0x174 JUMP JUMPDEST SWAP2 POP PUSH2 0x1C3 DUP3 PUSH2 0x184 JUMP JUMPDEST PUSH1 0x20 DUP3 ADD SWAP1 POP SWAP2 SWAP1 POP JUMP JUMPDEST PUSH0 PUSH1 0x20 DUP3 ADD SWAP1 POP DUP2 DUP2 SUB PUSH0 DUP4 ADD MSTORE PUSH2 0x1E5 DUP2 PUSH2 0x1AC JUMP JUMPDEST SWAP1 POP SWAP2 SWAP1 POP JUMP JUMPDEST PUSH0 DUP2 SWAP1 POP SWAP2 SWAP1 POP JUMP JUMPDEST PUSH32 0x4E487B7100000000000000000000000000000000000000000000000000000000 PUSH0 MSTORE PUSH1 0x11 PUSH1 0x4 MSTORE PUSH1 0x24 PUSH0 REVERT JUMPDEST PUSH0 PUSH2 0x22C DUP3 PUSH2 0x1EC JUMP JUMPDEST SWAP2 POP PUSH2 0x237 DUP4 PUSH2 0x1EC JUMP JUMPDEST SWAP3 POP DUP3 DUP3 MUL PUSH2 0x245 DUP2 PUSH2 0x1EC JUMP JUMPDEST SWAP2 POP DUP3 DUP3 DIV DUP5 EQ DUP4 ISZERO OR PUSH2 0x25C JUMPI PUSH2 0x25B PUSH2 0x1F5 JUMP JUMPDEST JUMPDEST POP SWAP3 SWAP2 POP POP JUMP JUMPDEST PUSH32 0x4E487B7100000000000000000000000000000000000000000000000000000000 PUSH0 MSTORE PUSH1 0x12 PUSH1 0x4 MSTORE PUSH1 0x24 PUSH0 REVERT JUMPDEST PUSH0 PUSH2 0x29A DUP3 PUSH2 0x1EC JUMP JUMPDEST SWAP2 POP PUSH2 0x2A5 DUP4 PUSH2 0x1EC JUMP JUMPDEST SWAP3 POP DUP3 PUSH2 0x2B5 JUMPI PUSH2 0x2B4 PUSH2 0x263 JUMP JUMPDEST JUMPDEST DUP3 DUP3 DIV SWAP1 POP SWAP3 SWAP2 POP POP JUMP JUMPDEST PUSH0 PUSH0 REVERT JUMPDEST PUSH0 PUSH10 0xFFFFFFFFFFFFFFFFFFFF DUP3 AND SWAP1 POP SWAP2 SWAP1 POP JUMP JUMPDEST PUSH2 0x2E2 DUP2 PUSH2 0x2C4 JUMP JUMPDEST DUP2 EQ PUSH2 0x2EC JUMPI PUSH0 PUSH0 REVERT JUMPDEST POP JUMP JUMPDEST PUSH0 DUP2 MLOAD SWAP1 POP PUSH2 0x2FD DUP2 PUSH2 0x2D9 JUMP JUMPDEST SWAP3 SWAP2 POP POP JUMP JUMPDEST PUSH0 DUP2 SWAP1 POP SWAP2 SWAP1 POP JUMP JUMPDEST PUSH2 0x315 DUP2 PUSH2 0x303 JUMP JUMPDEST DUP2 EQ PUSH2 0x31F JUMPI PUSH0 PUSH0 REVERT JUMPDEST POP JUMP JUMPDEST PUSH0 DUP2 MLOAD SWAP1 POP PUSH2 0x330 DUP2 PUSH2 0x30C JUMP JUMPDEST SWAP3 SWAP2 POP POP JUMP JUMPDEST PUSH2 0x33F DUP2 PUSH2 0x1EC JUMP JUMPDEST DUP2 EQ PUSH2 0x349 JUMPI PUSH0 PUSH0 REVERT JUMPDEST POP JUMP JUMPDEST PUSH0 DUP2 MLOAD SWAP1 POP PUSH2 0x35A DUP2 PUSH2 0x336 JUMP JUMPDEST SWAP3 SWAP2 POP POP JUMP JUMPDEST PUSH0 PUSH0 PUSH0 PUSH0 PUSH0 PUSH1 0xA0 DUP7 DUP9 SUB SLT ISZERO PUSH2 0x379 JUMPI PUSH2 0x378 PUSH2 0x2C0 JUMP JUMPDEST JUMPDEST PUSH0 PUSH2 0x386 DUP9 DUP3 DUP10 ADD PUSH2 0x2EF JUMP JUMPDEST SWAP6 POP POP PUSH1 0x20 PUSH2 0x397 DUP9 DUP3 DUP10 ADD PUSH2 0x322 JUMP JUMPDEST SWAP5 POP POP PUSH1 0x40 PUSH2 0x3A8 DUP9 DUP3 DUP10 ADD PUSH2 0x34C JUMP JUMPDEST SWAP4 POP POP PUSH1 0x60 PUSH2 0x3B9 DUP9 DUP3 DUP10 ADD PUSH2 0x34C JUMP JUMPDEST SWAP3 POP POP PUSH1 0x80 PUSH2 0x3CA DUP9 DUP3 DUP10 ADD PUSH2 0x2EF JUMP JUMPDEST SWAP2 POP POP SWAP3 SWAP6 POP SWAP3 SWAP6 SWAP1 SWAP4 POP JUMP JUMPDEST PUSH0 PUSH2 0x3E1 DUP3 PUSH2 0x303 JUMP JUMPDEST SWAP2 POP PUSH2 0x3EC DUP4 PUSH2 0x303 JUMP JUMPDEST SWAP3 POP DUP3 DUP3 MUL PUSH2 0x3FA DUP2 PUSH2 0x303 JUMP JUMPDEST SWAP2 POP PUSH32 0x8000000000000000000000000000000000000000000000000000000000000000 DUP5 EQ PUSH0 DUP5 SLT AND ISZERO PUSH2 0x431 JUMPI PUSH2 0x430 PUSH2 0x1F5 JUMP JUMPDEST JUMPDEST DUP3 DUP3 SDIV DUP5 EQ DUP4 ISZERO OR PUSH2 0x446 JUMPI PUSH2 0x445 PUSH2 0x1F5 JUMP JUMPDEST JUMPDEST POP SWAP3 SWAP2 POP POP JUMP INVALID LOG2 PUSH5 0x6970667358 0x22 SLT KECCAK256 0xD0 DUP4 RETURNCONTRACT 0x21 DUP15 0xC6 CALLDATASIZE 0xE DUP3 KECCAK256 SAR SWAPN 0x96 PUSH31 0xEB3F4A6D91B31BB02701EF2D3FB64433E18C64736F6C634300081F00330000 "
				},
				"gasEstimates": {
					"creation": {
						"codeDepositCost": "231000",
						"executionCost": "22378",
						"totalCost": "253378"
					},
					"external": {
						"fund()": "infinite",
						"withdraw()": "121"
					}
				},
				"methodIdentifiers": {
					"fund()": "b60d4288",
					"withdraw()": "3ccfd60b"
				}
			},
			"storageLayout": {
				"storage": [
					{
						"astId": 55,
						"contract": "contracts/FundMe.sol:FundMe",
						"label": "min_usd",
						"offset": 0,
						"slot": "0",
						"type": "t_uint256"
					}
				],
				"types": {
					"t_uint256": {
						"encoding": "inplace",
						"label": "uint256",
						"numberOfBytes": "32"
					}
				}
			},
			"userdoc": {
				"kind": "user",
				"methods": {},
				"version": 1
			}
		}
	}
}