{
	"contracts/MockV3Aggregator.sol": {
		"MockV3Aggregator": {
			"abi": [
				{
					"inputs": [
						{
							"internalType": "uint8",
							"name": "_decimals",
							"type": "uint8"
						},
						{
							"internalType": "int256",
							"name": "_initialAnswer",
							"type": "int256"
						}
					],
					"stateMutability": "nonpayable",
					"type": "constructor"
				},
				{
					"inputs": [],
					"name": "decimals",
					"outputs": [
						{
							"internalType": "uint8",
							"name": "",
							"type": "uint8"
						}
					],
					"stateMutability": "view",
					"type": "function"
				},
				{
					"inputs": [],
					"name": "latestRoundData",
					"outputs": [
						{
							"internalType": "uint80",
							"name": "",
							"type": "uint80"
						},
						{
							"internalType": "int256",
							"name": "",
							"type": "int256"
						},
						{
							"internalType": "uint256",
							"name": "",
							"type": "uint256"
						},
						{
							"internalType": "uint256",
							"name": "",
							"type": "uint256"
						},
						{
							"internalType": "uint80",
							"name": "",
							"type": "uint80"
						}
					],
					"stateMutability": "view",
					"type": "function"
				}
			],
			"devdoc": {
				"kind": "dev",
				"methods": {},
				"version": 1
			},
			"evm": {
				"assembly": "    /* \"contracts/MockV3Aggregator.sol\":58:509  contract MockV3Aggregator {... */\n  mstore(0x40, 0x80)\n    /* \"contracts/MockV3Aggregator.sol\":145:267  constructor(uint8 _decimals, int256 _initialAnswer) {... */\n  callvalue\n  dup1\n  iszero\n  tag_1\n  jumpi\n  revert(0x00, 0x00)\ntag_1:\n  pop\n  mload(0x40)\n  sub(codesize, bytecodeSize)\n  dup1\n  bytecodeSize\n  dup4\n  codecopy\n  dup2\n  dup2\n  add\n  0x40\n  mstore\n  dup2\n  add\n  swap1\n  tag_2\n  swap2\n  swap1\n  tag_3\n  jump\t// in\ntag_2:\n    /* \"contracts/MockV3Aggregator.sol\":218:227  _decimals */\n  dup2\n    /* \"contracts/MockV3Aggregator.sol\":207:215  decimals */\n  0x00\n  0x00\n    /* \"contracts/MockV3Aggregator.sol\":207:227  decimals = _decimals */\n  0x0100\n  exp\n  dup2\n  sload\n  dup2\n  0xff\n  mul\n  not\n  and\n  swap1\n  dup4\n  0xff\n  and\n  mul\n  or\n  swap1\n  sstore\n  pop\n    /* \"contracts/MockV3Aggregator.sol\":246:260  _initialAnswer */\n  dup1\n    /* \"contracts/MockV3Aggregator.sol\":237:243  answer */\n  0x01\n    /* \"contracts/MockV3Aggregator.sol\":237:260  answer = _initialAnswer */\n  dup2\n  swap1\n  sstore\n  pop\n    /* \"contracts/MockV3Aggregator.sol\":145:267  constructor(uint8 _decimals, int256 _initialAnswer) {... */\n  pop\n  pop\n    /* \"contracts/MockV3Aggregator.sol\":58:509  contract MockV3Aggregator {... */\n  jump(tag_6)\n    /* \"#utility.yul\":88:205   */\ntag_8:\n    /* \"#utility.yul\":197:198   */\n  0x00\n    /* \"#utility.yul\":194:195   */\n  0x00\n    /* \"#utility.yul\":187:199   */\n  revert\n    /* \"#utility.yul\":334:420   */\ntag_10:\n    /* \"#utility.yul\":369:376   */\n  0x00\n    /* \"#utility.yul\":409:413   */\n  0xff\n    /* \"#utility.yul\":402:407   */\n  dup3\n    /* \"#utility.yul\":398:414   */\n  and\n    /* \"#utility.yul\":387:414   */\n  swap1\n  pop\n    /* \"#utility.yul\":334:420   */\n  swap2\n  swap1\n  pop\n  jump\t// out\n    /* \"#utility.yul\":426:544   */\ntag_11:\n    /* \"#utility.yul\":497:519   */\n  tag_22\n    /* \"#utility.yul\":513:518   */\n  dup2\n    /* \"#utility.yul\":497:519   */\n  tag_10\n  jump\t// in\ntag_22:\n    /* \"#utility.yul\":490:495   */\n  dup2\n    /* \"#utility.yul\":487:520   */\n  eq\n    /* \"#utility.yul\":477:538   */\n  tag_23\n  jumpi\n    /* \"#utility.yul\":534:535   */\n  0x00\n    /* \"#utility.yul\":531:532   */\n  0x00\n    /* \"#utility.yul\":524:536   */\n  revert\n    /* \"#utility.yul\":477:538   */\ntag_23:\n    /* \"#utility.yul\":426:544   */\n  pop\n  jump\t// out\n    /* \"#utility.yul\":550:689   */\ntag_12:\n    /* \"#utility.yul\":605:610   */\n  0x00\n    /* \"#utility.yul\":636:642   */\n  dup2\n    /* \"#utility.yul\":630:643   */\n  mload\n    /* \"#utility.yul\":621:643   */\n  swap1\n  pop\n    /* \"#utility.yul\":652:683   */\n  tag_25\n    /* \"#utility.yul\":677:682   */\n  dup2\n    /* \"#utility.yul\":652:683   */\n  tag_11\n  jump\t// in\ntag_25:\n    /* \"#utility.yul\":550:689   */\n  swap3\n  swap2\n  pop\n  pop\n  jump\t// out\n    /* \"#utility.yul\":695:771   */\ntag_13:\n    /* \"#utility.yul\":731:738   */\n  0x00\n    /* \"#utility.yul\":760:765   */\n  dup2\n    /* \"#utility.yul\":749:765   */\n  swap1\n  pop\n    /* \"#utility.yul\":695:771   */\n  swap2\n  swap1\n  pop\n  jump\t// out\n    /* \"#utility.yul\":777:897   */\ntag_14:\n    /* \"#utility.yul\":849:872   */\n  tag_28\n    /* \"#utility.yul\":866:871   */\n  dup2\n    /* \"#utility.yul\":849:872   */\n  tag_13\n  jump\t// in\ntag_28:\n    /* \"#utility.yul\":842:847   */\n  dup2\n    /* \"#utility.yul\":839:873   */\n  eq\n    /* \"#utility.yul\":829:891   */\n  tag_29\n  jumpi\n    /* \"#utility.yul\":887:888   */\n  0x00\n    /* \"#utility.yul\":884:885   */\n  0x00\n    /* \"#utility.yul\":877:889   */\n  revert\n    /* \"#utility.yul\":829:891   */\ntag_29:\n    /* \"#utility.yul\":777:897   */\n  pop\n  jump\t// out\n    /* \"#utility.yul\":903:1044   */\ntag_15:\n    /* \"#utility.yul\":959:964   */\n  0x00\n    /* \"#utility.yul\":990:996   */\n  dup2\n    /* \"#utility.yul\":984:997   */\n  mload\n    /* \"#utility.yul\":975:997   */\n  swap1\n  pop\n    /* \"#utility.yul\":1006:1038   */\n  tag_31\n    /* \"#utility.yul\":1032:1037   */\n  dup2\n    /* \"#utility.yul\":1006:1038   */\n  tag_14\n  jump\t// in\ntag_31:\n    /* \"#utility.yul\":903:1044   */\n  swap3\n  swap2\n  pop\n  pop\n  jump\t// out\n    /* \"#utility.yul\":1050:1551   */\ntag_3:\n    /* \"#utility.yul\":1126:1132   */\n  0x00\n    /* \"#utility.yul\":1134:1140   */\n  0x00\n    /* \"#utility.yul\":1183:1185   */\n  0x40\n    /* \"#utility.yul\":1171:1180   */\n  dup4\n    /* \"#utility.yul\":1162:1169   */\n  dup6\n    /* \"#utility.yul\":1158:1181   */\n  sub\n    /* \"#utility.yul\":1154:1186   */\n  slt\n    /* \"#utility.yul\":1151:1270   */\n  iszero\n  tag_33\n  jumpi\n    /* \"#utility.yul\":1189:1268   */\n  tag_34\n  tag_8\n  jump\t// in\ntag_34:\n    /* \"#utility.yul\":1151:1270   */\ntag_33:\n    /* \"#utility.yul\":1309:1310   */\n  0x00\n    /* \"#utility.yul\":1334:1396   */\n  tag_35\n    /* \"#utility.yul\":1388:1395   */\n  dup6\n    /* \"#utility.yul\":1379:1385   */\n  dup3\n    /* \"#utility.yul\":1368:1377   */\n  dup7\n    /* \"#utility.yul\":1364:1386   */\n  add\n    /* \"#utility.yul\":1334:1396   */\n  tag_12\n  jump\t// in\ntag_35:\n    /* \"#utility.yul\":1324:1396   */\n  swap3\n  pop\n    /* \"#utility.yul\":1280:1406   */\n  pop\n    /* \"#utility.yul\":1445:1447   */\n  0x20\n    /* \"#utility.yul\":1471:1534   */\n  tag_36\n    /* \"#utility.yul\":1526:1533   */\n  dup6\n    /* \"#utility.yul\":1517:1523   */\n  dup3\n    /* \"#utility.yul\":1506:1515   */\n  dup7\n    /* \"#utility.yul\":1502:1524   */\n  add\n    /* \"#utility.yul\":1471:1534   */\n  tag_15\n  jump\t// in\ntag_36:\n    /* \"#utility.yul\":1461:1534   */\n  swap2\n  pop\n    /* \"#utility.yul\":1416:1544   */\n  pop\n    /* \"#utility.yul\":1050:1551   */\n  swap3\n  pop\n  swap3\n  swap1\n  pop\n  jump\t// out\n    /* \"contracts/MockV3Aggregator.sol\":58:509  contract MockV3Aggregator {... */\ntag_6:\n  dataSize(sub_0)\n  dup1\n  dataOffset(sub_0)\n  0x00\n  codecopy\n  0x00\n  return\nstop\n\nsub_0: assembly {\n        /* \"contracts/MockV3Aggregator.sol\":58:509  contract MockV3Aggregator {... */\n      mstore(0x40, 0x80)\n      callvalue\n      dup1\n      iszero\n      tag_1\n      jumpi\n      revert(0x00, 0x00)\n    tag_1:\n      pop\n      jumpi(tag_2, lt(calldatasize, 0x04))\n      shr(0xe0, calldataload(0x00))\n      dup1\n      0x313ce567\n      eq\n      tag_3\n      jumpi\n      dup1\n      0xfeaf968c\n      eq\n      tag_4\n      jumpi\n    tag_2:\n      revert(0x00, 0x00)\n        /* \"contracts/MockV3Aggregator.sol\":90:111  uint8 public decimals */\n    tag_3:\n      tag_5\n      tag_6\n      jump\t// in\n    tag_5:\n      mload(0x40)\n      tag_7\n      swap2\n      swap1\n      tag_8\n      jump\t// in\n    tag_7:\n      mload(0x40)\n      dup1\n      swap2\n      sub\n      swap1\n      return\n        /* \"contracts/MockV3Aggregator.sol\":273:507  function latestRoundData()... */\n    tag_4:\n      tag_9\n      tag_10\n      jump\t// in\n    tag_9:\n      mload(0x40)\n      tag_11\n      swap6\n      swap5\n      swap4\n      swap3\n      swap2\n      swap1\n      tag_12\n      jump\t// in\n    tag_11:\n      mload(0x40)\n      dup1\n      swap2\n      sub\n      swap1\n      return\n        /* \"contracts/MockV3Aggregator.sol\":90:111  uint8 public decimals */\n    tag_6:\n      0x00\n      0x00\n      swap1\n      sload\n      swap1\n      0x0100\n      exp\n      swap1\n      div\n      0xff\n      and\n      dup2\n      jump\t// out\n        /* \"contracts/MockV3Aggregator.sol\":273:507  function latestRoundData()... */\n    tag_10:\n        /* \"contracts/MockV3Aggregator.sol\":360:366  uint80 */\n      0x00\n        /* \"contracts/MockV3Aggregator.sol\":380:386  int256 */\n      0x00\n        /* \"contracts/MockV3Aggregator.sol\":400:407  uint256 */\n      0x00\n        /* \"contracts/MockV3Aggregator.sol\":421:428  uint256 */\n      0x00\n        /* \"contracts/MockV3Aggregator.sol\":442:448  uint80 */\n      0x00\n        /* \"contracts/MockV3Aggregator.sol\":481:482  0 */\n      0x00\n        /* \"contracts/MockV3Aggregator.sol\":484:490  answer */\n      sload(0x01)\n        /* \"contracts/MockV3Aggregator.sol\":492:493  0 */\n      0x00\n        /* \"contracts/MockV3Aggregator.sol\":495:496  0 */\n      0x00\n        /* \"contracts/MockV3Aggregator.sol\":498:499  0 */\n      0x00\n        /* \"contracts/MockV3Aggregator.sol\":473:500  return (0, answer, 0, 0, 0) */\n      swap5\n      pop\n      swap5\n      pop\n      swap5\n      pop\n      swap5\n      pop\n      swap5\n      pop\n        /* \"contracts/MockV3Aggregator.sol\":273:507  function latestRoundData()... */\n      swap1\n      swap2\n      swap3\n      swap4\n      swap5\n      jump\t// out\n        /* \"#utility.yul\":7:93   */\n    tag_14:\n        /* \"#utility.yul\":42:49   */\n      0x00\n        /* \"#utility.yul\":82:86   */\n      0xff\n        /* \"#utility.yul\":75:80   */\n      dup3\n        /* \"#utility.yul\":71:87   */\n      and\n        /* \"#utility.yul\":60:87   */\n      swap1\n      pop\n        /* \"#utility.yul\":7:93   */\n      swap2\n      swap1\n      pop\n      jump\t// out\n        /* \"#utility.yul\":99:211   */\n    tag_15:\n        /* \"#utility.yul\":182:204   */\n      tag_25\n        /* \"#utility.yul\":198:203   */\n      dup2\n        /* \"#utility.yul\":182:204   */\n      tag_14\n      jump\t// in\n    tag_25:\n        /* \"#utility.yul\":177:180   */\n      dup3\n        /* \"#utility.yul\":170:205   */\n      mstore\n        /* \"#utility.yul\":99:211   */\n      pop\n      pop\n      jump\t// out\n        /* \"#utility.yul\":217:431   */\n    tag_8:\n        /* \"#utility.yul\":306:310   */\n      0x00\n        /* \"#utility.yul\":344:346   */\n      0x20\n        /* \"#utility.yul\":333:342   */\n      dup3\n        /* \"#utility.yul\":329:347   */\n      add\n        /* \"#utility.yul\":321:347   */\n      swap1\n      pop\n        /* \"#utility.yul\":357:424   */\n      tag_27\n        /* \"#utility.yul\":421:422   */\n      0x00\n        /* \"#utility.yul\":410:419   */\n      dup4\n        /* \"#utility.yul\":406:423   */\n      add\n        /* \"#utility.yul\":397:403   */\n      dup5\n        /* \"#utility.yul\":357:424   */\n      tag_15\n      jump\t// in\n    tag_27:\n        /* \"#utility.yul\":217:431   */\n      swap3\n      swap2\n      pop\n      pop\n      jump\t// out\n        /* \"#utility.yul\":437:542   */\n    tag_16:\n        /* \"#utility.yul\":473:480   */\n      0x00\n        /* \"#utility.yul\":513:535   */\n      0xffffffffffffffffffff\n        /* \"#utility.yul\":506:511   */\n      dup3\n        /* \"#utility.yul\":502:536   */\n      and\n        /* \"#utility.yul\":491:536   */\n      swap1\n      pop\n        /* \"#utility.yul\":437:542   */\n      swap2\n      swap1\n      pop\n      jump\t// out\n        /* \"#utility.yul\":548:663   */\n    tag_17:\n        /* \"#utility.yul\":633:656   */\n      tag_30\n        /* \"#utility.yul\":650:655   */\n      dup2\n        /* \"#utility.yul\":633:656   */\n      tag_16\n      jump\t// in\n    tag_30:\n        /* \"#utility.yul\":628:631   */\n      dup3\n        /* \"#utility.yul\":621:657   */\n      mstore\n        /* \"#utility.yul\":548:663   */\n      pop\n      pop\n      jump\t// out\n        /* \"#utility.yul\":669:745   */\n    tag_18:\n        /* \"#utility.yul\":705:712   */\n      0x00\n        /* \"#utility.yul\":734:739   */\n      dup2\n        /* \"#utility.yul\":723:739   */\n      swap1\n      pop\n        /* \"#utility.yul\":669:745   */\n      swap2\n      swap1\n      pop\n      jump\t// out\n        /* \"#utility.yul\":751:866   */\n    tag_19:\n        /* \"#utility.yul\":836:859   */\n      tag_33\n        /* \"#utility.yul\":853:858   */\n      dup2\n        /* \"#utility.yul\":836:859   */\n      tag_18\n      jump\t// in\n    tag_33:\n        /* \"#utility.yul\":831:834   */\n      dup3\n        /* \"#utility.yul\":824:860   */\n      mstore\n        /* \"#utility.yul\":751:866   */\n      pop\n      pop\n      jump\t// out\n        /* \"#utility.yul\":872:949   */\n    tag_20:\n        /* \"#utility.yul\":909:916   */\n      0x00\n        /* \"#utility.yul\":938:943   */\n      dup2\n        /* \"#utility.yul\":927:943   */\n      swap1\n      pop\n        /* \"#utility.yul\":872:949   */\n      swap2\n      swap1\n      pop\n      jump\t// out\n        /* \"#utility.yul\":955:1073   */\n    tag_21:\n        /* \"#utility.yul\":1042:1066   */\n      tag_36\n        /* \"#utility.yul\":1060:1065   */\n      dup2\n        /* \"#utility.yul\":1042:1066   */\n      tag_20\n      jump\t// in\n    tag_36:\n        /* \"#utility.yul\":1037:1040   */\n      dup3\n        /* \"#utility.yul\":1030:1067   */\n      mstore\n        /* \"#utility.yul\":955:1073   */\n      pop\n      pop\n      jump\t// out\n        /* \"#utility.yul\":1079:1731   */\n    tag_12:\n        /* \"#utility.yul\":1278:1282   */\n      0x00\n        /* \"#utility.yul\":1316:1319   */\n      0xa0\n        /* \"#utility.yul\":1305:1314   */\n      dup3\n        /* \"#utility.yul\":1301:1320   */\n      add\n        /* \"#utility.yul\":1293:1320   */\n      swap1\n      pop\n        /* \"#utility.yul\":1330:1399   */\n      tag_38\n        /* \"#utility.yul\":1396:1397   */\n      0x00\n        /* \"#utility.yul\":1385:1394   */\n      dup4\n        /* \"#utility.yul\":1381:1398   */\n      add\n        /* \"#utility.yul\":1372:1378   */\n      dup9\n        /* \"#utility.yul\":1330:1399   */\n      tag_17\n      jump\t// in\n    tag_38:\n        /* \"#utility.yul\":1409:1479   */\n      tag_39\n        /* \"#utility.yul\":1475:1477   */\n      0x20\n        /* \"#utility.yul\":1464:1473   */\n      dup4\n        /* \"#utility.yul\":1460:1478   */\n      add\n        /* \"#utility.yul\":1451:1457   */\n      dup8\n        /* \"#utility.yul\":1409:1479   */\n      tag_19\n      jump\t// in\n    tag_39:\n        /* \"#utility.yul\":1489:1561   */\n      tag_40\n        /* \"#utility.yul\":1557:1559   */\n      0x40\n        /* \"#utility.yul\":1546:1555   */\n      dup4\n        /* \"#utility.yul\":1542:1560   */\n      add\n        /* \"#utility.yul\":1533:1539   */\n      dup7\n        /* \"#utility.yul\":1489:1561   */\n      tag_21\n      jump\t// in\n    tag_40:\n        /* \"#utility.yul\":1571:1643   */\n      tag_41\n        /* \"#utility.yul\":1639:1641   */\n      0x60\n        /* \"#utility.yul\":1628:1637   */\n      dup4\n        /* \"#utility.yul\":1624:1642   */\n      add\n        /* \"#utility.yul\":1615:1621   */\n      dup6\n        /* \"#utility.yul\":1571:1643   */\n      tag_21\n      jump\t// in\n    tag_41:\n        /* \"#utility.yul\":1653:1724   */\n      tag_42\n        /* \"#utility.yul\":1719:1722   */\n      0x80\n        /* \"#utility.yul\":1708:1717   */\n      dup4\n        /* \"#utility.yul\":1704:1723   */\n      add\n        /* \"#utility.yul\":1695:1701   */\n      dup5\n        /* \"#utility.yul\":1653:1724   */\n      tag_17\n      jump\t// in\n    tag_42:\n        /* \"#utility.yul\":1079:1731   */\n      swap7\n      swap6\n      pop\n      pop\n      pop\n      pop\n      pop\n      pop\n      jump\t// out\n\n    auxdata: 0xa26469706673582212203f683c1abab641b98d13f2ab89c0c3dc93fec51224aa8d4c2ec29a02ce0f67e864736f6c634300081f0033\n}\n",
				"bytecode": {
					"linkReferences": {},
					"object": "608060405234801561000f575f5ffd5b506040516102c53803806102c5833981810160405281019061003191906100c5565b815f5f6101000a81548160ff021916908360ff160217905550806001819055505050610103565b5f5ffd5b5f60ff82169050919050565b6100718161005c565b811461007b575f5ffd5b50565b5f8151905061008c81610068565b92915050565b5f819050919050565b6100a481610092565b81146100ae575f5ffd5b50565b5f815190506100bf8161009b565b92915050565b5f5f604083850312156100db576100da610058565b5b5f6100e88582860161007e565b92505060206100f9858286016100b1565b9150509250929050565b6101b5806101105f395ff3fe608060405234801561000f575f5ffd5b5060043610610034575f3560e01c8063313ce56714610038578063feaf968c14610056575b5f5ffd5b610040610078565b60405161004d91906100c1565b60405180910390f35b61005e610089565b60405161006f95949392919061012e565b60405180910390f35b5f5f9054906101000a900460ff1681565b5f5f5f5f5f5f6001545f5f5f945094509450945094509091929394565b5f60ff82169050919050565b6100bb816100a6565b82525050565b5f6020820190506100d45f8301846100b2565b92915050565b5f69ffffffffffffffffffff82169050919050565b6100f8816100da565b82525050565b5f819050919050565b610110816100fe565b82525050565b5f819050919050565b61012881610116565b82525050565b5f60a0820190506101415f8301886100ef565b61014e6020830187610107565b61015b604083018661011f565b610168606083018561011f565b61017560808301846100ef565b969550505050505056fea26469706673582212203f683c1abab641b98d13f2ab89c0c3dc93fec51224aa8d4c2ec29a02ce0f67e864736f6c634300081f0033",
					"opcodes": "PUSH1 0x80 PUSH1 0x40 MSTORE CALLVALUE DUP1 ISZERO PUSH2 0xF JUMPI PUSH0 PUSH0 REVERT JUMPDEST POP PUSH1 0x40 MLOAD PUSH2 0x2C5 CODESIZE SUB DUP1 PUSH2 0x2C5 DUP4 CODECOPY DUP2 DUP2 ADD PUSH1 0x40 MSTORE DUP2 ADD SWAP1 PUSH2 0x31 SWAP2 SWAP1 PUSH2 0xC5 JUMP JUMPDEST DUP2 PUSH0 PUSH0 PUSH2 0x100 EXP DUP2 SLOAD DUP2 PUSH1 0xFF MUL NOT AND SWAP1 DUP4 PUSH1 0xFF AND MUL OR SWAP1 SSTORE POP DUP1 PUSH1 0x1 DUP2 SWAP1 SSTORE POP POP POP PUSH2 0x103 JUMP JUMPDEST PUSH0 PUSH0 REVERT JUMPDEST PUSH0 PUSH1 0xFF DUP3 AND SWAP1 POP SWAP2 SWAP1 POP JUMP JUMPDEST PUSH2 0x71 DUP2 PUSH2 0x5C JUMP JUMPDEST DUP2 EQ PUSH2 0x7B JUMPI PUSH0 PUSH0 REVERT JUMPDEST POP JUMP JUMPDEST PUSH0 DUP2 MLOAD SWAP1 POP PUSH2 0x8C DUP2 PUSH2 0x68 JUMP JUMPDEST SWAP3 SWAP2 POP POP JUMP JUMPDEST PUSH0 DUP2 SWAP1 POP SWAP2 SWAP1 POP JUMP JUMPDEST PUSH2 0xA4 DUP2 PUSH2 0x92 JUMP JUMPDEST DUP2 EQ PUSH2 0xAE JUMPI PUSH0 PUSH0 REVERT JUMPDEST POP JUMP JUMPDEST PUSH0 DUP2 MLOAD SWAP1 POP PUSH2 0xBF DUP2 PUSH2 0x9B JUMP JUMPDEST SWAP3 SWAP2 POP POP JUMP JUMPDEST PUSH0 PUSH0 PUSH1 0x40 DUP4 DUP6 SUB SLT ISZERO PUSH2 0xDB JUMPI PUSH2 0xDA PUSH2 0x58 JUMP JUMPDEST JUMPDEST PUSH0 PUSH2 0xE8 DUP6 DUP3 DUP7 ADD PUSH2 0x7E JUMP JUMPDEST SWAP3 POP POP PUSH1 0x20 PUSH2 0xF9 DUP6 DUP3 DUP7 ADD PUSH2 0xB1 JUMP JUMPDEST SWAP2 POP POP SWAP3 POP SWAP3 SWAP1 POP JUMP JUMPDEST PUSH2 0x1B5 DUP1 PUSH2 0x110 PUSH0 CODECOPY PUSH0 RETURN INVALID PUSH1 0x80 PUSH1 0x40 MSTORE CALLVALUE DUP1 ISZERO PUSH2 0xF JUMPI PUSH0 PUSH0 REVERT JUMPDEST POP PUSH1 0x4 CALLDATASIZE LT PUSH2 0x34 JUMPI PUSH0 CALLDATALOAD PUSH1 0xE0 SHR DUP1 PUSH4 0x313CE567 EQ PUSH2 0x38 JUMPI DUP1 PUSH4 0xFEAF968C EQ PUSH2 0x56 JUMPI JUMPDEST PUSH0 PUSH0 REVERT JUMPDEST PUSH2 0x40 PUSH2 0x78 JUMP JUMPDEST PUSH1 0x40 MLOAD PUSH2 0x4D SWAP2 SWAP1 PUSH2 0xC1 JUMP JUMPDEST PUSH1 0x40 MLOAD DUP1 SWAP2 SUB SWAP1 RETURN JUMPDEST PUSH2 0x5E PUSH2 0x89 JUMP JUMPDEST PUSH1 0x40 MLOAD PUSH2 0x6F SWAP6 SWAP5 SWAP4 SWAP3 SWAP2 SWAP1 PUSH2 0x12E JUMP JUMPDEST PUSH1 0x40 MLOAD DUP1 SWAP2 SUB SWAP1 RETURN JUMPDEST PUSH0 PUSH0 SWAP1 SLOAD SWAP1 PUSH2 0x100 EXP SWAP1 DIV PUSH1 0xFF AND DUP2 JUMP JUMPDEST PUSH0 PUSH0 PUSH0 PUSH0 PUSH0 PUSH0 PUSH1 0x1 SLOAD PUSH0 PUSH0 PUSH0 SWAP5 POP SWAP5 POP SWAP5 POP SWAP5 POP SWAP5 POP SWAP1 SWAP2 SWAP3 SWAP4 SWAP5 JUMP JUMPDEST PUSH0 PUSH1 0xFF DUP3 AND SWAP1 POP SWAP2 SWAP1 POP JUMP JUMPDEST PUSH2 0xBB DUP2 PUSH2 0xA6 JUMP JUMPDEST DUP3 MSTORE POP POP JUMP JUMPDEST PUSH0 PUSH1 0x20 DUP3 ADD SWAP1 POP PUSH2 0xD4 PUSH0 DUP4 ADD DUP5 PUSH2 0xB2 JUMP JUMPDEST SWAP3 SWAP2 POP POP JUMP JUMPDEST PUSH0 PUSH10 0xFFFFFFFFFFFFFFFFFFFF DUP3 AND SWAP1 POP SWAP2 SWAP1 POP JUMP JUMPDEST PUSH2 0xF8 DUP2 PUSH2 0xDA JUMP JUMPDEST DUP3 MSTORE POP POP JUMP JUMPDEST PUSH0 DUP2 SWAP1 POP SWAP2 SWAP1 POP JUMP JUMPDEST PUSH2 0x110 DUP2 PUSH2 0xFE JUMP JUMPDEST DUP3 MSTORE POP POP JUMP JUMPDEST PUSH0 DUP2 SWAP1 POP SWAP2 SWAP1 POP JUMP JUMPDEST PUSH2 0x128 DUP2 PUSH2 0x116 JUMP JUMPDEST DUP3 MSTORE POP POP JUMP JUMPDEST PUSH0 PUSH1 0xA0 DUP3 ADD SWAP1 POP PUSH2 0x141 PUSH0 DUP4 ADD DUP9 PUSH2 0xEF JUMP JUMPDEST PUSH2 0x14E PUSH1 0x20 DUP4 ADD DUP8 PUSH2 0x107 JUMP JUMPDEST PUSH2 0x15B PUSH1 0x40 DUP4 ADD DUP7 PUSH2 0x11F JUMP JUMPDEST PUSH2 0x168 PUSH1 0x60 DUP4 ADD DUP6 PUSH2 0x11F JUMP JUMPDEST PUSH2 0x175 PUSH1 0x80 DUP4 ADD DUP5 PUSH2 0xEF JUMP JUMPDEST SWAP7 SWAP6 POP POP POP POP POP POP JUMP INVALID LOG2 PUSH5 0x6970667358 0x22 SLT KECCAK256 EXTCODEHASH PUSH9 0x3C1ABAB641B98D13F2 0xAB DUP10 0xC0 0xC3 0xDC SWAP4 INVALID 0xC5 SLT 0x24 0xAA DUP14 0x4C 0x2E 0xC2 SWAP11 MUL 0xCE 0xF PUSH8 0xE864736F6C634300 ADDMOD 0x1F STOP CALLER "
				},
				"gasEstimates": {
					"creation": {
						"codeDepositCost": "87400",
						"executionCost": "infinite",
						"totalCost": "infinite"
					},
					"external": {
						"decimals()": "2443",
						"latestRoundData()": "infinite"
					}
				},
				"methodIdentifiers": {
					"decimals()": "313ce567",
					"latestRoundData()": "feaf968c"
				}
			},
			"storageLayout": {
				"storage": [
					{
						"astId": 3,
						"contract": "contracts/MockV3Aggregator.sol:MockV3Aggregator",
						"label": "decimals",
						"offset": 0,
						"slot": "0",
						"type": "t_uint8"
					},
					{
						"astId": 5,
						"contract": "contracts/MockV3Aggregator.sol:MockV3Aggregator",
						"label": "answer",
						"offset": 0,
						"slot": "1",
						"type": "t_int256"
					}
				],
				"types": {
					"t_int256": {
						"encoding": "inplace",
						"label": "int256",
						"numberOfBytes": "32"
					},
					"t_uint8": {
						"encoding": "inplace",
						"label": "uint8",
						"numberOfBytes": "1"
					}
				}
			},
			"userdoc": {
				"kind": "user",
				"methods": {},
				"version": 1
			}
		}
	}
}