{
	"contracts/Revise/FundMe.sol": {
		"FundMe": {
			"abi": [
				{
					"anonymous": false,
					"inputs": [
						{
							"indexed": false,
							"internalType": "address",
							"name": "from",
							"type": "address"
						},
						{
							"indexed": false,
							"internalType": "address",
							"name": "to",
							"type": "address"
						},
						{
							"indexed": false,
							"internalType": "string",
							"name": "successString",
							"type": "string"
						},
						{
							"indexed": false,
							"internalType": "uint256",
							"name": "value",
							"type": "uint256"
						}
					],
					"name": "Success",
					"type": "event"
				},
				{
					"anonymous": false,
					"inputs": [
						{
							"indexed": false,
							"internalType": "address",
							"name": "from",
							"type": "address"
						},
						{
							"indexed": false,
							"internalType": "address",
							"name": "to",
							"type": "address"
						},
						{
							"indexed": false,
							"internalType": "string",
							"name": "successString",
							"type": "string"
						},
						{
							"indexed": false,
							"internalType": "uint256",
							"name": "value",
							"type": "uint256"
						}
					],
					"name": "WithdrawlSuccess",
					"type": "event"
				},
				{
					"inputs": [],
					"name": "fund",
					"outputs": [],
					"stateMutability": "payable",
					"type": "function"
				},
				{
					"inputs": [],
					"name": "withdraw",
					"outputs": [],
					"stateMutability": "nonpayable",
					"type": "function"
				}
			],
			"devdoc": {
				"kind": "dev",
				"methods": {},
				"version": 1
			},
			"evm": {
				"assembly": "    /* \"contracts/Revise/FundMe.sol\":119:1239  contract FundMe{... */\n  mstore(0x40, 0xa0)\n    /* \"contracts/Revise/FundMe.sol\":263:320  string internal successString = \"Transaction successfull\" */\n  mload(0x40)\n  dup1\n  0x40\n  add\n  0x40\n  mstore\n  dup1\n  0x17\n  dup2\n  mstore\n  0x20\n  add\n  0x5472616e73616374696f6e207375636365737366756c6c000000000000000000\n  dup2\n  mstore\n  pop\n  0x01\n  swap1\n  dup2\n  tag_1\n  swap2\n  swap1\n  tag_2\n  jump\t// in\ntag_1:\n  pop\n    /* \"contracts/Revise/FundMe.sol\":577:619  0xdD870fA1b7C4700F2BD7f44238821C26f7392148 */\n  0xdd870fa1b7c4700f2bd7f44238821c26f7392148\n    /* \"contracts/Revise/FundMe.sol\":549:619  address immutable i_owner = 0xdD870fA1b7C4700F2BD7f44238821C26f7392148 */\n  0xffffffffffffffffffffffffffffffffffffffff\n  and\n  0x80\n  swap1\n  0xffffffffffffffffffffffffffffffffffffffff\n  and\n  dup2\n  mstore\n  pop\n    /* \"contracts/Revise/FundMe.sol\":119:1239  contract FundMe{... */\n  callvalue\n  dup1\n  iszero\n  tag_3\n  jumpi\n  revert(0x00, 0x00)\ntag_3:\n  pop\n  jump(tag_4)\n    /* \"#utility.yul\":7:106   */\ntag_5:\n    /* \"#utility.yul\":59:65   */\n  0x00\n    /* \"#utility.yul\":93:98   */\n  dup2\n    /* \"#utility.yul\":87:99   */\n  mload\n    /* \"#utility.yul\":77:99   */\n  swap1\n  pop\n    /* \"#utility.yul\":7:106   */\n  swap2\n  swap1\n  pop\n  jump\t// out\n    /* \"#utility.yul\":112:292   */\ntag_6:\n    /* \"#utility.yul\":160:237   */\n  0x4e487b7100000000000000000000000000000000000000000000000000000000\n    /* \"#utility.yul\":157:158   */\n  0x00\n    /* \"#utility.yul\":150:238   */\n  mstore\n    /* \"#utility.yul\":257:261   */\n  0x41\n    /* \"#utility.yul\":254:255   */\n  0x04\n    /* \"#utility.yul\":247:262   */\n  mstore\n    /* \"#utility.yul\":281:285   */\n  0x24\n    /* \"#utility.yul\":278:279   */\n  0x00\n    /* \"#utility.yul\":271:286   */\n  revert\n    /* \"#utility.yul\":298:478   */\ntag_7:\n    /* \"#utility.yul\":346:423   */\n  0x4e487b7100000000000000000000000000000000000000000000000000000000\n    /* \"#utility.yul\":343:344   */\n  0x00\n    /* \"#utility.yul\":336:424   */\n  mstore\n    /* \"#utility.yul\":443:447   */\n  0x22\n    /* \"#utility.yul\":440:441   */\n  0x04\n    /* \"#utility.yul\":433:448   */\n  mstore\n    /* \"#utility.yul\":467:471   */\n  0x24\n    /* \"#utility.yul\":464:465   */\n  0x00\n    /* \"#utility.yul\":457:472   */\n  revert\n    /* \"#utility.yul\":484:804   */\ntag_8:\n    /* \"#utility.yul\":528:534   */\n  0x00\n    /* \"#utility.yul\":565:566   */\n  0x02\n    /* \"#utility.yul\":559:563   */\n  dup3\n    /* \"#utility.yul\":555:567   */\n  div\n    /* \"#utility.yul\":545:567   */\n  swap1\n  pop\n    /* \"#utility.yul\":612:613   */\n  0x01\n    /* \"#utility.yul\":606:610   */\n  dup3\n    /* \"#utility.yul\":602:614   */\n  and\n    /* \"#utility.yul\":633:651   */\n  dup1\n    /* \"#utility.yul\":623:704   */\n  tag_30\n  jumpi\n    /* \"#utility.yul\":689:693   */\n  0x7f\n    /* \"#utility.yul\":681:687   */\n  dup3\n    /* \"#utility.yul\":677:694   */\n  and\n    /* \"#utility.yul\":667:694   */\n  swap2\n  pop\n    /* \"#utility.yul\":623:704   */\ntag_30:\n    /* \"#utility.yul\":751:753   */\n  0x20\n    /* \"#utility.yul\":743:749   */\n  dup3\n    /* \"#utility.yul\":740:754   */\n  lt\n    /* \"#utility.yul\":720:738   */\n  dup2\n    /* \"#utility.yul\":717:755   */\n  sub\n    /* \"#utility.yul\":714:798   */\n  tag_31\n  jumpi\n    /* \"#utility.yul\":770:788   */\n  tag_32\n  tag_7\n  jump\t// in\ntag_32:\n    /* \"#utility.yul\":714:798   */\ntag_31:\n    /* \"#utility.yul\":535:804   */\n  pop\n    /* \"#utility.yul\":484:804   */\n  swap2\n  swap1\n  pop\n  jump\t// out\n    /* \"#utility.yul\":810:951   */\ntag_9:\n    /* \"#utility.yul\":859:863   */\n  0x00\n    /* \"#utility.yul\":882:885   */\n  dup2\n    /* \"#utility.yul\":874:885   */\n  swap1\n  pop\n    /* \"#utility.yul\":905:908   */\n  dup2\n    /* \"#utility.yul\":902:903   */\n  0x00\n    /* \"#utility.yul\":895:909   */\n  mstore\n    /* \"#utility.yul\":939:943   */\n  0x20\n    /* \"#utility.yul\":936:937   */\n  0x00\n    /* \"#utility.yul\":926:944   */\n  keccak256\n    /* \"#utility.yul\":918:944   */\n  swap1\n  pop\n    /* \"#utility.yul\":810:951   */\n  swap2\n  swap1\n  pop\n  jump\t// out\n    /* \"#utility.yul\":957:1050   */\ntag_10:\n    /* \"#utility.yul\":994:1000   */\n  0x00\n    /* \"#utility.yul\":1041:1043   */\n  0x20\n    /* \"#utility.yul\":1036:1038   */\n  0x1f\n    /* \"#utility.yul\":1029:1034   */\n  dup4\n    /* \"#utility.yul\":1025:1039   */\n  add\n    /* \"#utility.yul\":1021:1044   */\n  div\n    /* \"#utility.yul\":1011:1044   */\n  swap1\n  pop\n    /* \"#utility.yul\":957:1050   */\n  swap2\n  swap1\n  pop\n  jump\t// out\n    /* \"#utility.yul\":1056:1163   */\ntag_11:\n    /* \"#utility.yul\":1100:1108   */\n  0x00\n    /* \"#utility.yul\":1150:1155   */\n  dup3\n    /* \"#utility.yul\":1144:1148   */\n  dup3\n    /* \"#utility.yul\":1140:1156   */\n  shl\n    /* \"#utility.yul\":1119:1156   */\n  swap1\n  pop\n    /* \"#utility.yul\":1056:1163   */\n  swap3\n  swap2\n  pop\n  pop\n  jump\t// out\n    /* \"#utility.yul\":1169:1562   */\ntag_12:\n    /* \"#utility.yul\":1238:1244   */\n  0x00\n    /* \"#utility.yul\":1288:1289   */\n  0x08\n    /* \"#utility.yul\":1276:1286   */\n  dup4\n    /* \"#utility.yul\":1272:1290   */\n  mul\n    /* \"#utility.yul\":1311:1408   */\n  tag_37\n    /* \"#utility.yul\":1341:1407   */\n  0xffffffffffffffffffffffffffffffffffffffffffffffffffffffffffffffff\n    /* \"#utility.yul\":1330:1339   */\n  dup3\n    /* \"#utility.yul\":1311:1408   */\n  tag_11\n  jump\t// in\ntag_37:\n    /* \"#utility.yul\":1429:1468   */\n  tag_38\n    /* \"#utility.yul\":1459:1467   */\n  dup7\n    /* \"#utility.yul\":1448:1457   */\n  dup4\n    /* \"#utility.yul\":1429:1468   */\n  tag_11\n  jump\t// in\ntag_38:\n    /* \"#utility.yul\":1417:1468   */\n  swap6\n  pop\n    /* \"#utility.yul\":1501:1505   */\n  dup1\n    /* \"#utility.yul\":1497:1506   */\n  not\n    /* \"#utility.yul\":1490:1495   */\n  dup5\n    /* \"#utility.yul\":1486:1507   */\n  and\n    /* \"#utility.yul\":1477:1507   */\n  swap4\n  pop\n    /* \"#utility.yul\":1550:1554   */\n  dup1\n    /* \"#utility.yul\":1540:1548   */\n  dup7\n    /* \"#utility.yul\":1536:1555   */\n  and\n    /* \"#utility.yul\":1529:1534   */\n  dup5\n    /* \"#utility.yul\":1526:1556   */\n  or\n    /* \"#utility.yul\":1516:1556   */\n  swap3\n  pop\n    /* \"#utility.yul\":1245:1562   */\n  pop\n  pop\n    /* \"#utility.yul\":1169:1562   */\n  swap4\n  swap3\n  pop\n  pop\n  pop\n  jump\t// out\n    /* \"#utility.yul\":1568:1645   */\ntag_13:\n    /* \"#utility.yul\":1605:1612   */\n  0x00\n    /* \"#utility.yul\":1634:1639   */\n  dup2\n    /* \"#utility.yul\":1623:1639   */\n  swap1\n  pop\n    /* \"#utility.yul\":1568:1645   */\n  swap2\n  swap1\n  pop\n  jump\t// out\n    /* \"#utility.yul\":1651:1711   */\ntag_14:\n    /* \"#utility.yul\":1679:1682   */\n  0x00\n    /* \"#utility.yul\":1700:1705   */\n  dup2\n    /* \"#utility.yul\":1693:1705   */\n  swap1\n  pop\n    /* \"#utility.yul\":1651:1711   */\n  swap2\n  swap1\n  pop\n  jump\t// out\n    /* \"#utility.yul\":1717:1859   */\ntag_15:\n    /* \"#utility.yul\":1767:1776   */\n  0x00\n    /* \"#utility.yul\":1800:1853   */\n  tag_42\n    /* \"#utility.yul\":1818:1852   */\n  tag_43\n    /* \"#utility.yul\":1827:1851   */\n  tag_44\n    /* \"#utility.yul\":1845:1850   */\n  dup5\n    /* \"#utility.yul\":1827:1851   */\n  tag_13\n  jump\t// in\ntag_44:\n    /* \"#utility.yul\":1818:1852   */\n  tag_14\n  jump\t// in\ntag_43:\n    /* \"#utility.yul\":1800:1853   */\n  tag_13\n  jump\t// in\ntag_42:\n    /* \"#utility.yul\":1787:1853   */\n  swap1\n  pop\n    /* \"#utility.yul\":1717:1859   */\n  swap2\n  swap1\n  pop\n  jump\t// out\n    /* \"#utility.yul\":1865:1940   */\ntag_16:\n    /* \"#utility.yul\":1908:1911   */\n  0x00\n    /* \"#utility.yul\":1929:1934   */\n  dup2\n    /* \"#utility.yul\":1922:1934   */\n  swap1\n  pop\n    /* \"#utility.yul\":1865:1940   */\n  swap2\n  swap1\n  pop\n  jump\t// out\n    /* \"#utility.yul\":1946:2215   */\ntag_17:\n    /* \"#utility.yul\":2056:2095   */\n  tag_47\n    /* \"#utility.yul\":2087:2094   */\n  dup4\n    /* \"#utility.yul\":2056:2095   */\n  tag_15\n  jump\t// in\ntag_47:\n    /* \"#utility.yul\":2117:2208   */\n  tag_48\n    /* \"#utility.yul\":2166:2207   */\n  tag_49\n    /* \"#utility.yul\":2190:2206   */\n  dup3\n    /* \"#utility.yul\":2166:2207   */\n  tag_16\n  jump\t// in\ntag_49:\n    /* \"#utility.yul\":2158:2164   */\n  dup5\n    /* \"#utility.yul\":2151:2155   */\n  dup5\n    /* \"#utility.yul\":2145:2156   */\n  sload\n    /* \"#utility.yul\":2117:2208   */\n  tag_12\n  jump\t// in\ntag_48:\n    /* \"#utility.yul\":2111:2115   */\n  dup3\n    /* \"#utility.yul\":2104:2209   */\n  sstore\n    /* \"#utility.yul\":2022:2215   */\n  pop\n    /* \"#utility.yul\":1946:2215   */\n  pop\n  pop\n  pop\n  jump\t// out\n    /* \"#utility.yul\":2221:2294   */\ntag_18:\n    /* \"#utility.yul\":2266:2269   */\n  0x00\n    /* \"#utility.yul\":2287:2288   */\n  0x00\n    /* \"#utility.yul\":2280:2288   */\n  swap1\n  pop\n    /* \"#utility.yul\":2221:2294   */\n  swap1\n  jump\t// out\n    /* \"#utility.yul\":2300:2489   */\ntag_19:\n    /* \"#utility.yul\":2377:2409   */\n  tag_52\n  tag_18\n  jump\t// in\ntag_52:\n    /* \"#utility.yul\":2418:2483   */\n  tag_53\n    /* \"#utility.yul\":2476:2482   */\n  dup2\n    /* \"#utility.yul\":2468:2474   */\n  dup5\n    /* \"#utility.yul\":2462:2466   */\n  dup5\n    /* \"#utility.yul\":2418:2483   */\n  tag_17\n  jump\t// in\ntag_53:\n    /* \"#utility.yul\":2353:2489   */\n  pop\n    /* \"#utility.yul\":2300:2489   */\n  pop\n  pop\n  jump\t// out\n    /* \"#utility.yul\":2495:2681   */\ntag_20:\n    /* \"#utility.yul\":2555:2675   */\ntag_55:\n    /* \"#utility.yul\":2572:2575   */\n  dup2\n    /* \"#utility.yul\":2565:2570   */\n  dup2\n    /* \"#utility.yul\":2562:2576   */\n  lt\n    /* \"#utility.yul\":2555:2675   */\n  iszero\n  tag_57\n  jumpi\n    /* \"#utility.yul\":2626:2665   */\n  tag_58\n    /* \"#utility.yul\":2663:2664   */\n  0x00\n    /* \"#utility.yul\":2656:2661   */\n  dup3\n    /* \"#utility.yul\":2626:2665   */\n  tag_19\n  jump\t// in\ntag_58:\n    /* \"#utility.yul\":2599:2600   */\n  0x01\n    /* \"#utility.yul\":2592:2597   */\n  dup2\n    /* \"#utility.yul\":2588:2601   */\n  add\n    /* \"#utility.yul\":2579:2601   */\n  swap1\n  pop\n    /* \"#utility.yul\":2555:2675   */\n  jump(tag_55)\ntag_57:\n    /* \"#utility.yul\":2495:2681   */\n  pop\n  pop\n  jump\t// out\n    /* \"#utility.yul\":2687:3230   */\ntag_21:\n    /* \"#utility.yul\":2788:2790   */\n  0x1f\n    /* \"#utility.yul\":2783:2786   */\n  dup3\n    /* \"#utility.yul\":2780:2791   */\n  gt\n    /* \"#utility.yul\":2777:3223   */\n  iszero\n  tag_60\n  jumpi\n    /* \"#utility.yul\":2822:2860   */\n  tag_61\n    /* \"#utility.yul\":2854:2859   */\n  dup2\n    /* \"#utility.yul\":2822:2860   */\n  tag_9\n  jump\t// in\ntag_61:\n    /* \"#utility.yul\":2906:2935   */\n  tag_62\n    /* \"#utility.yul\":2924:2934   */\n  dup5\n    /* \"#utility.yul\":2906:2935   */\n  tag_10\n  jump\t// in\ntag_62:\n    /* \"#utility.yul\":2896:2904   */\n  dup2\n    /* \"#utility.yul\":2892:2936   */\n  add\n    /* \"#utility.yul\":3089:3091   */\n  0x20\n    /* \"#utility.yul\":3077:3087   */\n  dup6\n    /* \"#utility.yul\":3074:3092   */\n  lt\n    /* \"#utility.yul\":3071:3120   */\n  iszero\n  tag_63\n  jumpi\n    /* \"#utility.yul\":3110:3118   */\n  dup2\n    /* \"#utility.yul\":3095:3118   */\n  swap1\n  pop\n    /* \"#utility.yul\":3071:3120   */\ntag_63:\n    /* \"#utility.yul\":3133:3213   */\n  tag_64\n    /* \"#utility.yul\":3189:3211   */\n  tag_65\n    /* \"#utility.yul\":3207:3210   */\n  dup6\n    /* \"#utility.yul\":3189:3211   */\n  tag_10\n  jump\t// in\ntag_65:\n    /* \"#utility.yul\":3179:3187   */\n  dup4\n    /* \"#utility.yul\":3175:3212   */\n  add\n    /* \"#utility.yul\":3162:3173   */\n  dup3\n    /* \"#utility.yul\":3133:3213   */\n  tag_20\n  jump\t// in\ntag_64:\n    /* \"#utility.yul\":2792:3223   */\n  pop\n  pop\n    /* \"#utility.yul\":2777:3223   */\ntag_60:\n    /* \"#utility.yul\":2687:3230   */\n  pop\n  pop\n  pop\n  jump\t// out\n    /* \"#utility.yul\":3236:3353   */\ntag_22:\n    /* \"#utility.yul\":3290:3298   */\n  0x00\n    /* \"#utility.yul\":3340:3345   */\n  dup3\n    /* \"#utility.yul\":3334:3338   */\n  dup3\n    /* \"#utility.yul\":3330:3346   */\n  shr\n    /* \"#utility.yul\":3309:3346   */\n  swap1\n  pop\n    /* \"#utility.yul\":3236:3353   */\n  swap3\n  swap2\n  pop\n  pop\n  jump\t// out\n    /* \"#utility.yul\":3359:3528   */\ntag_23:\n    /* \"#utility.yul\":3403:3409   */\n  0x00\n    /* \"#utility.yul\":3436:3487   */\n  tag_68\n    /* \"#utility.yul\":3484:3485   */\n  0x00\n    /* \"#utility.yul\":3480:3486   */\n  not\n    /* \"#utility.yul\":3472:3477   */\n  dup5\n    /* \"#utility.yul\":3469:3470   */\n  0x08\n    /* \"#utility.yul\":3465:3478   */\n  mul\n    /* \"#utility.yul\":3436:3487   */\n  tag_22\n  jump\t// in\ntag_68:\n    /* \"#utility.yul\":3432:3488   */\n  not\n    /* \"#utility.yul\":3517:3521   */\n  dup1\n    /* \"#utility.yul\":3511:3515   */\n  dup4\n    /* \"#utility.yul\":3507:3522   */\n  and\n    /* \"#utility.yul\":3497:3522   */\n  swap2\n  pop\n    /* \"#utility.yul\":3410:3528   */\n  pop\n    /* \"#utility.yul\":3359:3528   */\n  swap3\n  swap2\n  pop\n  pop\n  jump\t// out\n    /* \"#utility.yul\":3533:3828   */\ntag_24:\n    /* \"#utility.yul\":3609:3613   */\n  0x00\n    /* \"#utility.yul\":3755:3784   */\n  tag_70\n    /* \"#utility.yul\":3780:3783   */\n  dup4\n    /* \"#utility.yul\":3774:3778   */\n  dup4\n    /* \"#utility.yul\":3755:3784   */\n  tag_23\n  jump\t// in\ntag_70:\n    /* \"#utility.yul\":3747:3784   */\n  swap2\n  pop\n    /* \"#utility.yul\":3817:3820   */\n  dup3\n    /* \"#utility.yul\":3814:3815   */\n  0x02\n    /* \"#utility.yul\":3810:3821   */\n  mul\n    /* \"#utility.yul\":3804:3808   */\n  dup3\n    /* \"#utility.yul\":3801:3822   */\n  or\n    /* \"#utility.yul\":3793:3822   */\n  swap1\n  pop\n    /* \"#utility.yul\":3533:3828   */\n  swap3\n  swap2\n  pop\n  pop\n  jump\t// out\n    /* \"#utility.yul\":3833:5228   */\ntag_2:\n    /* \"#utility.yul\":3950:3987   */\n  tag_72\n    /* \"#utility.yul\":3983:3986   */\n  dup3\n    /* \"#utility.yul\":3950:3987   */\n  tag_5\n  jump\t// in\ntag_72:\n    /* \"#utility.yul\":4052:4070   */\n  0xffffffffffffffff\n    /* \"#utility.yul\":4044:4050   */\n  dup2\n    /* \"#utility.yul\":4041:4071   */\n  gt\n    /* \"#utility.yul\":4038:4094   */\n  iszero\n  tag_73\n  jumpi\n    /* \"#utility.yul\":4074:4092   */\n  tag_74\n  tag_6\n  jump\t// in\ntag_74:\n    /* \"#utility.yul\":4038:4094   */\ntag_73:\n    /* \"#utility.yul\":4118:4156   */\n  tag_75\n    /* \"#utility.yul\":4150:4154   */\n  dup3\n    /* \"#utility.yul\":4144:4155   */\n  sload\n    /* \"#utility.yul\":4118:4156   */\n  tag_8\n  jump\t// in\ntag_75:\n    /* \"#utility.yul\":4203:4270   */\n  tag_76\n    /* \"#utility.yul\":4263:4269   */\n  dup3\n    /* \"#utility.yul\":4255:4261   */\n  dup3\n    /* \"#utility.yul\":4249:4253   */\n  dup6\n    /* \"#utility.yul\":4203:4270   */\n  tag_21\n  jump\t// in\ntag_76:\n    /* \"#utility.yul\":4297:4298   */\n  0x00\n    /* \"#utility.yul\":4321:4325   */\n  0x20\n    /* \"#utility.yul\":4308:4325   */\n  swap1\n  pop\n    /* \"#utility.yul\":4353:4355   */\n  0x1f\n    /* \"#utility.yul\":4345:4351   */\n  dup4\n    /* \"#utility.yul\":4342:4356   */\n  gt\n    /* \"#utility.yul\":4370:4371   */\n  0x01\n    /* \"#utility.yul\":4365:4983   */\n  dup2\n  eq\n  tag_78\n  jumpi\n    /* \"#utility.yul\":5027:5028   */\n  0x00\n    /* \"#utility.yul\":5044:5050   */\n  dup5\n    /* \"#utility.yul\":5041:5118   */\n  iszero\n  tag_79\n  jumpi\n    /* \"#utility.yul\":5093:5102   */\n  dup3\n    /* \"#utility.yul\":5088:5091   */\n  dup8\n    /* \"#utility.yul\":5084:5103   */\n  add\n    /* \"#utility.yul\":5078:5104   */\n  mload\n    /* \"#utility.yul\":5069:5104   */\n  swap1\n  pop\n    /* \"#utility.yul\":5041:5118   */\ntag_79:\n    /* \"#utility.yul\":5144:5211   */\n  tag_80\n    /* \"#utility.yul\":5204:5210   */\n  dup6\n    /* \"#utility.yul\":5197:5202   */\n  dup3\n    /* \"#utility.yul\":5144:5211   */\n  tag_24\n  jump\t// in\ntag_80:\n    /* \"#utility.yul\":5138:5142   */\n  dup7\n    /* \"#utility.yul\":5131:5212   */\n  sstore\n    /* \"#utility.yul\":5000:5222   */\n  pop\n    /* \"#utility.yul\":4335:5222   */\n  jump(tag_77)\n    /* \"#utility.yul\":4365:4983   */\ntag_78:\n    /* \"#utility.yul\":4417:4421   */\n  0x1f\n    /* \"#utility.yul\":4413:4422   */\n  not\n    /* \"#utility.yul\":4405:4411   */\n  dup5\n    /* \"#utility.yul\":4401:4423   */\n  and\n    /* \"#utility.yul\":4451:4488   */\n  tag_81\n    /* \"#utility.yul\":4483:4487   */\n  dup7\n    /* \"#utility.yul\":4451:4488   */\n  tag_9\n  jump\t// in\ntag_81:\n    /* \"#utility.yul\":4510:4511   */\n  0x00\n    /* \"#utility.yul\":4524:4732   */\ntag_82:\n    /* \"#utility.yul\":4538:4545   */\n  dup3\n    /* \"#utility.yul\":4535:4536   */\n  dup2\n    /* \"#utility.yul\":4532:4546   */\n  lt\n    /* \"#utility.yul\":4524:4732   */\n  iszero\n  tag_84\n  jumpi\n    /* \"#utility.yul\":4617:4626   */\n  dup5\n    /* \"#utility.yul\":4612:4615   */\n  dup10\n    /* \"#utility.yul\":4608:4627   */\n  add\n    /* \"#utility.yul\":4602:4628   */\n  mload\n    /* \"#utility.yul\":4594:4600   */\n  dup3\n    /* \"#utility.yul\":4587:4629   */\n  sstore\n    /* \"#utility.yul\":4668:4669   */\n  0x01\n    /* \"#utility.yul\":4660:4666   */\n  dup3\n    /* \"#utility.yul\":4656:4670   */\n  add\n    /* \"#utility.yul\":4646:4670   */\n  swap2\n  pop\n    /* \"#utility.yul\":4715:4717   */\n  0x20\n    /* \"#utility.yul\":4704:4713   */\n  dup6\n    /* \"#utility.yul\":4700:4718   */\n  add\n    /* \"#utility.yul\":4687:4718   */\n  swap5\n  pop\n    /* \"#utility.yul\":4561:4565   */\n  0x20\n    /* \"#utility.yul\":4558:4559   */\n  dup2\n    /* \"#utility.yul\":4554:4566   */\n  add\n    /* \"#utility.yul\":4549:4566   */\n  swap1\n  pop\n    /* \"#utility.yul\":4524:4732   */\n  jump(tag_82)\ntag_84:\n    /* \"#utility.yul\":4760:4766   */\n  dup7\n    /* \"#utility.yul\":4751:4758   */\n  dup4\n    /* \"#utility.yul\":4748:4767   */\n  lt\n    /* \"#utility.yul\":4745:4924   */\n  iszero\n  tag_85\n  jumpi\n    /* \"#utility.yul\":4818:4827   */\n  dup5\n    /* \"#utility.yul\":4813:4816   */\n  dup10\n    /* \"#utility.yul\":4809:4828   */\n  add\n    /* \"#utility.yul\":4803:4829   */\n  mload\n    /* \"#utility.yul\":4861:4909   */\n  tag_86\n    /* \"#utility.yul\":4903:4907   */\n  0x1f\n    /* \"#utility.yul\":4895:4901   */\n  dup10\n    /* \"#utility.yul\":4891:4908   */\n  and\n    /* \"#utility.yul\":4880:4889   */\n  dup3\n    /* \"#utility.yul\":4861:4909   */\n  tag_23\n  jump\t// in\ntag_86:\n    /* \"#utility.yul\":4853:4859   */\n  dup4\n    /* \"#utility.yul\":4846:4910   */\n  sstore\n    /* \"#utility.yul\":4768:4924   */\n  pop\n    /* \"#utility.yul\":4745:4924   */\ntag_85:\n    /* \"#utility.yul\":4970:4971   */\n  0x01\n    /* \"#utility.yul\":4966:4967   */\n  0x02\n    /* \"#utility.yul\":4958:4964   */\n  dup9\n    /* \"#utility.yul\":4954:4968   */\n  mul\n    /* \"#utility.yul\":4950:4972   */\n  add\n    /* \"#utility.yul\":4944:4948   */\n  dup9\n    /* \"#utility.yul\":4937:4973   */\n  sstore\n    /* \"#utility.yul\":4372:4983   */\n  pop\n  pop\n  pop\n    /* \"#utility.yul\":4335:5222   */\ntag_77:\n  pop\n    /* \"#utility.yul\":3925:5228   */\n  pop\n  pop\n  pop\n    /* \"#utility.yul\":3833:5228   */\n  pop\n  pop\n  jump\t// out\n    /* \"contracts/Revise/FundMe.sol\":119:1239  contract FundMe{... */\ntag_4:\n  mload(0x80)\n  codecopy(0x00, dataOffset(sub_0), dataSize(sub_0))\n  0x00\n  assignImmutable(\"0x17157e479612de6088d957c64aca858964825e74089b3c7dacc26409e6d53000\")\n  return(0x00, dataSize(sub_0))\nstop\n\nsub_0: assembly {\n        /* \"contracts/Revise/FundMe.sol\":119:1239  contract FundMe{... */\n      mstore(0x40, 0x80)\n      jumpi(tag_1, lt(calldatasize, 0x04))\n      shr(0xe0, calldataload(0x00))\n      dup1\n      0x3ccfd60b\n      eq\n      tag_2\n      jumpi\n      dup1\n      0xb60d4288\n      eq\n      tag_3\n      jumpi\n    tag_1:\n      revert(0x00, 0x00)\n        /* \"contracts/Revise/FundMe.sol\":876:1128  function withdraw()public onlyOwner{... */\n    tag_2:\n      callvalue\n      dup1\n      iszero\n      tag_4\n      jumpi\n      revert(0x00, 0x00)\n    tag_4:\n      pop\n      tag_5\n      tag_6\n      jump\t// in\n    tag_5:\n      stop\n        /* \"contracts/Revise/FundMe.sol\":663:870  function fund() public payable{... */\n    tag_3:\n      tag_7\n      tag_8\n      jump\t// in\n    tag_7:\n      stop\n        /* \"contracts/Revise/FundMe.sol\":876:1128  function withdraw()public onlyOwner{... */\n    tag_6:\n        /* \"contracts/Revise/FundMe.sol\":1186:1193  i_owner */\n      immutable(\"0x17157e479612de6088d957c64aca858964825e74089b3c7dacc26409e6d53000\")\n        /* \"contracts/Revise/FundMe.sol\":1172:1193  msg.sender == i_owner */\n      0xffffffffffffffffffffffffffffffffffffffff\n      and\n        /* \"contracts/Revise/FundMe.sol\":1172:1182  msg.sender */\n      caller\n        /* \"contracts/Revise/FundMe.sol\":1172:1193  msg.sender == i_owner */\n      0xffffffffffffffffffffffffffffffffffffffff\n      and\n      eq\n        /* \"contracts/Revise/FundMe.sol\":1164:1219  require(msg.sender == i_owner, \"You are not the owner\") */\n      tag_10\n      jumpi\n      mload(0x40)\n      0x08c379a000000000000000000000000000000000000000000000000000000000\n      dup2\n      mstore\n      0x04\n      add\n      tag_11\n      swap1\n      tag_12\n      jump\t// in\n    tag_11:\n      mload(0x40)\n      dup1\n      swap2\n      sub\n      swap1\n      revert\n    tag_10:\n        /* \"contracts/Revise/FundMe.sol\":930:938  bool res */\n      0x00\n        /* \"contracts/Revise/FundMe.sol\":949:956  i_owner */\n      immutable(\"0x17157e479612de6088d957c64aca858964825e74089b3c7dacc26409e6d53000\")\n        /* \"contracts/Revise/FundMe.sol\":941:962  payable(i_owner).call */\n      0xffffffffffffffffffffffffffffffffffffffff\n      and\n        /* \"contracts/Revise/FundMe.sol\":969:990  address(this).balance */\n      selfbalance\n        /* \"contracts/Revise/FundMe.sol\":941:995  payable(i_owner).call{value:address(this).balance}(\"\") */\n      mload(0x40)\n      tag_14\n      swap1\n      tag_15\n      jump\t// in\n    tag_14:\n      0x00\n      mload(0x40)\n      dup1\n      dup4\n      sub\n      dup2\n      dup6\n      dup8\n      gas\n      call\n      swap3\n      pop\n      pop\n      pop\n      returndatasize\n      dup1\n      0x00\n      dup2\n      eq\n      tag_18\n      jumpi\n      mload(0x40)\n      swap2\n      pop\n      and(add(returndatasize, 0x3f), not(0x1f))\n      dup3\n      add\n      0x40\n      mstore\n      returndatasize\n      dup3\n      mstore\n      returndatasize\n      0x00\n      0x20\n      dup5\n      add\n      returndatacopy\n      jump(tag_17)\n    tag_18:\n      0x60\n      swap2\n      pop\n    tag_17:\n      pop\n        /* \"contracts/Revise/FundMe.sol\":929:995  (bool res,)=payable(i_owner).call{value:address(this).balance}(\"\") */\n      pop\n      swap1\n      pop\n        /* \"contracts/Revise/FundMe.sol\":1013:1016  res */\n      dup1\n        /* \"contracts/Revise/FundMe.sol\":1005:1037  require(res, \"Withdrawl Failed\") */\n      tag_19\n      jumpi\n      mload(0x40)\n      0x08c379a000000000000000000000000000000000000000000000000000000000\n      dup2\n      mstore\n      0x04\n      add\n      tag_20\n      swap1\n      tag_21\n      jump\t// in\n    tag_20:\n      mload(0x40)\n      dup1\n      swap2\n      sub\n      swap1\n      revert\n    tag_19:\n        /* \"contracts/Revise/FundMe.sol\":1052:1121  WithdrawlSuccess(msg.sender, i_owner, successString, i_owner.balance) */\n      0x36995bccb71a1493533d2d10095138771086d22d95572020b644dbd86437a02e\n        /* \"contracts/Revise/FundMe.sol\":1069:1079  msg.sender */\n      caller\n        /* \"contracts/Revise/FundMe.sol\":1081:1088  i_owner */\n      immutable(\"0x17157e479612de6088d957c64aca858964825e74089b3c7dacc26409e6d53000\")\n        /* \"contracts/Revise/FundMe.sol\":1090:1103  successString */\n      0x01\n        /* \"contracts/Revise/FundMe.sol\":1105:1112  i_owner */\n      immutable(\"0x17157e479612de6088d957c64aca858964825e74089b3c7dacc26409e6d53000\")\n        /* \"contracts/Revise/FundMe.sol\":1105:1120  i_owner.balance */\n      0xffffffffffffffffffffffffffffffffffffffff\n      and\n      balance\n        /* \"contracts/Revise/FundMe.sol\":1052:1121  WithdrawlSuccess(msg.sender, i_owner, successString, i_owner.balance) */\n      mload(0x40)\n      tag_22\n      swap5\n      swap4\n      swap3\n      swap2\n      swap1\n      tag_23\n      jump\t// in\n    tag_22:\n      mload(0x40)\n      dup1\n      swap2\n      sub\n      swap1\n      log1\n        /* \"contracts/Revise/FundMe.sol\":911:1128  {... */\n      pop\n        /* \"contracts/Revise/FundMe.sol\":876:1128  function withdraw()public onlyOwner{... */\n      jump\t// out\n        /* \"contracts/Revise/FundMe.sol\":663:870  function fund() public payable{... */\n    tag_8:\n        /* \"contracts/Revise/FundMe.sol\":540:544  5e18 */\n      0x4563918244f40000\n        /* \"contracts/Revise/FundMe.sol\":719:746  msg.value.priceConversion() */\n      tag_25\n        /* \"contracts/Revise/FundMe.sol\":719:728  msg.value */\n      callvalue\n        /* \"contracts/Revise/FundMe.sol\":719:744  msg.value.priceConversion */\n      tag_26\n        /* \"contracts/Revise/FundMe.sol\":719:746  msg.value.priceConversion() */\n      jump\t// in\n    tag_25:\n        /* \"contracts/Revise/FundMe.sol\":719:756  msg.value.priceConversion() >=min_usd */\n      lt\n      iszero\n        /* \"contracts/Revise/FundMe.sol\":711:789  require(msg.value.priceConversion() >=min_usd, \"Send Atleast $5 worth of ETH\") */\n      tag_27\n      jumpi\n      mload(0x40)\n      0x08c379a000000000000000000000000000000000000000000000000000000000\n      dup2\n      mstore\n      0x04\n      add\n      tag_28\n      swap1\n      tag_29\n      jump\t// in\n    tag_28:\n      mload(0x40)\n      dup1\n      swap2\n      sub\n      swap1\n      revert\n    tag_27:\n        /* \"contracts/Revise/FundMe.sol\":845:854  msg.value */\n      callvalue\n        /* \"contracts/Revise/FundMe.sol\":808:829  addressToAmountFunded */\n      0x00\n        /* \"contracts/Revise/FundMe.sol\":808:841  addressToAmountFunded[msg.sender] */\n      0x00\n        /* \"contracts/Revise/FundMe.sol\":830:840  msg.sender */\n      caller\n        /* \"contracts/Revise/FundMe.sol\":808:841  addressToAmountFunded[msg.sender] */\n      0xffffffffffffffffffffffffffffffffffffffff\n      and\n      0xffffffffffffffffffffffffffffffffffffffff\n      and\n      dup2\n      mstore\n      0x20\n      add\n      swap1\n      dup2\n      mstore\n      0x20\n      add\n      0x00\n      keccak256\n      0x00\n        /* \"contracts/Revise/FundMe.sol\":808:854  addressToAmountFunded[msg.sender] += msg.value */\n      dup3\n      dup3\n      sload\n      tag_30\n      swap2\n      swap1\n      tag_31\n      jump\t// in\n    tag_30:\n      swap3\n      pop\n      pop\n      dup2\n      swap1\n      sstore\n      pop\n        /* \"contracts/Revise/FundMe.sol\":663:870  function fund() public payable{... */\n      jump\t// out\n        /* \"contracts/Revise/PriceConversionLib.sol\":480:751  function priceConversion(uint256 eth_amt) internal  view returns(uint256){... */\n    tag_26:\n        /* \"contracts/Revise/PriceConversionLib.sol\":545:552  uint256 */\n      0x00\n        /* \"contracts/Revise/PriceConversionLib.sol\":636:649  uint256 price */\n      0x00\n        /* \"contracts/Revise/PriceConversionLib.sol\":652:666  getPriceFeed() */\n      tag_33\n        /* \"contracts/Revise/PriceConversionLib.sol\":652:664  getPriceFeed */\n      tag_34\n        /* \"contracts/Revise/PriceConversionLib.sol\":652:666  getPriceFeed() */\n      jump\t// in\n    tag_33:\n        /* \"contracts/Revise/PriceConversionLib.sol\":636:666  uint256 price = getPriceFeed() */\n      swap1\n      pop\n        /* \"contracts/Revise/PriceConversionLib.sol\":676:693  uint256 eth_price */\n      0x00\n        /* \"contracts/Revise/PriceConversionLib.sol\":713:717  1e18 */\n      0x0de0b6b3a7640000\n        /* \"contracts/Revise/PriceConversionLib.sol\":705:710  price */\n      dup3\n        /* \"contracts/Revise/PriceConversionLib.sol\":697:704  eth_amt */\n      dup6\n        /* \"contracts/Revise/PriceConversionLib.sol\":697:710  eth_amt*price */\n      tag_35\n      swap2\n      swap1\n      tag_36\n      jump\t// in\n    tag_35:\n        /* \"contracts/Revise/PriceConversionLib.sol\":696:718  (eth_amt*price)/(1e18) */\n      tag_37\n      swap2\n      swap1\n      tag_38\n      jump\t// in\n    tag_37:\n        /* \"contracts/Revise/PriceConversionLib.sol\":676:718  uint256 eth_price = (eth_amt*price)/(1e18) */\n      swap1\n      pop\n        /* \"contracts/Revise/PriceConversionLib.sol\":735:744  eth_price */\n      dup1\n        /* \"contracts/Revise/PriceConversionLib.sol\":728:744  return eth_price */\n      swap3\n      pop\n      pop\n      pop\n        /* \"contracts/Revise/PriceConversionLib.sol\":480:751  function priceConversion(uint256 eth_amt) internal  view returns(uint256){... */\n      swap2\n      swap1\n      pop\n      jump\t// out\n        /* \"contracts/Revise/PriceConversionLib.sol\":205:474  function getPriceFeed()internal view returns(uint256){... */\n    tag_34:\n        /* \"contracts/Revise/PriceConversionLib.sol\":250:257  uint256 */\n      0x00\n        /* \"contracts/Revise/PriceConversionLib.sol\":268:299  AggregatorV3Interface pricefeed */\n      0x00\n        /* \"contracts/Revise/PriceConversionLib.sol\":324:366  0xb27A31f1b0AF2946B7F582768f03239b1eC07c2c */\n      0xb27a31f1b0af2946b7f582768f03239b1ec07c2c\n        /* \"contracts/Revise/PriceConversionLib.sol\":268:367  AggregatorV3Interface pricefeed = AggregatorV3Interface(0xb27A31f1b0AF2946B7F582768f03239b1eC07c2c) */\n      swap1\n      pop\n        /* \"contracts/Revise/PriceConversionLib.sol\":381:393  int256 price */\n      0x00\n        /* \"contracts/Revise/PriceConversionLib.sol\":404:413  pricefeed */\n      dup2\n        /* \"contracts/Revise/PriceConversionLib.sol\":404:429  pricefeed.latestRoundData */\n      0xffffffffffffffffffffffffffffffffffffffff\n      and\n      0xfeaf968c\n        /* \"contracts/Revise/PriceConversionLib.sol\":404:431  pricefeed.latestRoundData() */\n      mload(0x40)\n      dup2\n      0xffffffff\n      and\n      0xe0\n      shl\n      dup2\n      mstore\n      0x04\n      add\n      0xa0\n      mload(0x40)\n      dup1\n      dup4\n      sub\n      dup2\n      dup7\n      gas\n      staticcall\n      iszero\n      dup1\n      iszero\n      tag_41\n      jumpi\n      returndatacopy(0x00, 0x00, returndatasize)\n      revert(0x00, returndatasize)\n    tag_41:\n      pop\n      pop\n      pop\n      pop\n      mload(0x40)\n      returndatasize\n      not(0x1f)\n      0x1f\n      dup3\n      add\n      and\n      dup3\n      add\n      dup1\n      0x40\n      mstore\n      pop\n      dup2\n      add\n      swap1\n      tag_42\n      swap2\n      swap1\n      tag_43\n      jump\t// in\n    tag_42:\n        /* \"contracts/Revise/PriceConversionLib.sol\":378:431  ( ,int256 price, , ,  ) = pricefeed.latestRoundData() */\n      pop\n      pop\n      pop\n      swap2\n      pop\n      pop\n        /* \"contracts/Revise/PriceConversionLib.sol\":462:466  1e10 */\n      0x02540be400\n        /* \"contracts/Revise/PriceConversionLib.sol\":456:461  price */\n      dup2\n        /* \"contracts/Revise/PriceConversionLib.sol\":456:466  price*1e10 */\n      tag_44\n      swap2\n      swap1\n      tag_45\n      jump\t// in\n    tag_44:\n        /* \"contracts/Revise/PriceConversionLib.sol\":441:467  return uint256(price*1e10) */\n      swap3\n      pop\n      pop\n      pop\n        /* \"contracts/Revise/PriceConversionLib.sol\":205:474  function getPriceFeed()internal view returns(uint256){... */\n      swap1\n      jump\t// out\n        /* \"#utility.yul\":7:176   */\n    tag_46:\n        /* \"#utility.yul\":91:102   */\n      0x00\n        /* \"#utility.yul\":125:131   */\n      dup3\n        /* \"#utility.yul\":120:123   */\n      dup3\n        /* \"#utility.yul\":113:132   */\n      mstore\n        /* \"#utility.yul\":165:169   */\n      0x20\n        /* \"#utility.yul\":160:163   */\n      dup3\n        /* \"#utility.yul\":156:170   */\n      add\n        /* \"#utility.yul\":141:170   */\n      swap1\n      pop\n        /* \"#utility.yul\":7:176   */\n      swap3\n      swap2\n      pop\n      pop\n      jump\t// out\n        /* \"#utility.yul\":182:353   */\n    tag_47:\n        /* \"#utility.yul\":322:345   */\n      0x596f7520617265206e6f7420746865206f776e65720000000000000000000000\n        /* \"#utility.yul\":318:319   */\n      0x00\n        /* \"#utility.yul\":310:316   */\n      dup3\n        /* \"#utility.yul\":306:320   */\n      add\n        /* \"#utility.yul\":299:346   */\n      mstore\n        /* \"#utility.yul\":182:353   */\n      pop\n      jump\t// out\n        /* \"#utility.yul\":359:725   */\n    tag_48:\n        /* \"#utility.yul\":501:504   */\n      0x00\n        /* \"#utility.yul\":522:589   */\n      tag_82\n        /* \"#utility.yul\":586:588   */\n      0x15\n        /* \"#utility.yul\":581:584   */\n      dup4\n        /* \"#utility.yul\":522:589   */\n      tag_46\n      jump\t// in\n    tag_82:\n        /* \"#utility.yul\":515:589   */\n      swap2\n      pop\n        /* \"#utility.yul\":598:691   */\n      tag_83\n        /* \"#utility.yul\":687:690   */\n      dup3\n        /* \"#utility.yul\":598:691   */\n      tag_47\n      jump\t// in\n    tag_83:\n        /* \"#utility.yul\":716:718   */\n      0x20\n        /* \"#utility.yul\":711:714   */\n      dup3\n        /* \"#utility.yul\":707:719   */\n      add\n        /* \"#utility.yul\":700:719   */\n      swap1\n      pop\n        /* \"#utility.yul\":359:725   */\n      swap2\n      swap1\n      pop\n      jump\t// out\n        /* \"#utility.yul\":731:1150   */\n    tag_12:\n        /* \"#utility.yul\":897:901   */\n      0x00\n        /* \"#utility.yul\":935:937   */\n      0x20\n        /* \"#utility.yul\":924:933   */\n      dup3\n        /* \"#utility.yul\":920:938   */\n      add\n        /* \"#utility.yul\":912:938   */\n      swap1\n      pop\n        /* \"#utility.yul\":984:993   */\n      dup2\n        /* \"#utility.yul\":978:982   */\n      dup2\n        /* \"#utility.yul\":974:994   */\n      sub\n        /* \"#utility.yul\":970:971   */\n      0x00\n        /* \"#utility.yul\":959:968   */\n      dup4\n        /* \"#utility.yul\":955:972   */\n      add\n        /* \"#utility.yul\":948:995   */\n      mstore\n        /* \"#utility.yul\":1012:1143   */\n      tag_85\n        /* \"#utility.yul\":1138:1142   */\n      dup2\n        /* \"#utility.yul\":1012:1143   */\n      tag_48\n      jump\t// in\n    tag_85:\n        /* \"#utility.yul\":1004:1143   */\n      swap1\n      pop\n        /* \"#utility.yul\":731:1150   */\n      swap2\n      swap1\n      pop\n      jump\t// out\n        /* \"#utility.yul\":1156:1303   */\n    tag_49:\n        /* \"#utility.yul\":1257:1268   */\n      0x00\n        /* \"#utility.yul\":1294:1297   */\n      dup2\n        /* \"#utility.yul\":1279:1297   */\n      swap1\n      pop\n        /* \"#utility.yul\":1156:1303   */\n      swap3\n      swap2\n      pop\n      pop\n      jump\t// out\n        /* \"#utility.yul\":1309:1423   */\n    tag_50:\n      pop\n      jump\t// out\n        /* \"#utility.yul\":1429:1827   */\n    tag_51:\n        /* \"#utility.yul\":1588:1591   */\n      0x00\n        /* \"#utility.yul\":1609:1692   */\n      tag_89\n        /* \"#utility.yul\":1690:1691   */\n      0x00\n        /* \"#utility.yul\":1685:1688   */\n      dup4\n        /* \"#utility.yul\":1609:1692   */\n      tag_49\n      jump\t// in\n    tag_89:\n        /* \"#utility.yul\":1602:1692   */\n      swap2\n      pop\n        /* \"#utility.yul\":1701:1794   */\n      tag_90\n        /* \"#utility.yul\":1790:1793   */\n      dup3\n        /* \"#utility.yul\":1701:1794   */\n      tag_50\n      jump\t// in\n    tag_90:\n        /* \"#utility.yul\":1819:1820   */\n      0x00\n        /* \"#utility.yul\":1814:1817   */\n      dup3\n        /* \"#utility.yul\":1810:1821   */\n      add\n        /* \"#utility.yul\":1803:1821   */\n      swap1\n      pop\n        /* \"#utility.yul\":1429:1827   */\n      swap2\n      swap1\n      pop\n      jump\t// out\n        /* \"#utility.yul\":1833:2212   */\n    tag_15:\n        /* \"#utility.yul\":2017:2020   */\n      0x00\n        /* \"#utility.yul\":2039:2186   */\n      tag_92\n        /* \"#utility.yul\":2182:2185   */\n      dup3\n        /* \"#utility.yul\":2039:2186   */\n      tag_51\n      jump\t// in\n    tag_92:\n        /* \"#utility.yul\":2032:2186   */\n      swap2\n      pop\n        /* \"#utility.yul\":2203:2206   */\n      dup2\n        /* \"#utility.yul\":2196:2206   */\n      swap1\n      pop\n        /* \"#utility.yul\":1833:2212   */\n      swap2\n      swap1\n      pop\n      jump\t// out\n        /* \"#utility.yul\":2218:2384   */\n    tag_52:\n        /* \"#utility.yul\":2358:2376   */\n      0x57697468647261776c204661696c656400000000000000000000000000000000\n        /* \"#utility.yul\":2354:2355   */\n      0x00\n        /* \"#utility.yul\":2346:2352   */\n      dup3\n        /* \"#utility.yul\":2342:2356   */\n      add\n        /* \"#utility.yul\":2335:2377   */\n      mstore\n        /* \"#utility.yul\":2218:2384   */\n      pop\n      jump\t// out\n        /* \"#utility.yul\":2390:2756   */\n    tag_53:\n        /* \"#utility.yul\":2532:2535   */\n      0x00\n        /* \"#utility.yul\":2553:2620   */\n      tag_95\n        /* \"#utility.yul\":2617:2619   */\n      0x10\n        /* \"#utility.yul\":2612:2615   */\n      dup4\n        /* \"#utility.yul\":2553:2620   */\n      tag_46\n      jump\t// in\n    tag_95:\n        /* \"#utility.yul\":2546:2620   */\n      swap2\n      pop\n        /* \"#utility.yul\":2629:2722   */\n      tag_96\n        /* \"#utility.yul\":2718:2721   */\n      dup3\n        /* \"#utility.yul\":2629:2722   */\n      tag_52\n      jump\t// in\n    tag_96:\n        /* \"#utility.yul\":2747:2749   */\n      0x20\n        /* \"#utility.yul\":2742:2745   */\n      dup3\n        /* \"#utility.yul\":2738:2750   */\n      add\n        /* \"#utility.yul\":2731:2750   */\n      swap1\n      pop\n        /* \"#utility.yul\":2390:2756   */\n      swap2\n      swap1\n      pop\n      jump\t// out\n        /* \"#utility.yul\":2762:3181   */\n    tag_21:\n        /* \"#utility.yul\":2928:2932   */\n      0x00\n        /* \"#utility.yul\":2966:2968   */\n      0x20\n        /* \"#utility.yul\":2955:2964   */\n      dup3\n        /* \"#utility.yul\":2951:2969   */\n      add\n        /* \"#utility.yul\":2943:2969   */\n      swap1\n      pop\n        /* \"#utility.yul\":3015:3024   */\n      dup2\n        /* \"#utility.yul\":3009:3013   */\n      dup2\n        /* \"#utility.yul\":3005:3025   */\n      sub\n        /* \"#utility.yul\":3001:3002   */\n      0x00\n        /* \"#utility.yul\":2990:2999   */\n      dup4\n        /* \"#utility.yul\":2986:3003   */\n      add\n        /* \"#utility.yul\":2979:3026   */\n      mstore\n        /* \"#utility.yul\":3043:3174   */\n      tag_98\n        /* \"#utility.yul\":3169:3173   */\n      dup2\n        /* \"#utility.yul\":3043:3174   */\n      tag_53\n      jump\t// in\n    tag_98:\n        /* \"#utility.yul\":3035:3174   */\n      swap1\n      pop\n        /* \"#utility.yul\":2762:3181   */\n      swap2\n      swap1\n      pop\n      jump\t// out\n        /* \"#utility.yul\":3187:3313   */\n    tag_54:\n        /* \"#utility.yul\":3224:3231   */\n      0x00\n        /* \"#utility.yul\":3264:3306   */\n      0xffffffffffffffffffffffffffffffffffffffff\n        /* \"#utility.yul\":3257:3262   */\n      dup3\n        /* \"#utility.yul\":3253:3307   */\n      and\n        /* \"#utility.yul\":3242:3307   */\n      swap1\n      pop\n        /* \"#utility.yul\":3187:3313   */\n      swap2\n      swap1\n      pop\n      jump\t// out\n        /* \"#utility.yul\":3319:3415   */\n    tag_55:\n        /* \"#utility.yul\":3356:3363   */\n      0x00\n        /* \"#utility.yul\":3385:3409   */\n      tag_101\n        /* \"#utility.yul\":3403:3408   */\n      dup3\n        /* \"#utility.yul\":3385:3409   */\n      tag_54\n      jump\t// in\n    tag_101:\n        /* \"#utility.yul\":3374:3409   */\n      swap1\n      pop\n        /* \"#utility.yul\":3319:3415   */\n      swap2\n      swap1\n      pop\n      jump\t// out\n        /* \"#utility.yul\":3421:3539   */\n    tag_56:\n        /* \"#utility.yul\":3508:3532   */\n      tag_103\n        /* \"#utility.yul\":3526:3531   */\n      dup2\n        /* \"#utility.yul\":3508:3532   */\n      tag_55\n      jump\t// in\n    tag_103:\n        /* \"#utility.yul\":3503:3506   */\n      dup3\n        /* \"#utility.yul\":3496:3533   */\n      mstore\n        /* \"#utility.yul\":3421:3539   */\n      pop\n      pop\n      jump\t// out\n        /* \"#utility.yul\":3545:3725   */\n    tag_57:\n        /* \"#utility.yul\":3593:3670   */\n      0x4e487b7100000000000000000000000000000000000000000000000000000000\n        /* \"#utility.yul\":3590:3591   */\n      0x00\n        /* \"#utility.yul\":3583:3671   */\n      mstore\n        /* \"#utility.yul\":3690:3694   */\n      0x22\n        /* \"#utility.yul\":3687:3688   */\n      0x04\n        /* \"#utility.yul\":3680:3695   */\n      mstore\n        /* \"#utility.yul\":3714:3718   */\n      0x24\n        /* \"#utility.yul\":3711:3712   */\n      0x00\n        /* \"#utility.yul\":3704:3719   */\n      revert\n        /* \"#utility.yul\":3731:4051   */\n    tag_58:\n        /* \"#utility.yul\":3775:3781   */\n      0x00\n        /* \"#utility.yul\":3812:3813   */\n      0x02\n        /* \"#utility.yul\":3806:3810   */\n      dup3\n        /* \"#utility.yul\":3802:3814   */\n      div\n        /* \"#utility.yul\":3792:3814   */\n      swap1\n      pop\n        /* \"#utility.yul\":3859:3860   */\n      0x01\n        /* \"#utility.yul\":3853:3857   */\n      dup3\n        /* \"#utility.yul\":3849:3861   */\n      and\n        /* \"#utility.yul\":3880:3898   */\n      dup1\n        /* \"#utility.yul\":3870:3951   */\n      tag_106\n      jumpi\n        /* \"#utility.yul\":3936:3940   */\n      0x7f\n        /* \"#utility.yul\":3928:3934   */\n      dup3\n        /* \"#utility.yul\":3924:3941   */\n      and\n        /* \"#utility.yul\":3914:3941   */\n      swap2\n      pop\n        /* \"#utility.yul\":3870:3951   */\n    tag_106:\n        /* \"#utility.yul\":3998:4000   */\n      0x20\n        /* \"#utility.yul\":3990:3996   */\n      dup3\n        /* \"#utility.yul\":3987:4001   */\n      lt\n        /* \"#utility.yul\":3967:3985   */\n      dup2\n        /* \"#utility.yul\":3964:4002   */\n      sub\n        /* \"#utility.yul\":3961:4045   */\n      tag_107\n      jumpi\n        /* \"#utility.yul\":4017:4035   */\n      tag_108\n      tag_57\n      jump\t// in\n    tag_108:\n        /* \"#utility.yul\":3961:4045   */\n    tag_107:\n        /* \"#utility.yul\":3782:4051   */\n      pop\n        /* \"#utility.yul\":3731:4051   */\n      swap2\n      swap1\n      pop\n      jump\t// out\n        /* \"#utility.yul\":4057:4198   */\n    tag_59:\n        /* \"#utility.yul\":4106:4110   */\n      0x00\n        /* \"#utility.yul\":4129:4132   */\n      dup2\n        /* \"#utility.yul\":4121:4132   */\n      swap1\n      pop\n        /* \"#utility.yul\":4152:4155   */\n      dup2\n        /* \"#utility.yul\":4149:4150   */\n      0x00\n        /* \"#utility.yul\":4142:4156   */\n      mstore\n        /* \"#utility.yul\":4186:4190   */\n      0x20\n        /* \"#utility.yul\":4183:4184   */\n      0x00\n        /* \"#utility.yul\":4173:4191   */\n      keccak256\n        /* \"#utility.yul\":4165:4191   */\n      swap1\n      pop\n        /* \"#utility.yul\":4057:4198   */\n      swap2\n      swap1\n      pop\n      jump\t// out\n        /* \"#utility.yul\":4228:5059   */\n    tag_60:\n        /* \"#utility.yul\":4313:4316   */\n      0x00\n        /* \"#utility.yul\":4350:4355   */\n      dup2\n        /* \"#utility.yul\":4344:4356   */\n      sload\n        /* \"#utility.yul\":4379:4415   */\n      tag_111\n        /* \"#utility.yul\":4405:4414   */\n      dup2\n        /* \"#utility.yul\":4379:4415   */\n      tag_58\n      jump\t// in\n    tag_111:\n        /* \"#utility.yul\":4431:4502   */\n      tag_112\n        /* \"#utility.yul\":4495:4501   */\n      dup2\n        /* \"#utility.yul\":4490:4493   */\n      dup7\n        /* \"#utility.yul\":4431:4502   */\n      tag_46\n      jump\t// in\n    tag_112:\n        /* \"#utility.yul\":4424:4502   */\n      swap5\n      pop\n        /* \"#utility.yul\":4533:4534   */\n      0x01\n        /* \"#utility.yul\":4522:4531   */\n      dup3\n        /* \"#utility.yul\":4518:4535   */\n      and\n        /* \"#utility.yul\":4549:4550   */\n      0x00\n        /* \"#utility.yul\":4544:4708   */\n      dup2\n      eq\n      tag_114\n      jumpi\n        /* \"#utility.yul\":4722:4723   */\n      0x01\n        /* \"#utility.yul\":4717:5053   */\n      dup2\n      eq\n      tag_115\n      jumpi\n        /* \"#utility.yul\":4511:5053   */\n      jump(tag_113)\n        /* \"#utility.yul\":4544:4708   */\n    tag_114:\n        /* \"#utility.yul\":4628:4632   */\n      0xff\n        /* \"#utility.yul\":4624:4633   */\n      not\n        /* \"#utility.yul\":4613:4622   */\n      dup4\n        /* \"#utility.yul\":4609:4634   */\n      and\n        /* \"#utility.yul\":4604:4607   */\n      dup7\n        /* \"#utility.yul\":4597:4635   */\n      mstore\n        /* \"#utility.yul\":4688:4694   */\n      dup2\n        /* \"#utility.yul\":4681:4695   */\n      iszero\n        /* \"#utility.yul\":4674:4696   */\n      iszero\n        /* \"#utility.yul\":4668:4672   */\n      0x20\n        /* \"#utility.yul\":4664:4697   */\n      mul\n        /* \"#utility.yul\":4659:4662   */\n      dup7\n        /* \"#utility.yul\":4655:4698   */\n      add\n        /* \"#utility.yul\":4648:4698   */\n      swap4\n      pop\n        /* \"#utility.yul\":4544:4708   */\n      jump(tag_113)\n        /* \"#utility.yul\":4717:5053   */\n    tag_115:\n        /* \"#utility.yul\":4784:4822   */\n      tag_116\n        /* \"#utility.yul\":4816:4821   */\n      dup6\n        /* \"#utility.yul\":4784:4822   */\n      tag_59\n      jump\t// in\n    tag_116:\n        /* \"#utility.yul\":4844:4845   */\n      0x00\n        /* \"#utility.yul\":4858:5012   */\n    tag_117:\n        /* \"#utility.yul\":4872:4878   */\n      dup4\n        /* \"#utility.yul\":4869:4870   */\n      dup2\n        /* \"#utility.yul\":4866:4879   */\n      lt\n        /* \"#utility.yul\":4858:5012   */\n      iszero\n      tag_119\n      jumpi\n        /* \"#utility.yul\":4946:4953   */\n      dup2\n        /* \"#utility.yul\":4940:4954   */\n      sload\n        /* \"#utility.yul\":4936:4937   */\n      dup2\n        /* \"#utility.yul\":4931:4934   */\n      dup10\n        /* \"#utility.yul\":4927:4938   */\n      add\n        /* \"#utility.yul\":4920:4955   */\n      mstore\n        /* \"#utility.yul\":4996:4997   */\n      0x01\n        /* \"#utility.yul\":4987:4994   */\n      dup3\n        /* \"#utility.yul\":4983:4998   */\n      add\n        /* \"#utility.yul\":4972:4998   */\n      swap2\n      pop\n        /* \"#utility.yul\":4894:4898   */\n      0x20\n        /* \"#utility.yul\":4891:4892   */\n      dup2\n        /* \"#utility.yul\":4887:4899   */\n      add\n        /* \"#utility.yul\":4882:4899   */\n      swap1\n      pop\n        /* \"#utility.yul\":4858:5012   */\n      jump(tag_117)\n    tag_119:\n        /* \"#utility.yul\":5041:5042   */\n      dup1\n        /* \"#utility.yul\":5036:5039   */\n      dup9\n        /* \"#utility.yul\":5032:5043   */\n      add\n        /* \"#utility.yul\":5025:5043   */\n      swap6\n      pop\n        /* \"#utility.yul\":4724:5053   */\n      pop\n      pop\n        /* \"#utility.yul\":4511:5053   */\n    tag_113:\n      pop\n        /* \"#utility.yul\":4317:5059   */\n      pop\n      pop\n        /* \"#utility.yul\":4228:5059   */\n      swap3\n      swap2\n      pop\n      pop\n      jump\t// out\n        /* \"#utility.yul\":5065:5142   */\n    tag_61:\n        /* \"#utility.yul\":5102:5109   */\n      0x00\n        /* \"#utility.yul\":5131:5136   */\n      dup2\n        /* \"#utility.yul\":5120:5136   */\n      swap1\n      pop\n        /* \"#utility.yul\":5065:5142   */\n      swap2\n      swap1\n      pop\n      jump\t// out\n        /* \"#utility.yul\":5148:5266   */\n    tag_62:\n        /* \"#utility.yul\":5235:5259   */\n      tag_122\n        /* \"#utility.yul\":5253:5258   */\n      dup2\n        /* \"#utility.yul\":5235:5259   */\n      tag_61\n      jump\t// in\n    tag_122:\n        /* \"#utility.yul\":5230:5233   */\n      dup3\n        /* \"#utility.yul\":5223:5260   */\n      mstore\n        /* \"#utility.yul\":5148:5266   */\n      pop\n      pop\n      jump\t// out\n        /* \"#utility.yul\":5272:5910   */\n    tag_23:\n        /* \"#utility.yul\":5466:5470   */\n      0x00\n        /* \"#utility.yul\":5504:5507   */\n      0x80\n        /* \"#utility.yul\":5493:5502   */\n      dup3\n        /* \"#utility.yul\":5489:5508   */\n      add\n        /* \"#utility.yul\":5481:5508   */\n      swap1\n      pop\n        /* \"#utility.yul\":5518:5589   */\n      tag_124\n        /* \"#utility.yul\":5586:5587   */\n      0x00\n        /* \"#utility.yul\":5575:5584   */\n      dup4\n        /* \"#utility.yul\":5571:5588   */\n      add\n        /* \"#utility.yul\":5562:5568   */\n      dup8\n        /* \"#utility.yul\":5518:5589   */\n      tag_56\n      jump\t// in\n    tag_124:\n        /* \"#utility.yul\":5599:5671   */\n      tag_125\n        /* \"#utility.yul\":5667:5669   */\n      0x20\n        /* \"#utility.yul\":5656:5665   */\n      dup4\n        /* \"#utility.yul\":5652:5670   */\n      add\n        /* \"#utility.yul\":5643:5649   */\n      dup7\n        /* \"#utility.yul\":5599:5671   */\n      tag_56\n      jump\t// in\n    tag_125:\n        /* \"#utility.yul\":5718:5727   */\n      dup2\n        /* \"#utility.yul\":5712:5716   */\n      dup2\n        /* \"#utility.yul\":5708:5728   */\n      sub\n        /* \"#utility.yul\":5703:5705   */\n      0x40\n        /* \"#utility.yul\":5692:5701   */\n      dup4\n        /* \"#utility.yul\":5688:5706   */\n      add\n        /* \"#utility.yul\":5681:5729   */\n      mstore\n        /* \"#utility.yul\":5746:5821   */\n      tag_126\n        /* \"#utility.yul\":5816:5820   */\n      dup2\n        /* \"#utility.yul\":5807:5813   */\n      dup6\n        /* \"#utility.yul\":5746:5821   */\n      tag_60\n      jump\t// in\n    tag_126:\n        /* \"#utility.yul\":5738:5821   */\n      swap1\n      pop\n        /* \"#utility.yul\":5831:5903   */\n      tag_127\n        /* \"#utility.yul\":5899:5901   */\n      0x60\n        /* \"#utility.yul\":5888:5897   */\n      dup4\n        /* \"#utility.yul\":5884:5902   */\n      add\n        /* \"#utility.yul\":5875:5881   */\n      dup5\n        /* \"#utility.yul\":5831:5903   */\n      tag_62\n      jump\t// in\n    tag_127:\n        /* \"#utility.yul\":5272:5910   */\n      swap6\n      swap5\n      pop\n      pop\n      pop\n      pop\n      pop\n      jump\t// out\n        /* \"#utility.yul\":5916:6094   */\n    tag_63:\n        /* \"#utility.yul\":6056:6086   */\n      0x53656e642041746c6561737420243520776f727468206f662045544800000000\n        /* \"#utility.yul\":6052:6053   */\n      0x00\n        /* \"#utility.yul\":6044:6050   */\n      dup3\n        /* \"#utility.yul\":6040:6054   */\n      add\n        /* \"#utility.yul\":6033:6087   */\n      mstore\n        /* \"#utility.yul\":5916:6094   */\n      pop\n      jump\t// out\n        /* \"#utility.yul\":6100:6466   */\n    tag_64:\n        /* \"#utility.yul\":6242:6245   */\n      0x00\n        /* \"#utility.yul\":6263:6330   */\n      tag_130\n        /* \"#utility.yul\":6327:6329   */\n      0x1c\n        /* \"#utility.yul\":6322:6325   */\n      dup4\n        /* \"#utility.yul\":6263:6330   */\n      tag_46\n      jump\t// in\n    tag_130:\n        /* \"#utility.yul\":6256:6330   */\n      swap2\n      pop\n        /* \"#utility.yul\":6339:6432   */\n      tag_131\n        /* \"#utility.yul\":6428:6431   */\n      dup3\n        /* \"#utility.yul\":6339:6432   */\n      tag_63\n      jump\t// in\n    tag_131:\n        /* \"#utility.yul\":6457:6459   */\n      0x20\n        /* \"#utility.yul\":6452:6455   */\n      dup3\n        /* \"#utility.yul\":6448:6460   */\n      add\n        /* \"#utility.yul\":6441:6460   */\n      swap1\n      pop\n        /* \"#utility.yul\":6100:6466   */\n      swap2\n      swap1\n      pop\n      jump\t// out\n        /* \"#utility.yul\":6472:6891   */\n    tag_29:\n        /* \"#utility.yul\":6638:6642   */\n      0x00\n        /* \"#utility.yul\":6676:6678   */\n      0x20\n        /* \"#utility.yul\":6665:6674   */\n      dup3\n        /* \"#utility.yul\":6661:6679   */\n      add\n        /* \"#utility.yul\":6653:6679   */\n      swap1\n      pop\n        /* \"#utility.yul\":6725:6734   */\n      dup2\n        /* \"#utility.yul\":6719:6723   */\n      dup2\n        /* \"#utility.yul\":6715:6735   */\n      sub\n        /* \"#utility.yul\":6711:6712   */\n      0x00\n        /* \"#utility.yul\":6700:6709   */\n      dup4\n        /* \"#utility.yul\":6696:6713   */\n      add\n        /* \"#utility.yul\":6689:6736   */\n      mstore\n        /* \"#utility.yul\":6753:6884   */\n      tag_133\n        /* \"#utility.yul\":6879:6883   */\n      dup2\n        /* \"#utility.yul\":6753:6884   */\n      tag_64\n      jump\t// in\n    tag_133:\n        /* \"#utility.yul\":6745:6884   */\n      swap1\n      pop\n        /* \"#utility.yul\":6472:6891   */\n      swap2\n      swap1\n      pop\n      jump\t// out\n        /* \"#utility.yul\":6897:7077   */\n    tag_65:\n        /* \"#utility.yul\":6945:7022   */\n      0x4e487b7100000000000000000000000000000000000000000000000000000000\n        /* \"#utility.yul\":6942:6943   */\n      0x00\n        /* \"#utility.yul\":6935:7023   */\n      mstore\n        /* \"#utility.yul\":7042:7046   */\n      0x11\n        /* \"#utility.yul\":7039:7040   */\n      0x04\n        /* \"#utility.yul\":7032:7047   */\n      mstore\n        /* \"#utility.yul\":7066:7070   */\n      0x24\n        /* \"#utility.yul\":7063:7064   */\n      0x00\n        /* \"#utility.yul\":7056:7071   */\n      revert\n        /* \"#utility.yul\":7083:7274   */\n    tag_31:\n        /* \"#utility.yul\":7123:7126   */\n      0x00\n        /* \"#utility.yul\":7142:7162   */\n      tag_136\n        /* \"#utility.yul\":7160:7161   */\n      dup3\n        /* \"#utility.yul\":7142:7162   */\n      tag_61\n      jump\t// in\n    tag_136:\n        /* \"#utility.yul\":7137:7162   */\n      swap2\n      pop\n        /* \"#utility.yul\":7176:7196   */\n      tag_137\n        /* \"#utility.yul\":7194:7195   */\n      dup4\n        /* \"#utility.yul\":7176:7196   */\n      tag_61\n      jump\t// in\n    tag_137:\n        /* \"#utility.yul\":7171:7196   */\n      swap3\n      pop\n        /* \"#utility.yul\":7219:7220   */\n      dup3\n        /* \"#utility.yul\":7216:7217   */\n      dup3\n        /* \"#utility.yul\":7212:7221   */\n      add\n        /* \"#utility.yul\":7205:7221   */\n      swap1\n      pop\n        /* \"#utility.yul\":7240:7243   */\n      dup1\n        /* \"#utility.yul\":7237:7238   */\n      dup3\n        /* \"#utility.yul\":7234:7244   */\n      gt\n        /* \"#utility.yul\":7231:7267   */\n      iszero\n      tag_138\n      jumpi\n        /* \"#utility.yul\":7247:7265   */\n      tag_139\n      tag_65\n      jump\t// in\n    tag_139:\n        /* \"#utility.yul\":7231:7267   */\n    tag_138:\n        /* \"#utility.yul\":7083:7274   */\n      swap3\n      swap2\n      pop\n      pop\n      jump\t// out\n        /* \"#utility.yul\":7280:7690   */\n    tag_36:\n        /* \"#utility.yul\":7320:7327   */\n      0x00\n        /* \"#utility.yul\":7343:7363   */\n      tag_141\n        /* \"#utility.yul\":7361:7362   */\n      dup3\n        /* \"#utility.yul\":7343:7363   */\n      tag_61\n      jump\t// in\n    tag_141:\n        /* \"#utility.yul\":7338:7363   */\n      swap2\n      pop\n        /* \"#utility.yul\":7377:7397   */\n      tag_142\n        /* \"#utility.yul\":7395:7396   */\n      dup4\n        /* \"#utility.yul\":7377:7397   */\n      tag_61\n      jump\t// in\n    tag_142:\n        /* \"#utility.yul\":7372:7397   */\n      swap3\n      pop\n        /* \"#utility.yul\":7432:7433   */\n      dup3\n        /* \"#utility.yul\":7429:7430   */\n      dup3\n        /* \"#utility.yul\":7425:7434   */\n      mul\n        /* \"#utility.yul\":7454:7484   */\n      tag_143\n        /* \"#utility.yul\":7472:7483   */\n      dup2\n        /* \"#utility.yul\":7454:7484   */\n      tag_61\n      jump\t// in\n    tag_143:\n        /* \"#utility.yul\":7443:7484   */\n      swap2\n      pop\n        /* \"#utility.yul\":7633:7634   */\n      dup3\n        /* \"#utility.yul\":7624:7631   */\n      dup3\n        /* \"#utility.yul\":7620:7635   */\n      div\n        /* \"#utility.yul\":7617:7618   */\n      dup5\n        /* \"#utility.yul\":7614:7636   */\n      eq\n        /* \"#utility.yul\":7594:7595   */\n      dup4\n        /* \"#utility.yul\":7587:7596   */\n      iszero\n        /* \"#utility.yul\":7567:7650   */\n      or\n        /* \"#utility.yul\":7544:7683   */\n      tag_144\n      jumpi\n        /* \"#utility.yul\":7663:7681   */\n      tag_145\n      tag_65\n      jump\t// in\n    tag_145:\n        /* \"#utility.yul\":7544:7683   */\n    tag_144:\n        /* \"#utility.yul\":7328:7690   */\n      pop\n        /* \"#utility.yul\":7280:7690   */\n      swap3\n      swap2\n      pop\n      pop\n      jump\t// out\n        /* \"#utility.yul\":7696:7876   */\n    tag_66:\n        /* \"#utility.yul\":7744:7821   */\n      0x4e487b7100000000000000000000000000000000000000000000000000000000\n        /* \"#utility.yul\":7741:7742   */\n      0x00\n        /* \"#utility.yul\":7734:7822   */\n      mstore\n        /* \"#utility.yul\":7841:7845   */\n      0x12\n        /* \"#utility.yul\":7838:7839   */\n      0x04\n        /* \"#utility.yul\":7831:7846   */\n      mstore\n        /* \"#utility.yul\":7865:7869   */\n      0x24\n        /* \"#utility.yul\":7862:7863   */\n      0x00\n        /* \"#utility.yul\":7855:7870   */\n      revert\n        /* \"#utility.yul\":7882:8067   */\n    tag_38:\n        /* \"#utility.yul\":7922:7923   */\n      0x00\n        /* \"#utility.yul\":7939:7959   */\n      tag_148\n        /* \"#utility.yul\":7957:7958   */\n      dup3\n        /* \"#utility.yul\":7939:7959   */\n      tag_61\n      jump\t// in\n    tag_148:\n        /* \"#utility.yul\":7934:7959   */\n      swap2\n      pop\n        /* \"#utility.yul\":7973:7993   */\n      tag_149\n        /* \"#utility.yul\":7991:7992   */\n      dup4\n        /* \"#utility.yul\":7973:7993   */\n      tag_61\n      jump\t// in\n    tag_149:\n        /* \"#utility.yul\":7968:7993   */\n      swap3\n      pop\n        /* \"#utility.yul\":8012:8013   */\n      dup3\n        /* \"#utility.yul\":8002:8037   */\n      tag_150\n      jumpi\n        /* \"#utility.yul\":8017:8035   */\n      tag_151\n      tag_66\n      jump\t// in\n    tag_151:\n        /* \"#utility.yul\":8002:8037   */\n    tag_150:\n        /* \"#utility.yul\":8059:8060   */\n      dup3\n        /* \"#utility.yul\":8056:8057   */\n      dup3\n        /* \"#utility.yul\":8052:8061   */\n      div\n        /* \"#utility.yul\":8047:8061   */\n      swap1\n      pop\n        /* \"#utility.yul\":7882:8067   */\n      swap3\n      swap2\n      pop\n      pop\n      jump\t// out\n        /* \"#utility.yul\":8154:8271   */\n    tag_68:\n        /* \"#utility.yul\":8263:8264   */\n      0x00\n        /* \"#utility.yul\":8260:8261   */\n      0x00\n        /* \"#utility.yul\":8253:8265   */\n      revert\n        /* \"#utility.yul\":8400:8505   */\n    tag_70:\n        /* \"#utility.yul\":8436:8443   */\n      0x00\n        /* \"#utility.yul\":8476:8498   */\n      0xffffffffffffffffffff\n        /* \"#utility.yul\":8469:8474   */\n      dup3\n        /* \"#utility.yul\":8465:8499   */\n      and\n        /* \"#utility.yul\":8454:8499   */\n      swap1\n      pop\n        /* \"#utility.yul\":8400:8505   */\n      swap2\n      swap1\n      pop\n      jump\t// out\n        /* \"#utility.yul\":8511:8631   */\n    tag_71:\n        /* \"#utility.yul\":8583:8606   */\n      tag_157\n        /* \"#utility.yul\":8600:8605   */\n      dup2\n        /* \"#utility.yul\":8583:8606   */\n      tag_70\n      jump\t// in\n    tag_157:\n        /* \"#utility.yul\":8576:8581   */\n      dup2\n        /* \"#utility.yul\":8573:8607   */\n      eq\n        /* \"#utility.yul\":8563:8625   */\n      tag_158\n      jumpi\n        /* \"#utility.yul\":8621:8622   */\n      0x00\n        /* \"#utility.yul\":8618:8619   */\n      0x00\n        /* \"#utility.yul\":8611:8623   */\n      revert\n        /* \"#utility.yul\":8563:8625   */\n    tag_158:\n        /* \"#utility.yul\":8511:8631   */\n      pop\n      jump\t// out\n        /* \"#utility.yul\":8637:8778   */\n    tag_72:\n        /* \"#utility.yul\":8693:8698   */\n      0x00\n        /* \"#utility.yul\":8724:8730   */\n      dup2\n        /* \"#utility.yul\":8718:8731   */\n      mload\n        /* \"#utility.yul\":8709:8731   */\n      swap1\n      pop\n        /* \"#utility.yul\":8740:8772   */\n      tag_160\n        /* \"#utility.yul\":8766:8771   */\n      dup2\n        /* \"#utility.yul\":8740:8772   */\n      tag_71\n      jump\t// in\n    tag_160:\n        /* \"#utility.yul\":8637:8778   */\n      swap3\n      swap2\n      pop\n      pop\n      jump\t// out\n        /* \"#utility.yul\":8784:8860   */\n    tag_73:\n        /* \"#utility.yul\":8820:8827   */\n      0x00\n        /* \"#utility.yul\":8849:8854   */\n      dup2\n        /* \"#utility.yul\":8838:8854   */\n      swap1\n      pop\n        /* \"#utility.yul\":8784:8860   */\n      swap2\n      swap1\n      pop\n      jump\t// out\n        /* \"#utility.yul\":8866:8986   */\n    tag_74:\n        /* \"#utility.yul\":8938:8961   */\n      tag_163\n        /* \"#utility.yul\":8955:8960   */\n      dup2\n        /* \"#utility.yul\":8938:8961   */\n      tag_73\n      jump\t// in\n    tag_163:\n        /* \"#utility.yul\":8931:8936   */\n      dup2\n        /* \"#utility.yul\":8928:8962   */\n      eq\n        /* \"#utility.yul\":8918:8980   */\n      tag_164\n      jumpi\n        /* \"#utility.yul\":8976:8977   */\n      0x00\n        /* \"#utility.yul\":8973:8974   */\n      0x00\n        /* \"#utility.yul\":8966:8978   */\n      revert\n        /* \"#utility.yul\":8918:8980   */\n    tag_164:\n        /* \"#utility.yul\":8866:8986   */\n      pop\n      jump\t// out\n        /* \"#utility.yul\":8992:9133   */\n    tag_75:\n        /* \"#utility.yul\":9048:9053   */\n      0x00\n        /* \"#utility.yul\":9079:9085   */\n      dup2\n        /* \"#utility.yul\":9073:9086   */\n      mload\n        /* \"#utility.yul\":9064:9086   */\n      swap1\n      pop\n        /* \"#utility.yul\":9095:9127   */\n      tag_166\n        /* \"#utility.yul\":9121:9126   */\n      dup2\n        /* \"#utility.yul\":9095:9127   */\n      tag_74\n      jump\t// in\n    tag_166:\n        /* \"#utility.yul\":8992:9133   */\n      swap3\n      swap2\n      pop\n      pop\n      jump\t// out\n        /* \"#utility.yul\":9139:9261   */\n    tag_76:\n        /* \"#utility.yul\":9212:9236   */\n      tag_168\n        /* \"#utility.yul\":9230:9235   */\n      dup2\n        /* \"#utility.yul\":9212:9236   */\n      tag_61\n      jump\t// in\n    tag_168:\n        /* \"#utility.yul\":9205:9210   */\n      dup2\n        /* \"#utility.yul\":9202:9237   */\n      eq\n        /* \"#utility.yul\":9192:9255   */\n      tag_169\n      jumpi\n        /* \"#utility.yul\":9251:9252   */\n      0x00\n        /* \"#utility.yul\":9248:9249   */\n      0x00\n        /* \"#utility.yul\":9241:9253   */\n      revert\n        /* \"#utility.yul\":9192:9255   */\n    tag_169:\n        /* \"#utility.yul\":9139:9261   */\n      pop\n      jump\t// out\n        /* \"#utility.yul\":9267:9410   */\n    tag_77:\n        /* \"#utility.yul\":9324:9329   */\n      0x00\n        /* \"#utility.yul\":9355:9361   */\n      dup2\n        /* \"#utility.yul\":9349:9362   */\n      mload\n        /* \"#utility.yul\":9340:9362   */\n      swap1\n      pop\n        /* \"#utility.yul\":9371:9404   */\n      tag_171\n        /* \"#utility.yul\":9398:9403   */\n      dup2\n        /* \"#utility.yul\":9371:9404   */\n      tag_76\n      jump\t// in\n    tag_171:\n        /* \"#utility.yul\":9267:9410   */\n      swap3\n      swap2\n      pop\n      pop\n      jump\t// out\n        /* \"#utility.yul\":9416:10387   */\n    tag_43:\n        /* \"#utility.yul\":9519:9525   */\n      0x00\n        /* \"#utility.yul\":9527:9533   */\n      0x00\n        /* \"#utility.yul\":9535:9541   */\n      0x00\n        /* \"#utility.yul\":9543:9549   */\n      0x00\n        /* \"#utility.yul\":9551:9557   */\n      0x00\n        /* \"#utility.yul\":9600:9603   */\n      0xa0\n        /* \"#utility.yul\":9588:9597   */\n      dup7\n        /* \"#utility.yul\":9579:9586   */\n      dup9\n        /* \"#utility.yul\":9575:9598   */\n      sub\n        /* \"#utility.yul\":9571:9604   */\n      slt\n        /* \"#utility.yul\":9568:9688   */\n      iszero\n      tag_173\n      jumpi\n        /* \"#utility.yul\":9607:9686   */\n      tag_174\n      tag_68\n      jump\t// in\n    tag_174:\n        /* \"#utility.yul\":9568:9688   */\n    tag_173:\n        /* \"#utility.yul\":9727:9728   */\n      0x00\n        /* \"#utility.yul\":9752:9815   */\n      tag_175\n        /* \"#utility.yul\":9807:9814   */\n      dup9\n        /* \"#utility.yul\":9798:9804   */\n      dup3\n        /* \"#utility.yul\":9787:9796   */\n      dup10\n        /* \"#utility.yul\":9783:9805   */\n      add\n        /* \"#utility.yul\":9752:9815   */\n      tag_72\n      jump\t// in\n    tag_175:\n        /* \"#utility.yul\":9742:9815   */\n      swap6\n      pop\n        /* \"#utility.yul\":9698:9825   */\n      pop\n        /* \"#utility.yul\":9864:9866   */\n      0x20\n        /* \"#utility.yul\":9890:9953   */\n      tag_176\n        /* \"#utility.yul\":9945:9952   */\n      dup9\n        /* \"#utility.yul\":9936:9942   */\n      dup3\n        /* \"#utility.yul\":9925:9934   */\n      dup10\n        /* \"#utility.yul\":9921:9943   */\n      add\n        /* \"#utility.yul\":9890:9953   */\n      tag_75\n      jump\t// in\n    tag_176:\n        /* \"#utility.yul\":9880:9953   */\n      swap5\n      pop\n        /* \"#utility.yul\":9835:9963   */\n      pop\n        /* \"#utility.yul\":10002:10004   */\n      0x40\n        /* \"#utility.yul\":10028:10092   */\n      tag_177\n        /* \"#utility.yul\":10084:10091   */\n      dup9\n        /* \"#utility.yul\":10075:10081   */\n      dup3\n        /* \"#utility.yul\":10064:10073   */\n      dup10\n        /* \"#utility.yul\":10060:10082   */\n      add\n        /* \"#utility.yul\":10028:10092   */\n      tag_77\n      jump\t// in\n    tag_177:\n        /* \"#utility.yul\":10018:10092   */\n      swap4\n      pop\n        /* \"#utility.yul\":9973:10102   */\n      pop\n        /* \"#utility.yul\":10141:10143   */\n      0x60\n        /* \"#utility.yul\":10167:10231   */\n      tag_178\n        /* \"#utility.yul\":10223:10230   */\n      dup9\n        /* \"#utility.yul\":10214:10220   */\n      dup3\n        /* \"#utility.yul\":10203:10212   */\n      dup10\n        /* \"#utility.yul\":10199:10221   */\n      add\n        /* \"#utility.yul\":10167:10231   */\n      tag_77\n      jump\t// in\n    tag_178:\n        /* \"#utility.yul\":10157:10231   */\n      swap3\n      pop\n        /* \"#utility.yul\":10112:10241   */\n      pop\n        /* \"#utility.yul\":10280:10283   */\n      0x80\n        /* \"#utility.yul\":10307:10370   */\n      tag_179\n        /* \"#utility.yul\":10362:10369   */\n      dup9\n        /* \"#utility.yul\":10353:10359   */\n      dup3\n        /* \"#utility.yul\":10342:10351   */\n      dup10\n        /* \"#utility.yul\":10338:10360   */\n      add\n        /* \"#utility.yul\":10307:10370   */\n      tag_72\n      jump\t// in\n    tag_179:\n        /* \"#utility.yul\":10297:10370   */\n      swap2\n      pop\n        /* \"#utility.yul\":10251:10380   */\n      pop\n        /* \"#utility.yul\":9416:10387   */\n      swap3\n      swap6\n      pop\n      swap3\n      swap6\n      swap1\n      swap4\n      pop\n      jump\t// out\n        /* \"#utility.yul\":10393:10949   */\n    tag_45:\n        /* \"#utility.yul\":10432:10439   */\n      0x00\n        /* \"#utility.yul\":10455:10474   */\n      tag_181\n        /* \"#utility.yul\":10472:10473   */\n      dup3\n        /* \"#utility.yul\":10455:10474   */\n      tag_73\n      jump\t// in\n    tag_181:\n        /* \"#utility.yul\":10450:10474   */\n      swap2\n      pop\n        /* \"#utility.yul\":10488:10507   */\n      tag_182\n        /* \"#utility.yul\":10505:10506   */\n      dup4\n        /* \"#utility.yul\":10488:10507   */\n      tag_73\n      jump\t// in\n    tag_182:\n        /* \"#utility.yul\":10483:10507   */\n      swap3\n      pop\n        /* \"#utility.yul\":10542:10543   */\n      dup3\n        /* \"#utility.yul\":10539:10540   */\n      dup3\n        /* \"#utility.yul\":10535:10544   */\n      mul\n        /* \"#utility.yul\":10564:10593   */\n      tag_183\n        /* \"#utility.yul\":10581:10592   */\n      dup2\n        /* \"#utility.yul\":10564:10593   */\n      tag_73\n      jump\t// in\n    tag_183:\n        /* \"#utility.yul\":10553:10593   */\n      swap2\n      pop\n        /* \"#utility.yul\":10651:10717   */\n      0x8000000000000000000000000000000000000000000000000000000000000000\n        /* \"#utility.yul\":10648:10649   */\n      dup5\n        /* \"#utility.yul\":10645:10718   */\n      eq\n        /* \"#utility.yul\":10641:10642   */\n      0x00\n        /* \"#utility.yul\":10638:10639   */\n      dup5\n        /* \"#utility.yul\":10634:10643   */\n      slt\n        /* \"#utility.yul\":10630:10719   */\n      and\n        /* \"#utility.yul\":10627:10742   */\n      iszero\n      tag_184\n      jumpi\n        /* \"#utility.yul\":10722:10740   */\n      tag_185\n      tag_65\n      jump\t// in\n    tag_185:\n        /* \"#utility.yul\":10627:10742   */\n    tag_184:\n        /* \"#utility.yul\":10892:10893   */\n      dup3\n        /* \"#utility.yul\":10883:10890   */\n      dup3\n        /* \"#utility.yul\":10878:10894   */\n      sdiv\n        /* \"#utility.yul\":10875:10876   */\n      dup5\n        /* \"#utility.yul\":10872:10895   */\n      eq\n        /* \"#utility.yul\":10852:10853   */\n      dup4\n        /* \"#utility.yul\":10845:10854   */\n      iszero\n        /* \"#utility.yul\":10825:10909   */\n      or\n        /* \"#utility.yul\":10802:10942   */\n      tag_186\n      jumpi\n        /* \"#utility.yul\":10922:10940   */\n      tag_187\n      tag_65\n      jump\t// in\n    tag_187:\n        /* \"#utility.yul\":10802:10942   */\n    tag_186:\n        /* \"#utility.yul\":10440:10949   */\n      pop\n        /* \"#utility.yul\":10393:10949   */\n      swap3\n      swap2\n      pop\n      pop\n      jump\t// out\n\n    auxdata: 0xa26469706673582212208e039969c776da3aa6b7d18f676d9c12cb7c0771132e9512f451e4b89882859c64736f6c634300081f0033\n}\n",
				"bytecode": {
					"linkReferences": {},
					"object": "60a06040526040518060400160405280601781526020017f5472616e73616374696f6e207375636365737366756c6c0000000000000000008152506001908161004891906102de565b5073dd870fa1b7c4700f2bd7f44238821c26f739214873ffffffffffffffffffffffffffffffffffffffff1660809073ffffffffffffffffffffffffffffffffffffffff1681525034801561009b575f5ffd5b506103ad565b5f81519050919050565b7f4e487b71000000000000000000000000000000000000000000000000000000005f52604160045260245ffd5b7f4e487b71000000000000000000000000000000000000000000000000000000005f52602260045260245ffd5b5f600282049050600182168061011c57607f821691505b60208210810361012f5761012e6100d8565b5b50919050565b5f819050815f5260205f209050919050565b5f6020601f8301049050919050565b5f82821b905092915050565b5f600883026101917fffffffffffffffffffffffffffffffffffffffffffffffffffffffffffffffff82610156565b61019b8683610156565b95508019841693508086168417925050509392505050565b5f819050919050565b5f819050919050565b5f6101df6101da6101d5846101b3565b6101bc565b6101b3565b9050919050565b5f819050919050565b6101f8836101c5565b61020c610204826101e6565b848454610162565b825550505050565b5f5f905090565b610223610214565b61022e8184846101ef565b505050565b5b81811015610251576102465f8261021b565b600181019050610234565b5050565b601f8211156102965761026781610135565b61027084610147565b8101602085101561027f578190505b61029361028b85610147565b830182610233565b50505b505050565b5f82821c905092915050565b5f6102b65f198460080261029b565b1980831691505092915050565b5f6102ce83836102a7565b9150826002028217905092915050565b6102e7826100a1565b67ffffffffffffffff811115610300576102ff6100ab565b5b61030a8254610105565b610315828285610255565b5f60209050601f831160018114610346575f8415610334578287015190505b61033e85826102c3565b8655506103a5565b601f19841661035486610135565b5f5b8281101561037b57848901518255600182019150602085019450602081019050610356565b868310156103985784890151610394601f8916826102a7565b8355505b6001600288020188555050505b505050505050565b6080516109996103d85f395f8181604e0152818160dd015281816101c601526101e901526109995ff3fe608060405260043610610028575f3560e01c80633ccfd60b1461002c578063b60d428814610042575b5f5ffd5b348015610037575f5ffd5b5061004061004c565b005b61004a61023a565b005b7f000000000000000000000000000000000000000000000000000000000000000073ffffffffffffffffffffffffffffffffffffffff163373ffffffffffffffffffffffffffffffffffffffff16146100da576040517f08c379a00000000000000000000000000000000000000000000000000000000081526004016100d190610418565b60405180910390fd5b5f7f000000000000000000000000000000000000000000000000000000000000000073ffffffffffffffffffffffffffffffffffffffff164760405161011f90610463565b5f6040518083038185875af1925050503d805f8114610159576040519150601f19603f3d011682016040523d82523d5f602084013e61015e565b606091505b50509050806101a2576040517f08c379a0000000000000000000000000000000000000000000000000000000008152600401610199906104c1565b60405180910390fd5b7f36995bccb71a1493533d2d10095138771086d22d95572020b644dbd86437a02e337f000000000000000000000000000000000000000000000000000000000000000060017f000000000000000000000000000000000000000000000000000000000000000073ffffffffffffffffffffffffffffffffffffffff163160405161022f9493929190610626565b60405180910390a150565b674563918244f4000061024c346102e1565b101561028d576040517f08c379a0000000000000000000000000000000000000000000000000000000008152600401610284906106ba565b60405180910390fd5b345f5f3373ffffffffffffffffffffffffffffffffffffffff1673ffffffffffffffffffffffffffffffffffffffff1681526020019081526020015f205f8282546102d89190610705565b92505081905550565b5f5f6102eb610319565b90505f670de0b6b3a764000082856103039190610738565b61030d91906107a6565b90508092505050919050565b5f5f73b27a31f1b0af2946b7f582768f03239b1ec07c2c90505f8173ffffffffffffffffffffffffffffffffffffffff1663feaf968c6040518163ffffffff1660e01b815260040160a060405180830381865afa15801561037c573d5f5f3e3d5ffd5b505050506040513d601f19601f820116820180604052508101906103a09190610876565b5050509150506402540be400816103b791906108ed565b9250505090565b5f82825260208201905092915050565b7f596f7520617265206e6f7420746865206f776e657200000000000000000000005f82015250565b5f6104026015836103be565b915061040d826103ce565b602082019050919050565b5f6020820190508181035f83015261042f816103f6565b9050919050565b5f81905092915050565b50565b5f61044e5f83610436565b915061045982610440565b5f82019050919050565b5f61046d82610443565b9150819050919050565b7f57697468647261776c204661696c6564000000000000000000000000000000005f82015250565b5f6104ab6010836103be565b91506104b682610477565b602082019050919050565b5f6020820190508181035f8301526104d88161049f565b9050919050565b5f73ffffffffffffffffffffffffffffffffffffffff82169050919050565b5f610508826104df565b9050919050565b610518816104fe565b82525050565b7f4e487b71000000000000000000000000000000000000000000000000000000005f52602260045260245ffd5b5f600282049050600182168061056257607f821691505b6020821081036105755761057461051e565b5b50919050565b5f819050815f5260205f209050919050565b5f81546105998161054b565b6105a381866103be565b9450600182165f81146105bd57600181146105d357610605565b60ff198316865281151560200286019350610605565b6105dc8561057b565b5f5b838110156105fd578154818901526001820191506020810190506105de565b808801955050505b50505092915050565b5f819050919050565b6106208161060e565b82525050565b5f6080820190506106395f83018761050f565b610646602083018661050f565b8181036040830152610658818561058d565b90506106676060830184610617565b95945050505050565b7f53656e642041746c6561737420243520776f727468206f6620455448000000005f82015250565b5f6106a4601c836103be565b91506106af82610670565b602082019050919050565b5f6020820190508181035f8301526106d181610698565b9050919050565b7f4e487b71000000000000000000000000000000000000000000000000000000005f52601160045260245ffd5b5f61070f8261060e565b915061071a8361060e565b9250828201905080821115610732576107316106d8565b5b92915050565b5f6107428261060e565b915061074d8361060e565b925082820261075b8161060e565b91508282048414831517610772576107716106d8565b5b5092915050565b7f4e487b71000000000000000000000000000000000000000000000000000000005f52601260045260245ffd5b5f6107b08261060e565b91506107bb8361060e565b9250826107cb576107ca610779565b5b828204905092915050565b5f5ffd5b5f69ffffffffffffffffffff82169050919050565b6107f8816107da565b8114610802575f5ffd5b50565b5f81519050610813816107ef565b92915050565b5f819050919050565b61082b81610819565b8114610835575f5ffd5b50565b5f8151905061084681610822565b92915050565b6108558161060e565b811461085f575f5ffd5b50565b5f815190506108708161084c565b92915050565b5f5f5f5f5f60a0868803121561088f5761088e6107d6565b5b5f61089c88828901610805565b95505060206108ad88828901610838565b94505060406108be88828901610862565b93505060606108cf88828901610862565b92505060806108e088828901610805565b9150509295509295909350565b5f6108f782610819565b915061090283610819565b925082820261091081610819565b91507f800000000000000000000000000000000000000000000000000000000000000084145f84121615610947576109466106d8565b5b828205841483151761095c5761095b6106d8565b5b509291505056fea26469706673582212208e039969c776da3aa6b7d18f676d9c12cb7c0771132e9512f451e4b89882859c64736f6c634300081f0033",
					"opcodes": "PUSH1 0xA0 PUSH1 0x40 MSTORE PUSH1 0x40 MLOAD DUP1 PUSH1 0x40 ADD PUSH1 0x40 MSTORE DUP1 PUSH1 0x17 DUP2 MSTORE PUSH1 0x20 ADD PUSH32 0x5472616E73616374696F6E207375636365737366756C6C000000000000000000 DUP2 MSTORE POP PUSH1 0x1 SWAP1 DUP2 PUSH2 0x48 SWAP2 SWAP1 PUSH2 0x2DE JUMP JUMPDEST POP PUSH20 0xDD870FA1B7C4700F2BD7F44238821C26F7392148 PUSH20 0xFFFFFFFFFFFFFFFFFFFFFFFFFFFFFFFFFFFFFFFF AND PUSH1 0x80 SWAP1 PUSH20 0xFFFFFFFFFFFFFFFFFFFFFFFFFFFFFFFFFFFFFFFF AND DUP2 MSTORE POP CALLVALUE DUP1 ISZERO PUSH2 0x9B JUMPI PUSH0 PUSH0 REVERT JUMPDEST POP PUSH2 0x3AD JUMP JUMPDEST PUSH0 DUP2 MLOAD SWAP1 POP SWAP2 SWAP1 POP JUMP JUMPDEST PUSH32 0x4E487B7100000000000000000000000000000000000000000000000000000000 PUSH0 MSTORE PUSH1 0x41 PUSH1 0x4 MSTORE PUSH1 0x24 PUSH0 REVERT JUMPDEST PUSH32 0x4E487B7100000000000000000000000000000000000000000000000000000000 PUSH0 MSTORE PUSH1 0x22 PUSH1 0x4 MSTORE PUSH1 0x24 PUSH0 REVERT JUMPDEST PUSH0 PUSH1 0x2 DUP3 DIV SWAP1 POP PUSH1 0x1 DUP3 AND DUP1 PUSH2 0x11C JUMPI PUSH1 0x7F DUP3 AND SWAP2 POP JUMPDEST PUSH1 0x20 DUP3 LT DUP2 SUB PUSH2 0x12F JUMPI PUSH2 0x12E PUSH2 0xD8 JUMP JUMPDEST JUMPDEST POP SWAP2 SWAP1 POP JUMP JUMPDEST PUSH0 DUP2 SWAP1 POP DUP2 PUSH0 MSTORE PUSH1 0x20 PUSH0 KECCAK256 SWAP1 POP SWAP2 SWAP1 POP JUMP JUMPDEST PUSH0 PUSH1 0x20 PUSH1 0x1F DUP4 ADD DIV SWAP1 POP SWAP2 SWAP1 POP JUMP JUMPDEST PUSH0 DUP3 DUP3 SHL SWAP1 POP SWAP3 SWAP2 POP POP JUMP JUMPDEST PUSH0 PUSH1 0x8 DUP4 MUL PUSH2 0x191 PUSH32 0xFFFFFFFFFFFFFFFFFFFFFFFFFFFFFFFFFFFFFFFFFFFFFFFFFFFFFFFFFFFFFFFF DUP3 PUSH2 0x156 JUMP JUMPDEST PUSH2 0x19B DUP7 DUP4 PUSH2 0x156 JUMP JUMPDEST SWAP6 POP DUP1 NOT DUP5 AND SWAP4 POP DUP1 DUP7 AND DUP5 OR SWAP3 POP POP POP SWAP4 SWAP3 POP POP POP JUMP JUMPDEST PUSH0 DUP2 SWAP1 POP SWAP2 SWAP1 POP JUMP JUMPDEST PUSH0 DUP2 SWAP1 POP SWAP2 SWAP1 POP JUMP JUMPDEST PUSH0 PUSH2 0x1DF PUSH2 0x1DA PUSH2 0x1D5 DUP5 PUSH2 0x1B3 JUMP JUMPDEST PUSH2 0x1BC JUMP JUMPDEST PUSH2 0x1B3 JUMP JUMPDEST SWAP1 POP SWAP2 SWAP1 POP JUMP JUMPDEST PUSH0 DUP2 SWAP1 POP SWAP2 SWAP1 POP JUMP JUMPDEST PUSH2 0x1F8 DUP4 PUSH2 0x1C5 JUMP JUMPDEST PUSH2 0x20C PUSH2 0x204 DUP3 PUSH2 0x1E6 JUMP JUMPDEST DUP5 DUP5 SLOAD PUSH2 0x162 JUMP JUMPDEST DUP3 SSTORE POP POP POP POP JUMP JUMPDEST PUSH0 PUSH0 SWAP1 POP SWAP1 JUMP JUMPDEST PUSH2 0x223 PUSH2 0x214 JUMP JUMPDEST PUSH2 0x22E DUP2 DUP5 DUP5 PUSH2 0x1EF JUMP JUMPDEST POP POP POP JUMP JUMPDEST JUMPDEST DUP2 DUP2 LT ISZERO PUSH2 0x251 JUMPI PUSH2 0x246 PUSH0 DUP3 PUSH2 0x21B JUMP JUMPDEST PUSH1 0x1 DUP2 ADD SWAP1 POP PUSH2 0x234 JUMP JUMPDEST POP POP JUMP JUMPDEST PUSH1 0x1F DUP3 GT ISZERO PUSH2 0x296 JUMPI PUSH2 0x267 DUP2 PUSH2 0x135 JUMP JUMPDEST PUSH2 0x270 DUP5 PUSH2 0x147 JUMP JUMPDEST DUP2 ADD PUSH1 0x20 DUP6 LT ISZERO PUSH2 0x27F JUMPI DUP2 SWAP1 POP JUMPDEST PUSH2 0x293 PUSH2 0x28B DUP6 PUSH2 0x147 JUMP JUMPDEST DUP4 ADD DUP3 PUSH2 0x233 JUMP JUMPDEST POP POP JUMPDEST POP POP POP JUMP JUMPDEST PUSH0 DUP3 DUP3 SHR SWAP1 POP SWAP3 SWAP2 POP POP JUMP JUMPDEST PUSH0 PUSH2 0x2B6 PUSH0 NOT DUP5 PUSH1 0x8 MUL PUSH2 0x29B JUMP JUMPDEST NOT DUP1 DUP4 AND SWAP2 POP POP SWAP3 SWAP2 POP POP JUMP JUMPDEST PUSH0 PUSH2 0x2CE DUP4 DUP4 PUSH2 0x2A7 JUMP JUMPDEST SWAP2 POP DUP3 PUSH1 0x2 MUL DUP3 OR SWAP1 POP SWAP3 SWAP2 POP POP JUMP JUMPDEST PUSH2 0x2E7 DUP3 PUSH2 0xA1 JUMP JUMPDEST PUSH8 0xFFFFFFFFFFFFFFFF DUP2 GT ISZERO PUSH2 0x300 JUMPI PUSH2 0x2FF PUSH2 0xAB JUMP JUMPDEST JUMPDEST PUSH2 0x30A DUP3 SLOAD PUSH2 0x105 JUMP JUMPDEST PUSH2 0x315 DUP3 DUP3 DUP6 PUSH2 0x255 JUMP JUMPDEST PUSH0 PUSH1 0x20 SWAP1 POP PUSH1 0x1F DUP4 GT PUSH1 0x1 DUP2 EQ PUSH2 0x346 JUMPI PUSH0 DUP5 ISZERO PUSH2 0x334 JUMPI DUP3 DUP8 ADD MLOAD SWAP1 POP JUMPDEST PUSH2 0x33E DUP6 DUP3 PUSH2 0x2C3 JUMP JUMPDEST DUP7 SSTORE POP PUSH2 0x3A5 JUMP JUMPDEST PUSH1 0x1F NOT DUP5 AND PUSH2 0x354 DUP7 PUSH2 0x135 JUMP JUMPDEST PUSH0 JUMPDEST DUP3 DUP2 LT ISZERO PUSH2 0x37B JUMPI DUP5 DUP10 ADD MLOAD DUP3 SSTORE PUSH1 0x1 DUP3 ADD SWAP2 POP PUSH1 0x20 DUP6 ADD SWAP5 POP PUSH1 0x20 DUP2 ADD SWAP1 POP PUSH2 0x356 JUMP JUMPDEST DUP7 DUP4 LT ISZERO PUSH2 0x398 JUMPI DUP5 DUP10 ADD MLOAD PUSH2 0x394 PUSH1 0x1F DUP10 AND DUP3 PUSH2 0x2A7 JUMP JUMPDEST DUP4 SSTORE POP JUMPDEST PUSH1 0x1 PUSH1 0x2 DUP9 MUL ADD DUP9 SSTORE POP POP POP JUMPDEST POP POP POP POP POP POP JUMP JUMPDEST PUSH1 0x80 MLOAD PUSH2 0x999 PUSH2 0x3D8 PUSH0 CODECOPY PUSH0 DUP2 DUP2 PUSH1 0x4E ADD MSTORE DUP2 DUP2 PUSH1 0xDD ADD MSTORE DUP2 DUP2 PUSH2 0x1C6 ADD MSTORE PUSH2 0x1E9 ADD MSTORE PUSH2 0x999 PUSH0 RETURN INVALID PUSH1 0x80 PUSH1 0x40 MSTORE PUSH1 0x4 CALLDATASIZE LT PUSH2 0x28 JUMPI PUSH0 CALLDATALOAD PUSH1 0xE0 SHR DUP1 PUSH4 0x3CCFD60B EQ PUSH2 0x2C JUMPI DUP1 PUSH4 0xB60D4288 EQ PUSH2 0x42 JUMPI JUMPDEST PUSH0 PUSH0 REVERT JUMPDEST CALLVALUE DUP1 ISZERO PUSH2 0x37 JUMPI PUSH0 PUSH0 REVERT JUMPDEST POP PUSH2 0x40 PUSH2 0x4C JUMP JUMPDEST STOP JUMPDEST PUSH2 0x4A PUSH2 0x23A JUMP JUMPDEST STOP JUMPDEST PUSH32 0x0 PUSH20 0xFFFFFFFFFFFFFFFFFFFFFFFFFFFFFFFFFFFFFFFF AND CALLER PUSH20 0xFFFFFFFFFFFFFFFFFFFFFFFFFFFFFFFFFFFFFFFF AND EQ PUSH2 0xDA JUMPI PUSH1 0x40 MLOAD PUSH32 0x8C379A000000000000000000000000000000000000000000000000000000000 DUP2 MSTORE PUSH1 0x4 ADD PUSH2 0xD1 SWAP1 PUSH2 0x418 JUMP JUMPDEST PUSH1 0x40 MLOAD DUP1 SWAP2 SUB SWAP1 REVERT JUMPDEST PUSH0 PUSH32 0x0 PUSH20 0xFFFFFFFFFFFFFFFFFFFFFFFFFFFFFFFFFFFFFFFF AND SELFBALANCE PUSH1 0x40 MLOAD PUSH2 0x11F SWAP1 PUSH2 0x463 JUMP JUMPDEST PUSH0 PUSH1 0x40 MLOAD DUP1 DUP4 SUB DUP2 DUP6 DUP8 GAS CALL SWAP3 POP POP POP RETURNDATASIZE DUP1 PUSH0 DUP2 EQ PUSH2 0x159 JUMPI PUSH1 0x40 MLOAD SWAP2 POP PUSH1 0x1F NOT PUSH1 0x3F RETURNDATASIZE ADD AND DUP3 ADD PUSH1 0x40 MSTORE RETURNDATASIZE DUP3 MSTORE RETURNDATASIZE PUSH0 PUSH1 0x20 DUP5 ADD RETURNDATACOPY PUSH2 0x15E JUMP JUMPDEST PUSH1 0x60 SWAP2 POP JUMPDEST POP POP SWAP1 POP DUP1 PUSH2 0x1A2 JUMPI PUSH1 0x40 MLOAD PUSH32 0x8C379A000000000000000000000000000000000000000000000000000000000 DUP2 MSTORE PUSH1 0x4 ADD PUSH2 0x199 SWAP1 PUSH2 0x4C1 JUMP JUMPDEST PUSH1 0x40 MLOAD DUP1 SWAP2 SUB SWAP1 REVERT JUMPDEST PUSH32 0x36995BCCB71A1493533D2D10095138771086D22D95572020B644DBD86437A02E CALLER PUSH32 0x0 PUSH1 0x1 PUSH32 0x0 PUSH20 0xFFFFFFFFFFFFFFFFFFFFFFFFFFFFFFFFFFFFFFFF AND BALANCE PUSH1 0x40 MLOAD PUSH2 0x22F SWAP5 SWAP4 SWAP3 SWAP2 SWAP1 PUSH2 0x626 JUMP JUMPDEST PUSH1 0x40 MLOAD DUP1 SWAP2 SUB SWAP1 LOG1 POP JUMP JUMPDEST PUSH8 0x4563918244F40000 PUSH2 0x24C CALLVALUE PUSH2 0x2E1 JUMP JUMPDEST LT ISZERO PUSH2 0x28D JUMPI PUSH1 0x40 MLOAD PUSH32 0x8C379A000000000000000000000000000000000000000000000000000000000 DUP2 MSTORE PUSH1 0x4 ADD PUSH2 0x284 SWAP1 PUSH2 0x6BA JUMP JUMPDEST PUSH1 0x40 MLOAD DUP1 SWAP2 SUB SWAP1 REVERT JUMPDEST CALLVALUE PUSH0 PUSH0 CALLER PUSH20 0xFFFFFFFFFFFFFFFFFFFFFFFFFFFFFFFFFFFFFFFF AND PUSH20 0xFFFFFFFFFFFFFFFFFFFFFFFFFFFFFFFFFFFFFFFF AND DUP2 MSTORE PUSH1 0x20 ADD SWAP1 DUP2 MSTORE PUSH1 0x20 ADD PUSH0 KECCAK256 PUSH0 DUP3 DUP3 SLOAD PUSH2 0x2D8 SWAP2 SWAP1 PUSH2 0x705 JUMP JUMPDEST SWAP3 POP POP DUP2 SWAP1 SSTORE POP JUMP JUMPDEST PUSH0 PUSH0 PUSH2 0x2EB PUSH2 0x319 JUMP JUMPDEST SWAP1 POP PUSH0 PUSH8 0xDE0B6B3A7640000 DUP3 DUP6 PUSH2 0x303 SWAP2 SWAP1 PUSH2 0x738 JUMP JUMPDEST PUSH2 0x30D SWAP2 SWAP1 PUSH2 0x7A6 JUMP JUMPDEST SWAP1 POP DUP1 SWAP3 POP POP POP SWAP2 SWAP1 POP JUMP JUMPDEST PUSH0 PUSH0 PUSH20 0xB27A31F1B0AF2946B7F582768F03239B1EC07C2C SWAP1 POP PUSH0 DUP2 PUSH20 0xFFFFFFFFFFFFFFFFFFFFFFFFFFFFFFFFFFFFFFFF AND PUSH4 0xFEAF968C PUSH1 0x40 MLOAD DUP2 PUSH4 0xFFFFFFFF AND PUSH1 0xE0 SHL DUP2 MSTORE PUSH1 0x4 ADD PUSH1 0xA0 PUSH1 0x40 MLOAD DUP1 DUP4 SUB DUP2 DUP7 GAS STATICCALL ISZERO DUP1 ISZERO PUSH2 0x37C JUMPI RETURNDATASIZE PUSH0 PUSH0 RETURNDATACOPY RETURNDATASIZE PUSH0 REVERT JUMPDEST POP POP POP POP PUSH1 0x40 MLOAD RETURNDATASIZE PUSH1 0x1F NOT PUSH1 0x1F DUP3 ADD AND DUP3 ADD DUP1 PUSH1 0x40 MSTORE POP DUP2 ADD SWAP1 PUSH2 0x3A0 SWAP2 SWAP1 PUSH2 0x876 JUMP JUMPDEST POP POP POP SWAP2 POP POP PUSH5 0x2540BE400 DUP2 PUSH2 0x3B7 SWAP2 SWAP1 PUSH2 0x8ED JUMP JUMPDEST SWAP3 POP POP POP SWAP1 JUMP JUMPDEST PUSH0 DUP3 DUP3 MSTORE PUSH1 0x20 DUP3 ADD SWAP1 POP SWAP3 SWAP2 POP POP JUMP JUMPDEST PUSH32 0x596F7520617265206E6F7420746865206F776E65720000000000000000000000 PUSH0 DUP3 ADD MSTORE POP JUMP JUMPDEST PUSH0 PUSH2 0x402 PUSH1 0x15 DUP4 PUSH2 0x3BE JUMP JUMPDEST SWAP2 POP PUSH2 0x40D DUP3 PUSH2 0x3CE JUMP JUMPDEST PUSH1 0x20 DUP3 ADD SWAP1 POP SWAP2 SWAP1 POP JUMP JUMPDEST PUSH0 PUSH1 0x20 DUP3 ADD SWAP1 POP DUP2 DUP2 SUB PUSH0 DUP4 ADD MSTORE PUSH2 0x42F DUP2 PUSH2 0x3F6 JUMP JUMPDEST SWAP1 POP SWAP2 SWAP1 POP JUMP JUMPDEST PUSH0 DUP2 SWAP1 POP SWAP3 SWAP2 POP POP JUMP JUMPDEST POP JUMP JUMPDEST PUSH0 PUSH2 0x44E PUSH0 DUP4 PUSH2 0x436 JUMP JUMPDEST SWAP2 POP PUSH2 0x459 DUP3 PUSH2 0x440 JUMP JUMPDEST PUSH0 DUP3 ADD SWAP1 POP SWAP2 SWAP1 POP JUMP JUMPDEST PUSH0 PUSH2 0x46D DUP3 PUSH2 0x443 JUMP JUMPDEST SWAP2 POP DUP2 SWAP1 POP SWAP2 SWAP1 POP JUMP JUMPDEST PUSH32 0x57697468647261776C204661696C656400000000000000000000000000000000 PUSH0 DUP3 ADD MSTORE POP JUMP JUMPDEST PUSH0 PUSH2 0x4AB PUSH1 0x10 DUP4 PUSH2 0x3BE JUMP JUMPDEST SWAP2 POP PUSH2 0x4B6 DUP3 PUSH2 0x477 JUMP JUMPDEST PUSH1 0x20 DUP3 ADD SWAP1 POP SWAP2 SWAP1 POP JUMP JUMPDEST PUSH0 PUSH1 0x20 DUP3 ADD SWAP1 POP DUP2 DUP2 SUB PUSH0 DUP4 ADD MSTORE PUSH2 0x4D8 DUP2 PUSH2 0x49F JUMP JUMPDEST SWAP1 POP SWAP2 SWAP1 POP JUMP JUMPDEST PUSH0 PUSH20 0xFFFFFFFFFFFFFFFFFFFFFFFFFFFFFFFFFFFFFFFF DUP3 AND SWAP1 POP SWAP2 SWAP1 POP JUMP JUMPDEST PUSH0 PUSH2 0x508 DUP3 PUSH2 0x4DF JUMP JUMPDEST SWAP1 POP SWAP2 SWAP1 POP JUMP JUMPDEST PUSH2 0x518 DUP2 PUSH2 0x4FE JUMP JUMPDEST DUP3 MSTORE POP POP JUMP JUMPDEST PUSH32 0x4E487B7100000000000000000000000000000000000000000000000000000000 PUSH0 MSTORE PUSH1 0x22 PUSH1 0x4 MSTORE PUSH1 0x24 PUSH0 REVERT JUMPDEST PUSH0 PUSH1 0x2 DUP3 DIV SWAP1 POP PUSH1 0x1 DUP3 AND DUP1 PUSH2 0x562 JUMPI PUSH1 0x7F DUP3 AND SWAP2 POP JUMPDEST PUSH1 0x20 DUP3 LT DUP2 SUB PUSH2 0x575 JUMPI PUSH2 0x574 PUSH2 0x51E JUMP JUMPDEST JUMPDEST POP SWAP2 SWAP1 POP JUMP JUMPDEST PUSH0 DUP2 SWAP1 POP DUP2 PUSH0 MSTORE PUSH1 0x20 PUSH0 KECCAK256 SWAP1 POP SWAP2 SWAP1 POP JUMP JUMPDEST PUSH0 DUP2 SLOAD PUSH2 0x599 DUP2 PUSH2 0x54B JUMP JUMPDEST PUSH2 0x5A3 DUP2 DUP7 PUSH2 0x3BE JUMP JUMPDEST SWAP5 POP PUSH1 0x1 DUP3 AND PUSH0 DUP2 EQ PUSH2 0x5BD JUMPI PUSH1 0x1 DUP2 EQ PUSH2 0x5D3 JUMPI PUSH2 0x605 JUMP JUMPDEST PUSH1 0xFF NOT DUP4 AND DUP7 MSTORE DUP2 ISZERO ISZERO PUSH1 0x20 MUL DUP7 ADD SWAP4 POP PUSH2 0x605 JUMP JUMPDEST PUSH2 0x5DC DUP6 PUSH2 0x57B JUMP JUMPDEST PUSH0 JUMPDEST DUP4 DUP2 LT ISZERO PUSH2 0x5FD JUMPI DUP2 SLOAD DUP2 DUP10 ADD MSTORE PUSH1 0x1 DUP3 ADD SWAP2 POP PUSH1 0x20 DUP2 ADD SWAP1 POP PUSH2 0x5DE JUMP JUMPDEST DUP1 DUP9 ADD SWAP6 POP POP POP JUMPDEST POP POP POP SWAP3 SWAP2 POP POP JUMP JUMPDEST PUSH0 DUP2 SWAP1 POP SWAP2 SWAP1 POP JUMP JUMPDEST PUSH2 0x620 DUP2 PUSH2 0x60E JUMP JUMPDEST DUP3 MSTORE POP POP JUMP JUMPDEST PUSH0 PUSH1 0x80 DUP3 ADD SWAP1 POP PUSH2 0x639 PUSH0 DUP4 ADD DUP8 PUSH2 0x50F JUMP JUMPDEST PUSH2 0x646 PUSH1 0x20 DUP4 ADD DUP7 PUSH2 0x50F JUMP JUMPDEST DUP2 DUP2 SUB PUSH1 0x40 DUP4 ADD MSTORE PUSH2 0x658 DUP2 DUP6 PUSH2 0x58D JUMP JUMPDEST SWAP1 POP PUSH2 0x667 PUSH1 0x60 DUP4 ADD DUP5 PUSH2 0x617 JUMP JUMPDEST SWAP6 SWAP5 POP POP POP POP POP JUMP JUMPDEST PUSH32 0x53656E642041746C6561737420243520776F727468206F662045544800000000 PUSH0 DUP3 ADD MSTORE POP JUMP JUMPDEST PUSH0 PUSH2 0x6A4 PUSH1 0x1C DUP4 PUSH2 0x3BE JUMP JUMPDEST SWAP2 POP PUSH2 0x6AF DUP3 PUSH2 0x670 JUMP JUMPDEST PUSH1 0x20 DUP3 ADD SWAP1 POP SWAP2 SWAP1 POP JUMP JUMPDEST PUSH0 PUSH1 0x20 DUP3 ADD SWAP1 POP DUP2 DUP2 SUB PUSH0 DUP4 ADD MSTORE PUSH2 0x6D1 DUP2 PUSH2 0x698 JUMP JUMPDEST SWAP1 POP SWAP2 SWAP1 POP JUMP JUMPDEST PUSH32 0x4E487B7100000000000000000000000000000000000000000000000000000000 PUSH0 MSTORE PUSH1 0x11 PUSH1 0x4 MSTORE PUSH1 0x24 PUSH0 REVERT JUMPDEST PUSH0 PUSH2 0x70F DUP3 PUSH2 0x60E JUMP JUMPDEST SWAP2 POP PUSH2 0x71A DUP4 PUSH2 0x60E JUMP JUMPDEST SWAP3 POP DUP3 DUP3 ADD SWAP1 POP DUP1 DUP3 GT ISZERO PUSH2 0x732 JUMPI PUSH2 0x731 PUSH2 0x6D8 JUMP JUMPDEST JUMPDEST SWAP3 SWAP2 POP POP JUMP JUMPDEST PUSH0 PUSH2 0x742 DUP3 PUSH2 0x60E JUMP JUMPDEST SWAP2 POP PUSH2 0x74D DUP4 PUSH2 0x60E JUMP JUMPDEST SWAP3 POP DUP3 DUP3 MUL PUSH2 0x75B DUP2 PUSH2 0x60E JUMP JUMPDEST SWAP2 POP DUP3 DUP3 DIV DUP5 EQ DUP4 ISZERO OR PUSH2 0x772 JUMPI PUSH2 0x771 PUSH2 0x6D8 JUMP JUMPDEST JUMPDEST POP SWAP3 SWAP2 POP POP JUMP JUMPDEST PUSH32 0x4E487B7100000000000000000000000000000000000000000000000000000000 PUSH0 MSTORE PUSH1 0x12 PUSH1 0x4 MSTORE PUSH1 0x24 PUSH0 REVERT JUMPDEST PUSH0 PUSH2 0x7B0 DUP3 PUSH2 0x60E JUMP JUMPDEST SWAP2 POP PUSH2 0x7BB DUP4 PUSH2 0x60E JUMP JUMPDEST SWAP3 POP DUP3 PUSH2 0x7CB JUMPI PUSH2 0x7CA PUSH2 0x779 JUMP JUMPDEST JUMPDEST DUP3 DUP3 DIV SWAP1 POP SWAP3 SWAP2 POP POP JUMP JUMPDEST PUSH0 PUSH0 REVERT JUMPDEST PUSH0 PUSH10 0xFFFFFFFFFFFFFFFFFFFF DUP3 AND SWAP1 POP SWAP2 SWAP1 POP JUMP JUMPDEST PUSH2 0x7F8 DUP2 PUSH2 0x7DA JUMP JUMPDEST DUP2 EQ PUSH2 0x802 JUMPI PUSH0 PUSH0 REVERT JUMPDEST POP JUMP JUMPDEST PUSH0 DUP2 MLOAD SWAP1 POP PUSH2 0x813 DUP2 PUSH2 0x7EF JUMP JUMPDEST SWAP3 SWAP2 POP POP JUMP JUMPDEST PUSH0 DUP2 SWAP1 POP SWAP2 SWAP1 POP JUMP JUMPDEST PUSH2 0x82B DUP2 PUSH2 0x819 JUMP JUMPDEST DUP2 EQ PUSH2 0x835 JUMPI PUSH0 PUSH0 REVERT JUMPDEST POP JUMP JUMPDEST PUSH0 DUP2 MLOAD SWAP1 POP PUSH2 0x846 DUP2 PUSH2 0x822 JUMP JUMPDEST SWAP3 SWAP2 POP POP JUMP JUMPDEST PUSH2 0x855 DUP2 PUSH2 0x60E JUMP JUMPDEST DUP2 EQ PUSH2 0x85F JUMPI PUSH0 PUSH0 REVERT JUMPDEST POP JUMP JUMPDEST PUSH0 DUP2 MLOAD SWAP1 POP PUSH2 0x870 DUP2 PUSH2 0x84C JUMP JUMPDEST SWAP3 SWAP2 POP POP JUMP JUMPDEST PUSH0 PUSH0 PUSH0 PUSH0 PUSH0 PUSH1 0xA0 DUP7 DUP9 SUB SLT ISZERO PUSH2 0x88F JUMPI PUSH2 0x88E PUSH2 0x7D6 JUMP JUMPDEST JUMPDEST PUSH0 PUSH2 0x89C DUP9 DUP3 DUP10 ADD PUSH2 0x805 JUMP JUMPDEST SWAP6 POP POP PUSH1 0x20 PUSH2 0x8AD DUP9 DUP3 DUP10 ADD PUSH2 0x838 JUMP JUMPDEST SWAP5 POP POP PUSH1 0x40 PUSH2 0x8BE DUP9 DUP3 DUP10 ADD PUSH2 0x862 JUMP JUMPDEST SWAP4 POP POP PUSH1 0x60 PUSH2 0x8CF DUP9 DUP3 DUP10 ADD PUSH2 0x862 JUMP JUMPDEST SWAP3 POP POP PUSH1 0x80 PUSH2 0x8E0 DUP9 DUP3 DUP10 ADD PUSH2 0x805 JUMP JUMPDEST SWAP2 POP POP SWAP3 SWAP6 POP SWAP3 SWAP6 SWAP1 SWAP4 POP JUMP JUMPDEST PUSH0 PUSH2 0x8F7 DUP3 PUSH2 0x819 JUMP JUMPDEST SWAP2 POP PUSH2 0x902 DUP4 PUSH2 0x819 JUMP JUMPDEST SWAP3 POP DUP3 DUP3 MUL PUSH2 0x910 DUP2 PUSH2 0x819 JUMP JUMPDEST SWAP2 POP PUSH32 0x8000000000000000000000000000000000000000000000000000000000000000 DUP5 EQ PUSH0 DUP5 SLT AND ISZERO PUSH2 0x947 JUMPI PUSH2 0x946 PUSH2 0x6D8 JUMP JUMPDEST JUMPDEST DUP3 DUP3 SDIV DUP5 EQ DUP4 ISZERO OR PUSH2 0x95C JUMPI PUSH2 0x95B PUSH2 0x6D8 JUMP JUMPDEST JUMPDEST POP SWAP3 SWAP2 POP POP JUMP INVALID LOG2 PUSH5 0x6970667358 0x22 SLT KECCAK256 DUP15 SUB SWAP10 PUSH10 0xC776DA3AA6B7D18F676D SWAP13 SLT 0xCB PUSH29 0x771132E9512F451E4B89882859C64736F6C634300081F003300000000 "
				},
				"gasEstimates": {
					"creation": {
						"codeDepositCost": "491400",
						"executionCost": "infinite",
						"totalCost": "infinite"
					},
					"external": {
						"fund()": "infinite",
						"withdraw()": "infinite"
					}
				},
				"methodIdentifiers": {
					"fund()": "b60d4288",
					"withdraw()": "3ccfd60b"
				}
			},
			"storageLayout": {
				"storage": [
					{
						"astId": 56,
						"contract": "contracts/Revise/FundMe.sol:FundMe",
						"label": "addressToAmountFunded",
						"offset": 0,
						"slot": "0",
						"type": "t_mapping(t_address,t_uint256)"
					},
					{
						"astId": 59,
						"contract": "contracts/Revise/FundMe.sol:FundMe",
						"label": "successString",
						"offset": 0,
						"slot": "1",
						"type": "t_string_storage"
					}
				],
				"types": {
					"t_address": {
						"encoding": "inplace",
						"label": "address",
						"numberOfBytes": "20"
					},
					"t_mapping(t_address,t_uint256)": {
						"encoding": "mapping",
						"key": "t_address",
						"label": "mapping(address => uint256)",
						"numberOfBytes": "32",
						"value": "t_uint256"
					},
					"t_string_storage": {
						"encoding": "bytes",
						"label": "string",
						"numberOfBytes": "32"
					},
					"t_uint256": {
						"encoding": "inplace",
						"label": "uint256",
						"numberOfBytes": "32"
					}
				}
			},
			"userdoc": {
				"kind": "user",
				"methods": {},
				"version": 1
			}
		}
	}
}