{
	"contracts/Revise/FundMe.sol": {
		"FundMe": {
			"abi": [
				{
					"anonymous": false,
					"inputs": [
						{
							"indexed": false,
							"internalType": "address",
							"name": "from",
							"type": "address"
						},
						{
							"indexed": false,
							"internalType": "address",
							"name": "to",
							"type": "address"
						},
						{
							"indexed": false,
							"internalType": "uint256",
							"name": "value",
							"type": "uint256"
						}
					],
					"name": "Success",
					"type": "event"
				},
				{
					"inputs": [
						{
							"internalType": "address",
							"name": "sender",
							"type": "address"
						}
					],
					"name": "addressToAmountFunded",
					"outputs": [
						{
							"internalType": "uint256",
							"name": "value",
							"type": "uint256"
						}
					],
					"stateMutability": "view",
					"type": "function"
				},
				{
					"inputs": [],
					"name": "fund",
					"outputs": [],
					"stateMutability": "payable",
					"type": "function"
				},
				{
					"inputs": [],
					"name": "withdraw",
					"outputs": [],
					"stateMutability": "payable",
					"type": "function"
				}
			],
			"devdoc": {
				"kind": "dev",
				"methods": {},
				"version": 1
			},
			"evm": {
				"assembly": "    /* \"contracts/Revise/FundMe.sol\":59:858  contract FundMe{... */\n  mstore(0x40, 0x80)\n  callvalue\n  dup1\n  iszero\n  tag_1\n  jumpi\n  revert(0x00, 0x00)\ntag_1:\n  pop\n  dataSize(sub_0)\n  dup1\n  dataOffset(sub_0)\n  0x00\n  codecopy\n  0x00\n  return\nstop\n\nsub_0: assembly {\n        /* \"contracts/Revise/FundMe.sol\":59:858  contract FundMe{... */\n      mstore(0x40, 0x80)\n      jumpi(tag_1, lt(calldatasize, 0x04))\n      shr(0xe0, calldataload(0x00))\n      dup1\n      0x3ccfd60b\n      eq\n      tag_2\n      jumpi\n      dup1\n      0x3e47d6f3\n      eq\n      tag_3\n      jumpi\n      dup1\n      0xb60d4288\n      eq\n      tag_4\n      jumpi\n    tag_1:\n      revert(0x00, 0x00)\n        /* \"contracts/Revise/FundMe.sol\":519:856  function withdraw()public payable {... */\n    tag_2:\n      tag_5\n      tag_6\n      jump\t// in\n    tag_5:\n      stop\n        /* \"contracts/Revise/FundMe.sol\":81:151  mapping(address  sender => uint256 value) public addressToAmountFunded */\n    tag_3:\n      callvalue\n      dup1\n      iszero\n      tag_7\n      jumpi\n      revert(0x00, 0x00)\n    tag_7:\n      pop\n      tag_8\n      0x04\n      dup1\n      calldatasize\n      sub\n      dup2\n      add\n      swap1\n      tag_9\n      swap2\n      swap1\n      tag_10\n      jump\t// in\n    tag_9:\n      tag_11\n      jump\t// in\n    tag_8:\n      mload(0x40)\n      tag_12\n      swap2\n      swap1\n      tag_13\n      jump\t// in\n    tag_12:\n      mload(0x40)\n      dup1\n      swap2\n      sub\n      swap1\n      return\n        /* \"contracts/Revise/FundMe.sol\":219:514  function fund() public payable{... */\n    tag_4:\n      tag_14\n      tag_15\n      jump\t// in\n    tag_14:\n      stop\n        /* \"contracts/Revise/FundMe.sol\":519:856  function withdraw()public payable {... */\n    tag_6:\n        /* \"contracts/Revise/FundMe.sol\":563:587  uint256 amtToBeWithdrawl */\n      0x00\n        /* \"contracts/Revise/FundMe.sol\":590:611  addressToAmountFunded */\n      0x00\n        /* \"contracts/Revise/FundMe.sol\":590:623  addressToAmountFunded[msg.sender] */\n      0x00\n        /* \"contracts/Revise/FundMe.sol\":612:622  msg.sender */\n      caller\n        /* \"contracts/Revise/FundMe.sol\":590:623  addressToAmountFunded[msg.sender] */\n      0xffffffffffffffffffffffffffffffffffffffff\n      and\n      0xffffffffffffffffffffffffffffffffffffffff\n      and\n      dup2\n      mstore\n      0x20\n      add\n      swap1\n      dup2\n      mstore\n      0x20\n      add\n      0x00\n      keccak256\n      sload\n        /* \"contracts/Revise/FundMe.sol\":563:623  uint256 amtToBeWithdrawl = addressToAmountFunded[msg.sender] */\n      swap1\n      pop\n        /* \"contracts/Revise/FundMe.sol\":633:654  address senderAddress */\n      0x00\n        /* \"contracts/Revise/FundMe.sol\":657:667  msg.sender */\n      caller\n        /* \"contracts/Revise/FundMe.sol\":633:667  address senderAddress = msg.sender */\n      swap1\n      pop\n        /* \"contracts/Revise/FundMe.sol\":680:691  bool result */\n      0x00\n        /* \"contracts/Revise/FundMe.sol\":704:717  senderAddress */\n      dup2\n        /* \"contracts/Revise/FundMe.sol\":696:723  payable(senderAddress).call */\n      0xffffffffffffffffffffffffffffffffffffffff\n      and\n        /* \"contracts/Revise/FundMe.sol\":730:746  amtToBeWithdrawl */\n      dup4\n        /* \"contracts/Revise/FundMe.sol\":696:751  payable(senderAddress).call{value:amtToBeWithdrawl}('') */\n      mload(0x40)\n      tag_17\n      swap1\n      tag_18\n      jump\t// in\n    tag_17:\n      0x00\n      mload(0x40)\n      dup1\n      dup4\n      sub\n      dup2\n      dup6\n      dup8\n      gas\n      call\n      swap3\n      pop\n      pop\n      pop\n      returndatasize\n      dup1\n      0x00\n      dup2\n      eq\n      tag_21\n      jumpi\n      mload(0x40)\n      swap2\n      pop\n      and(add(returndatasize, 0x3f), not(0x1f))\n      dup3\n      add\n      0x40\n      mstore\n      returndatasize\n      dup3\n      mstore\n      returndatasize\n      0x00\n      0x20\n      dup5\n      add\n      returndatacopy\n      jump(tag_20)\n    tag_21:\n      0x60\n      swap2\n      pop\n    tag_20:\n      pop\n        /* \"contracts/Revise/FundMe.sol\":679:751  (bool result,) = payable(senderAddress).call{value:amtToBeWithdrawl}('') */\n      pop\n      swap1\n      pop\n        /* \"contracts/Revise/FundMe.sol\":770:776  result */\n      dup1\n        /* \"contracts/Revise/FundMe.sol\":762:788  require(result, \"Failure\") */\n      tag_22\n      jumpi\n      mload(0x40)\n      0x08c379a000000000000000000000000000000000000000000000000000000000\n      dup2\n      mstore\n      0x04\n      add\n      tag_23\n      swap1\n      tag_24\n      jump\t// in\n    tag_23:\n      mload(0x40)\n      dup1\n      swap2\n      sub\n      swap1\n      revert\n    tag_22:\n        /* \"contracts/Revise/FundMe.sol\":838:839  0 */\n      0x00\n        /* \"contracts/Revise/FundMe.sol\":799:820  addressToAmountFunded */\n      0x00\n        /* \"contracts/Revise/FundMe.sol\":799:835  addressToAmountFunded[senderAddress] */\n      0x00\n        /* \"contracts/Revise/FundMe.sol\":821:834  senderAddress */\n      dup5\n        /* \"contracts/Revise/FundMe.sol\":799:835  addressToAmountFunded[senderAddress] */\n      0xffffffffffffffffffffffffffffffffffffffff\n      and\n      0xffffffffffffffffffffffffffffffffffffffff\n      and\n      dup2\n      mstore\n      0x20\n      add\n      swap1\n      dup2\n      mstore\n      0x20\n      add\n      0x00\n      keccak256\n        /* \"contracts/Revise/FundMe.sol\":799:839  addressToAmountFunded[senderAddress] = 0 */\n      dup2\n      swap1\n      sstore\n      pop\n        /* \"contracts/Revise/FundMe.sol\":553:856  {... */\n      pop\n      pop\n      pop\n        /* \"contracts/Revise/FundMe.sol\":519:856  function withdraw()public payable {... */\n      jump\t// out\n        /* \"contracts/Revise/FundMe.sol\":81:151  mapping(address  sender => uint256 value) public addressToAmountFunded */\n    tag_11:\n      mstore(0x20, 0x00)\n      dup1\n      0x00\n      mstore\n      keccak256(0x00, 0x40)\n      0x00\n      swap2\n      pop\n      swap1\n      pop\n      sload\n      dup2\n      jump\t// out\n        /* \"contracts/Revise/FundMe.sol\":219:514  function fund() public payable{... */\n    tag_15:\n        /* \"contracts/Revise/FundMe.sol\":259:274  uint256 min_usd */\n      0x00\n        /* \"contracts/Revise/FundMe.sol\":277:278  5 */\n      0x05\n        /* \"contracts/Revise/FundMe.sol\":259:278  uint256 min_usd = 5 */\n      swap1\n      pop\n        /* \"contracts/Revise/FundMe.sol\":342:349  min_usd */\n      dup1\n        /* \"contracts/Revise/FundMe.sol\":330:339  msg.value */\n      callvalue\n        /* \"contracts/Revise/FundMe.sol\":330:349  msg.value >=min_usd */\n      lt\n      iszero\n        /* \"contracts/Revise/FundMe.sol\":322:382  require(msg.value >=min_usd, \"Send Atleast $5 worth of ETH\") */\n      tag_26\n      jumpi\n      mload(0x40)\n      0x08c379a000000000000000000000000000000000000000000000000000000000\n      dup2\n      mstore\n      0x04\n      add\n      tag_27\n      swap1\n      tag_28\n      jump\t// in\n    tag_27:\n      mload(0x40)\n      dup1\n      swap2\n      sub\n      swap1\n      revert\n    tag_26:\n        /* \"contracts/Revise/FundMe.sol\":397:442  Success(msg.sender, address(this), msg.value) */\n      0x874f886a60392abb180676546b433d61143fdc5753868148c3ec0edf699cda7e\n        /* \"contracts/Revise/FundMe.sol\":405:415  msg.sender */\n      caller\n        /* \"contracts/Revise/FundMe.sol\":425:429  this */\n      address\n        /* \"contracts/Revise/FundMe.sol\":432:441  msg.value */\n      callvalue\n        /* \"contracts/Revise/FundMe.sol\":397:442  Success(msg.sender, address(this), msg.value) */\n      mload(0x40)\n      tag_29\n      swap4\n      swap3\n      swap2\n      swap1\n      tag_30\n      jump\t// in\n    tag_29:\n      mload(0x40)\n      dup1\n      swap2\n      sub\n      swap1\n      log1\n        /* \"contracts/Revise/FundMe.sol\":489:498  msg.value */\n      callvalue\n        /* \"contracts/Revise/FundMe.sol\":452:473  addressToAmountFunded */\n      0x00\n        /* \"contracts/Revise/FundMe.sol\":452:485  addressToAmountFunded[msg.sender] */\n      0x00\n        /* \"contracts/Revise/FundMe.sol\":474:484  msg.sender */\n      caller\n        /* \"contracts/Revise/FundMe.sol\":452:485  addressToAmountFunded[msg.sender] */\n      0xffffffffffffffffffffffffffffffffffffffff\n      and\n      0xffffffffffffffffffffffffffffffffffffffff\n      and\n      dup2\n      mstore\n      0x20\n      add\n      swap1\n      dup2\n      mstore\n      0x20\n      add\n      0x00\n      keccak256\n      0x00\n        /* \"contracts/Revise/FundMe.sol\":452:498  addressToAmountFunded[msg.sender] += msg.value */\n      dup3\n      dup3\n      sload\n      tag_31\n      swap2\n      swap1\n      tag_32\n      jump\t// in\n    tag_31:\n      swap3\n      pop\n      pop\n      dup2\n      swap1\n      sstore\n      pop\n        /* \"contracts/Revise/FundMe.sol\":249:514  {... */\n      pop\n        /* \"contracts/Revise/FundMe.sol\":219:514  function fund() public payable{... */\n      jump\t// out\n        /* \"#utility.yul\":88:205   */\n    tag_34:\n        /* \"#utility.yul\":197:198   */\n      0x00\n        /* \"#utility.yul\":194:195   */\n      0x00\n        /* \"#utility.yul\":187:199   */\n      revert\n        /* \"#utility.yul\":334:460   */\n    tag_36:\n        /* \"#utility.yul\":371:378   */\n      0x00\n        /* \"#utility.yul\":411:453   */\n      0xffffffffffffffffffffffffffffffffffffffff\n        /* \"#utility.yul\":404:409   */\n      dup3\n        /* \"#utility.yul\":400:454   */\n      and\n        /* \"#utility.yul\":389:454   */\n      swap1\n      pop\n        /* \"#utility.yul\":334:460   */\n      swap2\n      swap1\n      pop\n      jump\t// out\n        /* \"#utility.yul\":466:562   */\n    tag_37:\n        /* \"#utility.yul\":503:510   */\n      0x00\n        /* \"#utility.yul\":532:556   */\n      tag_58\n        /* \"#utility.yul\":550:555   */\n      dup3\n        /* \"#utility.yul\":532:556   */\n      tag_36\n      jump\t// in\n    tag_58:\n        /* \"#utility.yul\":521:556   */\n      swap1\n      pop\n        /* \"#utility.yul\":466:562   */\n      swap2\n      swap1\n      pop\n      jump\t// out\n        /* \"#utility.yul\":568:690   */\n    tag_38:\n        /* \"#utility.yul\":641:665   */\n      tag_60\n        /* \"#utility.yul\":659:664   */\n      dup2\n        /* \"#utility.yul\":641:665   */\n      tag_37\n      jump\t// in\n    tag_60:\n        /* \"#utility.yul\":634:639   */\n      dup2\n        /* \"#utility.yul\":631:666   */\n      eq\n        /* \"#utility.yul\":621:684   */\n      tag_61\n      jumpi\n        /* \"#utility.yul\":680:681   */\n      0x00\n        /* \"#utility.yul\":677:678   */\n      0x00\n        /* \"#utility.yul\":670:682   */\n      revert\n        /* \"#utility.yul\":621:684   */\n    tag_61:\n        /* \"#utility.yul\":568:690   */\n      pop\n      jump\t// out\n        /* \"#utility.yul\":696:835   */\n    tag_39:\n        /* \"#utility.yul\":742:747   */\n      0x00\n        /* \"#utility.yul\":780:786   */\n      dup2\n        /* \"#utility.yul\":767:787   */\n      calldataload\n        /* \"#utility.yul\":758:787   */\n      swap1\n      pop\n        /* \"#utility.yul\":796:829   */\n      tag_63\n        /* \"#utility.yul\":823:828   */\n      dup2\n        /* \"#utility.yul\":796:829   */\n      tag_38\n      jump\t// in\n    tag_63:\n        /* \"#utility.yul\":696:835   */\n      swap3\n      swap2\n      pop\n      pop\n      jump\t// out\n        /* \"#utility.yul\":841:1170   */\n    tag_10:\n        /* \"#utility.yul\":900:906   */\n      0x00\n        /* \"#utility.yul\":949:951   */\n      0x20\n        /* \"#utility.yul\":937:946   */\n      dup3\n        /* \"#utility.yul\":928:935   */\n      dup5\n        /* \"#utility.yul\":924:947   */\n      sub\n        /* \"#utility.yul\":920:952   */\n      slt\n        /* \"#utility.yul\":917:1036   */\n      iszero\n      tag_65\n      jumpi\n        /* \"#utility.yul\":955:1034   */\n      tag_66\n      tag_34\n      jump\t// in\n    tag_66:\n        /* \"#utility.yul\":917:1036   */\n    tag_65:\n        /* \"#utility.yul\":1075:1076   */\n      0x00\n        /* \"#utility.yul\":1100:1153   */\n      tag_67\n        /* \"#utility.yul\":1145:1152   */\n      dup5\n        /* \"#utility.yul\":1136:1142   */\n      dup3\n        /* \"#utility.yul\":1125:1134   */\n      dup6\n        /* \"#utility.yul\":1121:1143   */\n      add\n        /* \"#utility.yul\":1100:1153   */\n      tag_39\n      jump\t// in\n    tag_67:\n        /* \"#utility.yul\":1090:1153   */\n      swap2\n      pop\n        /* \"#utility.yul\":1046:1163   */\n      pop\n        /* \"#utility.yul\":841:1170   */\n      swap3\n      swap2\n      pop\n      pop\n      jump\t// out\n        /* \"#utility.yul\":1176:1253   */\n    tag_40:\n        /* \"#utility.yul\":1213:1220   */\n      0x00\n        /* \"#utility.yul\":1242:1247   */\n      dup2\n        /* \"#utility.yul\":1231:1247   */\n      swap1\n      pop\n        /* \"#utility.yul\":1176:1253   */\n      swap2\n      swap1\n      pop\n      jump\t// out\n        /* \"#utility.yul\":1259:1377   */\n    tag_41:\n        /* \"#utility.yul\":1346:1370   */\n      tag_70\n        /* \"#utility.yul\":1364:1369   */\n      dup2\n        /* \"#utility.yul\":1346:1370   */\n      tag_40\n      jump\t// in\n    tag_70:\n        /* \"#utility.yul\":1341:1344   */\n      dup3\n        /* \"#utility.yul\":1334:1371   */\n      mstore\n        /* \"#utility.yul\":1259:1377   */\n      pop\n      pop\n      jump\t// out\n        /* \"#utility.yul\":1383:1605   */\n    tag_13:\n        /* \"#utility.yul\":1476:1480   */\n      0x00\n        /* \"#utility.yul\":1514:1516   */\n      0x20\n        /* \"#utility.yul\":1503:1512   */\n      dup3\n        /* \"#utility.yul\":1499:1517   */\n      add\n        /* \"#utility.yul\":1491:1517   */\n      swap1\n      pop\n        /* \"#utility.yul\":1527:1598   */\n      tag_72\n        /* \"#utility.yul\":1595:1596   */\n      0x00\n        /* \"#utility.yul\":1584:1593   */\n      dup4\n        /* \"#utility.yul\":1580:1597   */\n      add\n        /* \"#utility.yul\":1571:1577   */\n      dup5\n        /* \"#utility.yul\":1527:1598   */\n      tag_41\n      jump\t// in\n    tag_72:\n        /* \"#utility.yul\":1383:1605   */\n      swap3\n      swap2\n      pop\n      pop\n      jump\t// out\n        /* \"#utility.yul\":1611:1758   */\n    tag_42:\n        /* \"#utility.yul\":1712:1723   */\n      0x00\n        /* \"#utility.yul\":1749:1752   */\n      dup2\n        /* \"#utility.yul\":1734:1752   */\n      swap1\n      pop\n        /* \"#utility.yul\":1611:1758   */\n      swap3\n      swap2\n      pop\n      pop\n      jump\t// out\n        /* \"#utility.yul\":1764:1878   */\n    tag_43:\n      pop\n      jump\t// out\n        /* \"#utility.yul\":1884:2282   */\n    tag_44:\n        /* \"#utility.yul\":2043:2046   */\n      0x00\n        /* \"#utility.yul\":2064:2147   */\n      tag_76\n        /* \"#utility.yul\":2145:2146   */\n      0x00\n        /* \"#utility.yul\":2140:2143   */\n      dup4\n        /* \"#utility.yul\":2064:2147   */\n      tag_42\n      jump\t// in\n    tag_76:\n        /* \"#utility.yul\":2057:2147   */\n      swap2\n      pop\n        /* \"#utility.yul\":2156:2249   */\n      tag_77\n        /* \"#utility.yul\":2245:2248   */\n      dup3\n        /* \"#utility.yul\":2156:2249   */\n      tag_43\n      jump\t// in\n    tag_77:\n        /* \"#utility.yul\":2274:2275   */\n      0x00\n        /* \"#utility.yul\":2269:2272   */\n      dup3\n        /* \"#utility.yul\":2265:2276   */\n      add\n        /* \"#utility.yul\":2258:2276   */\n      swap1\n      pop\n        /* \"#utility.yul\":1884:2282   */\n      swap2\n      swap1\n      pop\n      jump\t// out\n        /* \"#utility.yul\":2288:2667   */\n    tag_18:\n        /* \"#utility.yul\":2472:2475   */\n      0x00\n        /* \"#utility.yul\":2494:2641   */\n      tag_79\n        /* \"#utility.yul\":2637:2640   */\n      dup3\n        /* \"#utility.yul\":2494:2641   */\n      tag_44\n      jump\t// in\n    tag_79:\n        /* \"#utility.yul\":2487:2641   */\n      swap2\n      pop\n        /* \"#utility.yul\":2658:2661   */\n      dup2\n        /* \"#utility.yul\":2651:2661   */\n      swap1\n      pop\n        /* \"#utility.yul\":2288:2667   */\n      swap2\n      swap1\n      pop\n      jump\t// out\n        /* \"#utility.yul\":2673:2842   */\n    tag_45:\n        /* \"#utility.yul\":2757:2768   */\n      0x00\n        /* \"#utility.yul\":2791:2797   */\n      dup3\n        /* \"#utility.yul\":2786:2789   */\n      dup3\n        /* \"#utility.yul\":2779:2798   */\n      mstore\n        /* \"#utility.yul\":2831:2835   */\n      0x20\n        /* \"#utility.yul\":2826:2829   */\n      dup3\n        /* \"#utility.yul\":2822:2836   */\n      add\n        /* \"#utility.yul\":2807:2836   */\n      swap1\n      pop\n        /* \"#utility.yul\":2673:2842   */\n      swap3\n      swap2\n      pop\n      pop\n      jump\t// out\n        /* \"#utility.yul\":2848:3005   */\n    tag_46:\n        /* \"#utility.yul\":2988:2997   */\n      0x4661696c75726500000000000000000000000000000000000000000000000000\n        /* \"#utility.yul\":2984:2985   */\n      0x00\n        /* \"#utility.yul\":2976:2982   */\n      dup3\n        /* \"#utility.yul\":2972:2986   */\n      add\n        /* \"#utility.yul\":2965:2998   */\n      mstore\n        /* \"#utility.yul\":2848:3005   */\n      pop\n      jump\t// out\n        /* \"#utility.yul\":3011:3376   */\n    tag_47:\n        /* \"#utility.yul\":3153:3156   */\n      0x00\n        /* \"#utility.yul\":3174:3240   */\n      tag_83\n        /* \"#utility.yul\":3238:3239   */\n      0x07\n        /* \"#utility.yul\":3233:3236   */\n      dup4\n        /* \"#utility.yul\":3174:3240   */\n      tag_45\n      jump\t// in\n    tag_83:\n        /* \"#utility.yul\":3167:3240   */\n      swap2\n      pop\n        /* \"#utility.yul\":3249:3342   */\n      tag_84\n        /* \"#utility.yul\":3338:3341   */\n      dup3\n        /* \"#utility.yul\":3249:3342   */\n      tag_46\n      jump\t// in\n    tag_84:\n        /* \"#utility.yul\":3367:3369   */\n      0x20\n        /* \"#utility.yul\":3362:3365   */\n      dup3\n        /* \"#utility.yul\":3358:3370   */\n      add\n        /* \"#utility.yul\":3351:3370   */\n      swap1\n      pop\n        /* \"#utility.yul\":3011:3376   */\n      swap2\n      swap1\n      pop\n      jump\t// out\n        /* \"#utility.yul\":3382:3801   */\n    tag_24:\n        /* \"#utility.yul\":3548:3552   */\n      0x00\n        /* \"#utility.yul\":3586:3588   */\n      0x20\n        /* \"#utility.yul\":3575:3584   */\n      dup3\n        /* \"#utility.yul\":3571:3589   */\n      add\n        /* \"#utility.yul\":3563:3589   */\n      swap1\n      pop\n        /* \"#utility.yul\":3635:3644   */\n      dup2\n        /* \"#utility.yul\":3629:3633   */\n      dup2\n        /* \"#utility.yul\":3625:3645   */\n      sub\n        /* \"#utility.yul\":3621:3622   */\n      0x00\n        /* \"#utility.yul\":3610:3619   */\n      dup4\n        /* \"#utility.yul\":3606:3623   */\n      add\n        /* \"#utility.yul\":3599:3646   */\n      mstore\n        /* \"#utility.yul\":3663:3794   */\n      tag_86\n        /* \"#utility.yul\":3789:3793   */\n      dup2\n        /* \"#utility.yul\":3663:3794   */\n      tag_47\n      jump\t// in\n    tag_86:\n        /* \"#utility.yul\":3655:3794   */\n      swap1\n      pop\n        /* \"#utility.yul\":3382:3801   */\n      swap2\n      swap1\n      pop\n      jump\t// out\n        /* \"#utility.yul\":3807:3985   */\n    tag_48:\n        /* \"#utility.yul\":3947:3977   */\n      0x53656e642041746c6561737420243520776f727468206f662045544800000000\n        /* \"#utility.yul\":3943:3944   */\n      0x00\n        /* \"#utility.yul\":3935:3941   */\n      dup3\n        /* \"#utility.yul\":3931:3945   */\n      add\n        /* \"#utility.yul\":3924:3978   */\n      mstore\n        /* \"#utility.yul\":3807:3985   */\n      pop\n      jump\t// out\n        /* \"#utility.yul\":3991:4357   */\n    tag_49:\n        /* \"#utility.yul\":4133:4136   */\n      0x00\n        /* \"#utility.yul\":4154:4221   */\n      tag_89\n        /* \"#utility.yul\":4218:4220   */\n      0x1c\n        /* \"#utility.yul\":4213:4216   */\n      dup4\n        /* \"#utility.yul\":4154:4221   */\n      tag_45\n      jump\t// in\n    tag_89:\n        /* \"#utility.yul\":4147:4221   */\n      swap2\n      pop\n        /* \"#utility.yul\":4230:4323   */\n      tag_90\n        /* \"#utility.yul\":4319:4322   */\n      dup3\n        /* \"#utility.yul\":4230:4323   */\n      tag_48\n      jump\t// in\n    tag_90:\n        /* \"#utility.yul\":4348:4350   */\n      0x20\n        /* \"#utility.yul\":4343:4346   */\n      dup3\n        /* \"#utility.yul\":4339:4351   */\n      add\n        /* \"#utility.yul\":4332:4351   */\n      swap1\n      pop\n        /* \"#utility.yul\":3991:4357   */\n      swap2\n      swap1\n      pop\n      jump\t// out\n        /* \"#utility.yul\":4363:4782   */\n    tag_28:\n        /* \"#utility.yul\":4529:4533   */\n      0x00\n        /* \"#utility.yul\":4567:4569   */\n      0x20\n        /* \"#utility.yul\":4556:4565   */\n      dup3\n        /* \"#utility.yul\":4552:4570   */\n      add\n        /* \"#utility.yul\":4544:4570   */\n      swap1\n      pop\n        /* \"#utility.yul\":4616:4625   */\n      dup2\n        /* \"#utility.yul\":4610:4614   */\n      dup2\n        /* \"#utility.yul\":4606:4626   */\n      sub\n        /* \"#utility.yul\":4602:4603   */\n      0x00\n        /* \"#utility.yul\":4591:4600   */\n      dup4\n        /* \"#utility.yul\":4587:4604   */\n      add\n        /* \"#utility.yul\":4580:4627   */\n      mstore\n        /* \"#utility.yul\":4644:4775   */\n      tag_92\n        /* \"#utility.yul\":4770:4774   */\n      dup2\n        /* \"#utility.yul\":4644:4775   */\n      tag_49\n      jump\t// in\n    tag_92:\n        /* \"#utility.yul\":4636:4775   */\n      swap1\n      pop\n        /* \"#utility.yul\":4363:4782   */\n      swap2\n      swap1\n      pop\n      jump\t// out\n        /* \"#utility.yul\":4788:4906   */\n    tag_50:\n        /* \"#utility.yul\":4875:4899   */\n      tag_94\n        /* \"#utility.yul\":4893:4898   */\n      dup2\n        /* \"#utility.yul\":4875:4899   */\n      tag_37\n      jump\t// in\n    tag_94:\n        /* \"#utility.yul\":4870:4873   */\n      dup3\n        /* \"#utility.yul\":4863:4900   */\n      mstore\n        /* \"#utility.yul\":4788:4906   */\n      pop\n      pop\n      jump\t// out\n        /* \"#utility.yul\":4912:5354   */\n    tag_30:\n        /* \"#utility.yul\":5061:5065   */\n      0x00\n        /* \"#utility.yul\":5099:5101   */\n      0x60\n        /* \"#utility.yul\":5088:5097   */\n      dup3\n        /* \"#utility.yul\":5084:5102   */\n      add\n        /* \"#utility.yul\":5076:5102   */\n      swap1\n      pop\n        /* \"#utility.yul\":5112:5183   */\n      tag_96\n        /* \"#utility.yul\":5180:5181   */\n      0x00\n        /* \"#utility.yul\":5169:5178   */\n      dup4\n        /* \"#utility.yul\":5165:5182   */\n      add\n        /* \"#utility.yul\":5156:5162   */\n      dup7\n        /* \"#utility.yul\":5112:5183   */\n      tag_50\n      jump\t// in\n    tag_96:\n        /* \"#utility.yul\":5193:5265   */\n      tag_97\n        /* \"#utility.yul\":5261:5263   */\n      0x20\n        /* \"#utility.yul\":5250:5259   */\n      dup4\n        /* \"#utility.yul\":5246:5264   */\n      add\n        /* \"#utility.yul\":5237:5243   */\n      dup6\n        /* \"#utility.yul\":5193:5265   */\n      tag_50\n      jump\t// in\n    tag_97:\n        /* \"#utility.yul\":5275:5347   */\n      tag_98\n        /* \"#utility.yul\":5343:5345   */\n      0x40\n        /* \"#utility.yul\":5332:5341   */\n      dup4\n        /* \"#utility.yul\":5328:5346   */\n      add\n        /* \"#utility.yul\":5319:5325   */\n      dup5\n        /* \"#utility.yul\":5275:5347   */\n      tag_41\n      jump\t// in\n    tag_98:\n        /* \"#utility.yul\":4912:5354   */\n      swap5\n      swap4\n      pop\n      pop\n      pop\n      pop\n      jump\t// out\n        /* \"#utility.yul\":5360:5540   */\n    tag_51:\n        /* \"#utility.yul\":5408:5485   */\n      0x4e487b7100000000000000000000000000000000000000000000000000000000\n        /* \"#utility.yul\":5405:5406   */\n      0x00\n        /* \"#utility.yul\":5398:5486   */\n      mstore\n        /* \"#utility.yul\":5505:5509   */\n      0x11\n        /* \"#utility.yul\":5502:5503   */\n      0x04\n        /* \"#utility.yul\":5495:5510   */\n      mstore\n        /* \"#utility.yul\":5529:5533   */\n      0x24\n        /* \"#utility.yul\":5526:5527   */\n      0x00\n        /* \"#utility.yul\":5519:5534   */\n      revert\n        /* \"#utility.yul\":5546:5737   */\n    tag_32:\n        /* \"#utility.yul\":5586:5589   */\n      0x00\n        /* \"#utility.yul\":5605:5625   */\n      tag_101\n        /* \"#utility.yul\":5623:5624   */\n      dup3\n        /* \"#utility.yul\":5605:5625   */\n      tag_40\n      jump\t// in\n    tag_101:\n        /* \"#utility.yul\":5600:5625   */\n      swap2\n      pop\n        /* \"#utility.yul\":5639:5659   */\n      tag_102\n        /* \"#utility.yul\":5657:5658   */\n      dup4\n        /* \"#utility.yul\":5639:5659   */\n      tag_40\n      jump\t// in\n    tag_102:\n        /* \"#utility.yul\":5634:5659   */\n      swap3\n      pop\n        /* \"#utility.yul\":5682:5683   */\n      dup3\n        /* \"#utility.yul\":5679:5680   */\n      dup3\n        /* \"#utility.yul\":5675:5684   */\n      add\n        /* \"#utility.yul\":5668:5684   */\n      swap1\n      pop\n        /* \"#utility.yul\":5703:5706   */\n      dup1\n        /* \"#utility.yul\":5700:5701   */\n      dup3\n        /* \"#utility.yul\":5697:5707   */\n      gt\n        /* \"#utility.yul\":5694:5730   */\n      iszero\n      tag_103\n      jumpi\n        /* \"#utility.yul\":5710:5728   */\n      tag_104\n      tag_51\n      jump\t// in\n    tag_104:\n        /* \"#utility.yul\":5694:5730   */\n    tag_103:\n        /* \"#utility.yul\":5546:5737   */\n      swap3\n      swap2\n      pop\n      pop\n      jump\t// out\n\n    auxdata: 0xa26469706673582212205226d9b5256e8ae0fd1fe174ac1f87246cd856793e85b7b6a8eb10f6971a114764736f6c634300081f0033\n}\n",
				"bytecode": {
					"linkReferences": {},
					"object": "6080604052348015600e575f5ffd5b5061055a8061001c5f395ff3fe608060405260043610610033575f3560e01c80633ccfd60b146100375780633e47d6f314610041578063b60d42881461007d575b5f5ffd5b61003f610087565b005b34801561004c575f5ffd5b5061006760048036038101906100629190610303565b6101b9565b6040516100749190610346565b60405180910390f35b6100856101cd565b005b5f5f5f3373ffffffffffffffffffffffffffffffffffffffff1673ffffffffffffffffffffffffffffffffffffffff1681526020019081526020015f205490505f3390505f8173ffffffffffffffffffffffffffffffffffffffff16836040516100f09061038c565b5f6040518083038185875af1925050503d805f811461012a576040519150601f19603f3d011682016040523d82523d5f602084013e61012f565b606091505b5050905080610173576040517f08c379a000000000000000000000000000000000000000000000000000000000815260040161016a906103fa565b60405180910390fd5b5f5f5f8473ffffffffffffffffffffffffffffffffffffffff1673ffffffffffffffffffffffffffffffffffffffff1681526020019081526020015f2081905550505050565b5f602052805f5260405f205f915090505481565b5f6005905080341015610215576040517f08c379a000000000000000000000000000000000000000000000000000000000815260040161020c90610462565b60405180910390fd5b7f874f886a60392abb180676546b433d61143fdc5753868148c3ec0edf699cda7e3330346040516102489392919061048f565b60405180910390a1345f5f3373ffffffffffffffffffffffffffffffffffffffff1673ffffffffffffffffffffffffffffffffffffffff1681526020019081526020015f205f82825461029b91906104f1565b9250508190555050565b5f5ffd5b5f73ffffffffffffffffffffffffffffffffffffffff82169050919050565b5f6102d2826102a9565b9050919050565b6102e2816102c8565b81146102ec575f5ffd5b50565b5f813590506102fd816102d9565b92915050565b5f60208284031215610318576103176102a5565b5b5f610325848285016102ef565b91505092915050565b5f819050919050565b6103408161032e565b82525050565b5f6020820190506103595f830184610337565b92915050565b5f81905092915050565b50565b5f6103775f8361035f565b915061038282610369565b5f82019050919050565b5f6103968261036c565b9150819050919050565b5f82825260208201905092915050565b7f4661696c757265000000000000000000000000000000000000000000000000005f82015250565b5f6103e46007836103a0565b91506103ef826103b0565b602082019050919050565b5f6020820190508181035f830152610411816103d8565b9050919050565b7f53656e642041746c6561737420243520776f727468206f6620455448000000005f82015250565b5f61044c601c836103a0565b915061045782610418565b602082019050919050565b5f6020820190508181035f83015261047981610440565b9050919050565b610489816102c8565b82525050565b5f6060820190506104a25f830186610480565b6104af6020830185610480565b6104bc6040830184610337565b949350505050565b7f4e487b71000000000000000000000000000000000000000000000000000000005f52601160045260245ffd5b5f6104fb8261032e565b91506105068361032e565b925082820190508082111561051e5761051d6104c4565b5b9291505056fea26469706673582212205226d9b5256e8ae0fd1fe174ac1f87246cd856793e85b7b6a8eb10f6971a114764736f6c634300081f0033",
					"opcodes": "PUSH1 0x80 PUSH1 0x40 MSTORE CALLVALUE DUP1 ISZERO PUSH1 0xE JUMPI PUSH0 PUSH0 REVERT JUMPDEST POP PUSH2 0x55A DUP1 PUSH2 0x1C PUSH0 CODECOPY PUSH0 RETURN INVALID PUSH1 0x80 PUSH1 0x40 MSTORE PUSH1 0x4 CALLDATASIZE LT PUSH2 0x33 JUMPI PUSH0 CALLDATALOAD PUSH1 0xE0 SHR DUP1 PUSH4 0x3CCFD60B EQ PUSH2 0x37 JUMPI DUP1 PUSH4 0x3E47D6F3 EQ PUSH2 0x41 JUMPI DUP1 PUSH4 0xB60D4288 EQ PUSH2 0x7D JUMPI JUMPDEST PUSH0 PUSH0 REVERT JUMPDEST PUSH2 0x3F PUSH2 0x87 JUMP JUMPDEST STOP JUMPDEST CALLVALUE DUP1 ISZERO PUSH2 0x4C JUMPI PUSH0 PUSH0 REVERT JUMPDEST POP PUSH2 0x67 PUSH1 0x4 DUP1 CALLDATASIZE SUB DUP2 ADD SWAP1 PUSH2 0x62 SWAP2 SWAP1 PUSH2 0x303 JUMP JUMPDEST PUSH2 0x1B9 JUMP JUMPDEST PUSH1 0x40 MLOAD PUSH2 0x74 SWAP2 SWAP1 PUSH2 0x346 JUMP JUMPDEST PUSH1 0x40 MLOAD DUP1 SWAP2 SUB SWAP1 RETURN JUMPDEST PUSH2 0x85 PUSH2 0x1CD JUMP JUMPDEST STOP JUMPDEST PUSH0 PUSH0 PUSH0 CALLER PUSH20 0xFFFFFFFFFFFFFFFFFFFFFFFFFFFFFFFFFFFFFFFF AND PUSH20 0xFFFFFFFFFFFFFFFFFFFFFFFFFFFFFFFFFFFFFFFF AND DUP2 MSTORE PUSH1 0x20 ADD SWAP1 DUP2 MSTORE PUSH1 0x20 ADD PUSH0 KECCAK256 SLOAD SWAP1 POP PUSH0 CALLER SWAP1 POP PUSH0 DUP2 PUSH20 0xFFFFFFFFFFFFFFFFFFFFFFFFFFFFFFFFFFFFFFFF AND DUP4 PUSH1 0x40 MLOAD PUSH2 0xF0 SWAP1 PUSH2 0x38C JUMP JUMPDEST PUSH0 PUSH1 0x40 MLOAD DUP1 DUP4 SUB DUP2 DUP6 DUP8 GAS CALL SWAP3 POP POP POP RETURNDATASIZE DUP1 PUSH0 DUP2 EQ PUSH2 0x12A JUMPI PUSH1 0x40 MLOAD SWAP2 POP PUSH1 0x1F NOT PUSH1 0x3F RETURNDATASIZE ADD AND DUP3 ADD PUSH1 0x40 MSTORE RETURNDATASIZE DUP3 MSTORE RETURNDATASIZE PUSH0 PUSH1 0x20 DUP5 ADD RETURNDATACOPY PUSH2 0x12F JUMP JUMPDEST PUSH1 0x60 SWAP2 POP JUMPDEST POP POP SWAP1 POP DUP1 PUSH2 0x173 JUMPI PUSH1 0x40 MLOAD PUSH32 0x8C379A000000000000000000000000000000000000000000000000000000000 DUP2 MSTORE PUSH1 0x4 ADD PUSH2 0x16A SWAP1 PUSH2 0x3FA JUMP JUMPDEST PUSH1 0x40 MLOAD DUP1 SWAP2 SUB SWAP1 REVERT JUMPDEST PUSH0 PUSH0 PUSH0 DUP5 PUSH20 0xFFFFFFFFFFFFFFFFFFFFFFFFFFFFFFFFFFFFFFFF AND PUSH20 0xFFFFFFFFFFFFFFFFFFFFFFFFFFFFFFFFFFFFFFFF AND DUP2 MSTORE PUSH1 0x20 ADD SWAP1 DUP2 MSTORE PUSH1 0x20 ADD PUSH0 KECCAK256 DUP2 SWAP1 SSTORE POP POP POP POP JUMP JUMPDEST PUSH0 PUSH1 0x20 MSTORE DUP1 PUSH0 MSTORE PUSH1 0x40 PUSH0 KECCAK256 PUSH0 SWAP2 POP SWAP1 POP SLOAD DUP2 JUMP JUMPDEST PUSH0 PUSH1 0x5 SWAP1 POP DUP1 CALLVALUE LT ISZERO PUSH2 0x215 JUMPI PUSH1 0x40 MLOAD PUSH32 0x8C379A000000000000000000000000000000000000000000000000000000000 DUP2 MSTORE PUSH1 0x4 ADD PUSH2 0x20C SWAP1 PUSH2 0x462 JUMP JUMPDEST PUSH1 0x40 MLOAD DUP1 SWAP2 SUB SWAP1 REVERT JUMPDEST PUSH32 0x874F886A60392ABB180676546B433D61143FDC5753868148C3EC0EDF699CDA7E CALLER ADDRESS CALLVALUE PUSH1 0x40 MLOAD PUSH2 0x248 SWAP4 SWAP3 SWAP2 SWAP1 PUSH2 0x48F JUMP JUMPDEST PUSH1 0x40 MLOAD DUP1 SWAP2 SUB SWAP1 LOG1 CALLVALUE PUSH0 PUSH0 CALLER PUSH20 0xFFFFFFFFFFFFFFFFFFFFFFFFFFFFFFFFFFFFFFFF AND PUSH20 0xFFFFFFFFFFFFFFFFFFFFFFFFFFFFFFFFFFFFFFFF AND DUP2 MSTORE PUSH1 0x20 ADD SWAP1 DUP2 MSTORE PUSH1 0x20 ADD PUSH0 KECCAK256 PUSH0 DUP3 DUP3 SLOAD PUSH2 0x29B SWAP2 SWAP1 PUSH2 0x4F1 JUMP JUMPDEST SWAP3 POP POP DUP2 SWAP1 SSTORE POP POP JUMP JUMPDEST PUSH0 PUSH0 REVERT JUMPDEST PUSH0 PUSH20 0xFFFFFFFFFFFFFFFFFFFFFFFFFFFFFFFFFFFFFFFF DUP3 AND SWAP1 POP SWAP2 SWAP1 POP JUMP JUMPDEST PUSH0 PUSH2 0x2D2 DUP3 PUSH2 0x2A9 JUMP JUMPDEST SWAP1 POP SWAP2 SWAP1 POP JUMP JUMPDEST PUSH2 0x2E2 DUP2 PUSH2 0x2C8 JUMP JUMPDEST DUP2 EQ PUSH2 0x2EC JUMPI PUSH0 PUSH0 REVERT JUMPDEST POP JUMP JUMPDEST PUSH0 DUP2 CALLDATALOAD SWAP1 POP PUSH2 0x2FD DUP2 PUSH2 0x2D9 JUMP JUMPDEST SWAP3 SWAP2 POP POP JUMP JUMPDEST PUSH0 PUSH1 0x20 DUP3 DUP5 SUB SLT ISZERO PUSH2 0x318 JUMPI PUSH2 0x317 PUSH2 0x2A5 JUMP JUMPDEST JUMPDEST PUSH0 PUSH2 0x325 DUP5 DUP3 DUP6 ADD PUSH2 0x2EF JUMP JUMPDEST SWAP2 POP POP SWAP3 SWAP2 POP POP JUMP JUMPDEST PUSH0 DUP2 SWAP1 POP SWAP2 SWAP1 POP JUMP JUMPDEST PUSH2 0x340 DUP2 PUSH2 0x32E JUMP JUMPDEST DUP3 MSTORE POP POP JUMP JUMPDEST PUSH0 PUSH1 0x20 DUP3 ADD SWAP1 POP PUSH2 0x359 PUSH0 DUP4 ADD DUP5 PUSH2 0x337 JUMP JUMPDEST SWAP3 SWAP2 POP POP JUMP JUMPDEST PUSH0 DUP2 SWAP1 POP SWAP3 SWAP2 POP POP JUMP JUMPDEST POP JUMP JUMPDEST PUSH0 PUSH2 0x377 PUSH0 DUP4 PUSH2 0x35F JUMP JUMPDEST SWAP2 POP PUSH2 0x382 DUP3 PUSH2 0x369 JUMP JUMPDEST PUSH0 DUP3 ADD SWAP1 POP SWAP2 SWAP1 POP JUMP JUMPDEST PUSH0 PUSH2 0x396 DUP3 PUSH2 0x36C JUMP JUMPDEST SWAP2 POP DUP2 SWAP1 POP SWAP2 SWAP1 POP JUMP JUMPDEST PUSH0 DUP3 DUP3 MSTORE PUSH1 0x20 DUP3 ADD SWAP1 POP SWAP3 SWAP2 POP POP JUMP JUMPDEST PUSH32 0x4661696C75726500000000000000000000000000000000000000000000000000 PUSH0 DUP3 ADD MSTORE POP JUMP JUMPDEST PUSH0 PUSH2 0x3E4 PUSH1 0x7 DUP4 PUSH2 0x3A0 JUMP JUMPDEST SWAP2 POP PUSH2 0x3EF DUP3 PUSH2 0x3B0 JUMP JUMPDEST PUSH1 0x20 DUP3 ADD SWAP1 POP SWAP2 SWAP1 POP JUMP JUMPDEST PUSH0 PUSH1 0x20 DUP3 ADD SWAP1 POP DUP2 DUP2 SUB PUSH0 DUP4 ADD MSTORE PUSH2 0x411 DUP2 PUSH2 0x3D8 JUMP JUMPDEST SWAP1 POP SWAP2 SWAP1 POP JUMP JUMPDEST PUSH32 0x53656E642041746C6561737420243520776F727468206F662045544800000000 PUSH0 DUP3 ADD MSTORE POP JUMP JUMPDEST PUSH0 PUSH2 0x44C PUSH1 0x1C DUP4 PUSH2 0x3A0 JUMP JUMPDEST SWAP2 POP PUSH2 0x457 DUP3 PUSH2 0x418 JUMP JUMPDEST PUSH1 0x20 DUP3 ADD SWAP1 POP SWAP2 SWAP1 POP JUMP JUMPDEST PUSH0 PUSH1 0x20 DUP3 ADD SWAP1 POP DUP2 DUP2 SUB PUSH0 DUP4 ADD MSTORE PUSH2 0x479 DUP2 PUSH2 0x440 JUMP JUMPDEST SWAP1 POP SWAP2 SWAP1 POP JUMP JUMPDEST PUSH2 0x489 DUP2 PUSH2 0x2C8 JUMP JUMPDEST DUP3 MSTORE POP POP JUMP JUMPDEST PUSH0 PUSH1 0x60 DUP3 ADD SWAP1 POP PUSH2 0x4A2 PUSH0 DUP4 ADD DUP7 PUSH2 0x480 JUMP JUMPDEST PUSH2 0x4AF PUSH1 0x20 DUP4 ADD DUP6 PUSH2 0x480 JUMP JUMPDEST PUSH2 0x4BC PUSH1 0x40 DUP4 ADD DUP5 PUSH2 0x337 JUMP JUMPDEST SWAP5 SWAP4 POP POP POP POP JUMP JUMPDEST PUSH32 0x4E487B7100000000000000000000000000000000000000000000000000000000 PUSH0 MSTORE PUSH1 0x11 PUSH1 0x4 MSTORE PUSH1 0x24 PUSH0 REVERT JUMPDEST PUSH0 PUSH2 0x4FB DUP3 PUSH2 0x32E JUMP JUMPDEST SWAP2 POP PUSH2 0x506 DUP4 PUSH2 0x32E JUMP JUMPDEST SWAP3 POP DUP3 DUP3 ADD SWAP1 POP DUP1 DUP3 GT ISZERO PUSH2 0x51E JUMPI PUSH2 0x51D PUSH2 0x4C4 JUMP JUMPDEST JUMPDEST SWAP3 SWAP2 POP POP JUMP INVALID LOG2 PUSH5 0x6970667358 0x22 SLT KECCAK256 MSTORE 0x26 0xD9 0xB5 0x25 PUSH15 0x8AE0FD1FE174AC1F87246CD856793E DUP6 0xB7 0xB6 0xA8 0xEB LT 0xF6 SWAP8 BYTE GT SELFBALANCE PUSH5 0x736F6C6343 STOP ADDMOD 0x1F STOP CALLER "
				},
				"gasEstimates": {
					"creation": {
						"codeDepositCost": "274000",
						"executionCost": "310",
						"totalCost": "274310"
					},
					"external": {
						"addressToAmountFunded(address)": "2801",
						"fund()": "infinite",
						"withdraw()": "infinite"
					}
				},
				"methodIdentifiers": {
					"addressToAmountFunded(address)": "3e47d6f3",
					"fund()": "b60d4288",
					"withdraw()": "3ccfd60b"
				}
			},
			"storageLayout": {
				"storage": [
					{
						"astId": 5,
						"contract": "contracts/Revise/FundMe.sol:FundMe",
						"label": "addressToAmountFunded",
						"offset": 0,
						"slot": "0",
						"type": "t_mapping(t_address,t_uint256)"
					}
				],
				"types": {
					"t_address": {
						"encoding": "inplace",
						"label": "address",
						"numberOfBytes": "20"
					},
					"t_mapping(t_address,t_uint256)": {
						"encoding": "mapping",
						"key": "t_address",
						"label": "mapping(address => uint256)",
						"numberOfBytes": "32",
						"value": "t_uint256"
					},
					"t_uint256": {
						"encoding": "inplace",
						"label": "uint256",
						"numberOfBytes": "32"
					}
				}
			},
			"userdoc": {
				"kind": "user",
				"methods": {},
				"version": 1
			}
		}
	}
}