{
	"contracts/Revise/FundMe.sol": {
		"FundMe": {
			"abi": [
				{
					"anonymous": false,
					"inputs": [
						{
							"indexed": false,
							"internalType": "address",
							"name": "from",
							"type": "address"
						},
						{
							"indexed": false,
							"internalType": "address",
							"name": "to",
							"type": "address"
						},
						{
							"indexed": false,
							"internalType": "string",
							"name": "successString",
							"type": "string"
						},
						{
							"indexed": false,
							"internalType": "uint256",
							"name": "value",
							"type": "uint256"
						}
					],
					"name": "Success",
					"type": "event"
				},
				{
					"anonymous": false,
					"inputs": [
						{
							"indexed": false,
							"internalType": "address",
							"name": "from",
							"type": "address"
						},
						{
							"indexed": false,
							"internalType": "address",
							"name": "to",
							"type": "address"
						},
						{
							"indexed": false,
							"internalType": "string",
							"name": "successString",
							"type": "string"
						},
						{
							"indexed": false,
							"internalType": "uint256",
							"name": "value",
							"type": "uint256"
						}
					],
					"name": "WithdrawlSuccess",
					"type": "event"
				},
				{
					"inputs": [],
					"name": "fund",
					"outputs": [],
					"stateMutability": "payable",
					"type": "function"
				},
				{
					"inputs": [
						{
							"internalType": "uint256",
							"name": "withdAmt",
							"type": "uint256"
						}
					],
					"name": "withdraw",
					"outputs": [],
					"stateMutability": "nonpayable",
					"type": "function"
				}
			],
			"devdoc": {
				"kind": "dev",
				"methods": {},
				"version": 1
			},
			"evm": {
				"assembly": "    /* \"contracts/Revise/FundMe.sol\":119:1313  contract FundMe{... */\n  mstore(0x40, 0x80)\n    /* \"contracts/Revise/FundMe.sol\":263:320  string internal successString = \"Transaction successfull\" */\n  mload(0x40)\n  dup1\n  0x40\n  add\n  0x40\n  mstore\n  dup1\n  0x17\n  dup2\n  mstore\n  0x20\n  add\n  0x5472616e73616374696f6e207375636365737366756c6c000000000000000000\n  dup2\n  mstore\n  pop\n  0x01\n  swap1\n  dup2\n  tag_1\n  swap2\n  swap1\n  tag_2\n  jump\t// in\ntag_1:\n  pop\n    /* \"contracts/Revise/FundMe.sol\":531:535  5e18 */\n  0x4563918244f40000\n    /* \"contracts/Revise/FundMe.sol\":504:535  uint256 internal min_usd = 5e18 */\n  0x02\n  sstore\n    /* \"contracts/Revise/FundMe.sol\":119:1313  contract FundMe{... */\n  callvalue\n  dup1\n  iszero\n  tag_3\n  jumpi\n  revert(0x00, 0x00)\ntag_3:\n  pop\n  jump(tag_4)\n    /* \"#utility.yul\":7:106   */\ntag_5:\n    /* \"#utility.yul\":59:65   */\n  0x00\n    /* \"#utility.yul\":93:98   */\n  dup2\n    /* \"#utility.yul\":87:99   */\n  mload\n    /* \"#utility.yul\":77:99   */\n  swap1\n  pop\n    /* \"#utility.yul\":7:106   */\n  swap2\n  swap1\n  pop\n  jump\t// out\n    /* \"#utility.yul\":112:292   */\ntag_6:\n    /* \"#utility.yul\":160:237   */\n  0x4e487b7100000000000000000000000000000000000000000000000000000000\n    /* \"#utility.yul\":157:158   */\n  0x00\n    /* \"#utility.yul\":150:238   */\n  mstore\n    /* \"#utility.yul\":257:261   */\n  0x41\n    /* \"#utility.yul\":254:255   */\n  0x04\n    /* \"#utility.yul\":247:262   */\n  mstore\n    /* \"#utility.yul\":281:285   */\n  0x24\n    /* \"#utility.yul\":278:279   */\n  0x00\n    /* \"#utility.yul\":271:286   */\n  revert\n    /* \"#utility.yul\":298:478   */\ntag_7:\n    /* \"#utility.yul\":346:423   */\n  0x4e487b7100000000000000000000000000000000000000000000000000000000\n    /* \"#utility.yul\":343:344   */\n  0x00\n    /* \"#utility.yul\":336:424   */\n  mstore\n    /* \"#utility.yul\":443:447   */\n  0x22\n    /* \"#utility.yul\":440:441   */\n  0x04\n    /* \"#utility.yul\":433:448   */\n  mstore\n    /* \"#utility.yul\":467:471   */\n  0x24\n    /* \"#utility.yul\":464:465   */\n  0x00\n    /* \"#utility.yul\":457:472   */\n  revert\n    /* \"#utility.yul\":484:804   */\ntag_8:\n    /* \"#utility.yul\":528:534   */\n  0x00\n    /* \"#utility.yul\":565:566   */\n  0x02\n    /* \"#utility.yul\":559:563   */\n  dup3\n    /* \"#utility.yul\":555:567   */\n  div\n    /* \"#utility.yul\":545:567   */\n  swap1\n  pop\n    /* \"#utility.yul\":612:613   */\n  0x01\n    /* \"#utility.yul\":606:610   */\n  dup3\n    /* \"#utility.yul\":602:614   */\n  and\n    /* \"#utility.yul\":633:651   */\n  dup1\n    /* \"#utility.yul\":623:704   */\n  tag_30\n  jumpi\n    /* \"#utility.yul\":689:693   */\n  0x7f\n    /* \"#utility.yul\":681:687   */\n  dup3\n    /* \"#utility.yul\":677:694   */\n  and\n    /* \"#utility.yul\":667:694   */\n  swap2\n  pop\n    /* \"#utility.yul\":623:704   */\ntag_30:\n    /* \"#utility.yul\":751:753   */\n  0x20\n    /* \"#utility.yul\":743:749   */\n  dup3\n    /* \"#utility.yul\":740:754   */\n  lt\n    /* \"#utility.yul\":720:738   */\n  dup2\n    /* \"#utility.yul\":717:755   */\n  sub\n    /* \"#utility.yul\":714:798   */\n  tag_31\n  jumpi\n    /* \"#utility.yul\":770:788   */\n  tag_32\n  tag_7\n  jump\t// in\ntag_32:\n    /* \"#utility.yul\":714:798   */\ntag_31:\n    /* \"#utility.yul\":535:804   */\n  pop\n    /* \"#utility.yul\":484:804   */\n  swap2\n  swap1\n  pop\n  jump\t// out\n    /* \"#utility.yul\":810:951   */\ntag_9:\n    /* \"#utility.yul\":859:863   */\n  0x00\n    /* \"#utility.yul\":882:885   */\n  dup2\n    /* \"#utility.yul\":874:885   */\n  swap1\n  pop\n    /* \"#utility.yul\":905:908   */\n  dup2\n    /* \"#utility.yul\":902:903   */\n  0x00\n    /* \"#utility.yul\":895:909   */\n  mstore\n    /* \"#utility.yul\":939:943   */\n  0x20\n    /* \"#utility.yul\":936:937   */\n  0x00\n    /* \"#utility.yul\":926:944   */\n  keccak256\n    /* \"#utility.yul\":918:944   */\n  swap1\n  pop\n    /* \"#utility.yul\":810:951   */\n  swap2\n  swap1\n  pop\n  jump\t// out\n    /* \"#utility.yul\":957:1050   */\ntag_10:\n    /* \"#utility.yul\":994:1000   */\n  0x00\n    /* \"#utility.yul\":1041:1043   */\n  0x20\n    /* \"#utility.yul\":1036:1038   */\n  0x1f\n    /* \"#utility.yul\":1029:1034   */\n  dup4\n    /* \"#utility.yul\":1025:1039   */\n  add\n    /* \"#utility.yul\":1021:1044   */\n  div\n    /* \"#utility.yul\":1011:1044   */\n  swap1\n  pop\n    /* \"#utility.yul\":957:1050   */\n  swap2\n  swap1\n  pop\n  jump\t// out\n    /* \"#utility.yul\":1056:1163   */\ntag_11:\n    /* \"#utility.yul\":1100:1108   */\n  0x00\n    /* \"#utility.yul\":1150:1155   */\n  dup3\n    /* \"#utility.yul\":1144:1148   */\n  dup3\n    /* \"#utility.yul\":1140:1156   */\n  shl\n    /* \"#utility.yul\":1119:1156   */\n  swap1\n  pop\n    /* \"#utility.yul\":1056:1163   */\n  swap3\n  swap2\n  pop\n  pop\n  jump\t// out\n    /* \"#utility.yul\":1169:1562   */\ntag_12:\n    /* \"#utility.yul\":1238:1244   */\n  0x00\n    /* \"#utility.yul\":1288:1289   */\n  0x08\n    /* \"#utility.yul\":1276:1286   */\n  dup4\n    /* \"#utility.yul\":1272:1290   */\n  mul\n    /* \"#utility.yul\":1311:1408   */\n  tag_37\n    /* \"#utility.yul\":1341:1407   */\n  0xffffffffffffffffffffffffffffffffffffffffffffffffffffffffffffffff\n    /* \"#utility.yul\":1330:1339   */\n  dup3\n    /* \"#utility.yul\":1311:1408   */\n  tag_11\n  jump\t// in\ntag_37:\n    /* \"#utility.yul\":1429:1468   */\n  tag_38\n    /* \"#utility.yul\":1459:1467   */\n  dup7\n    /* \"#utility.yul\":1448:1457   */\n  dup4\n    /* \"#utility.yul\":1429:1468   */\n  tag_11\n  jump\t// in\ntag_38:\n    /* \"#utility.yul\":1417:1468   */\n  swap6\n  pop\n    /* \"#utility.yul\":1501:1505   */\n  dup1\n    /* \"#utility.yul\":1497:1506   */\n  not\n    /* \"#utility.yul\":1490:1495   */\n  dup5\n    /* \"#utility.yul\":1486:1507   */\n  and\n    /* \"#utility.yul\":1477:1507   */\n  swap4\n  pop\n    /* \"#utility.yul\":1550:1554   */\n  dup1\n    /* \"#utility.yul\":1540:1548   */\n  dup7\n    /* \"#utility.yul\":1536:1555   */\n  and\n    /* \"#utility.yul\":1529:1534   */\n  dup5\n    /* \"#utility.yul\":1526:1556   */\n  or\n    /* \"#utility.yul\":1516:1556   */\n  swap3\n  pop\n    /* \"#utility.yul\":1245:1562   */\n  pop\n  pop\n    /* \"#utility.yul\":1169:1562   */\n  swap4\n  swap3\n  pop\n  pop\n  pop\n  jump\t// out\n    /* \"#utility.yul\":1568:1645   */\ntag_13:\n    /* \"#utility.yul\":1605:1612   */\n  0x00\n    /* \"#utility.yul\":1634:1639   */\n  dup2\n    /* \"#utility.yul\":1623:1639   */\n  swap1\n  pop\n    /* \"#utility.yul\":1568:1645   */\n  swap2\n  swap1\n  pop\n  jump\t// out\n    /* \"#utility.yul\":1651:1711   */\ntag_14:\n    /* \"#utility.yul\":1679:1682   */\n  0x00\n    /* \"#utility.yul\":1700:1705   */\n  dup2\n    /* \"#utility.yul\":1693:1705   */\n  swap1\n  pop\n    /* \"#utility.yul\":1651:1711   */\n  swap2\n  swap1\n  pop\n  jump\t// out\n    /* \"#utility.yul\":1717:1859   */\ntag_15:\n    /* \"#utility.yul\":1767:1776   */\n  0x00\n    /* \"#utility.yul\":1800:1853   */\n  tag_42\n    /* \"#utility.yul\":1818:1852   */\n  tag_43\n    /* \"#utility.yul\":1827:1851   */\n  tag_44\n    /* \"#utility.yul\":1845:1850   */\n  dup5\n    /* \"#utility.yul\":1827:1851   */\n  tag_13\n  jump\t// in\ntag_44:\n    /* \"#utility.yul\":1818:1852   */\n  tag_14\n  jump\t// in\ntag_43:\n    /* \"#utility.yul\":1800:1853   */\n  tag_13\n  jump\t// in\ntag_42:\n    /* \"#utility.yul\":1787:1853   */\n  swap1\n  pop\n    /* \"#utility.yul\":1717:1859   */\n  swap2\n  swap1\n  pop\n  jump\t// out\n    /* \"#utility.yul\":1865:1940   */\ntag_16:\n    /* \"#utility.yul\":1908:1911   */\n  0x00\n    /* \"#utility.yul\":1929:1934   */\n  dup2\n    /* \"#utility.yul\":1922:1934   */\n  swap1\n  pop\n    /* \"#utility.yul\":1865:1940   */\n  swap2\n  swap1\n  pop\n  jump\t// out\n    /* \"#utility.yul\":1946:2215   */\ntag_17:\n    /* \"#utility.yul\":2056:2095   */\n  tag_47\n    /* \"#utility.yul\":2087:2094   */\n  dup4\n    /* \"#utility.yul\":2056:2095   */\n  tag_15\n  jump\t// in\ntag_47:\n    /* \"#utility.yul\":2117:2208   */\n  tag_48\n    /* \"#utility.yul\":2166:2207   */\n  tag_49\n    /* \"#utility.yul\":2190:2206   */\n  dup3\n    /* \"#utility.yul\":2166:2207   */\n  tag_16\n  jump\t// in\ntag_49:\n    /* \"#utility.yul\":2158:2164   */\n  dup5\n    /* \"#utility.yul\":2151:2155   */\n  dup5\n    /* \"#utility.yul\":2145:2156   */\n  sload\n    /* \"#utility.yul\":2117:2208   */\n  tag_12\n  jump\t// in\ntag_48:\n    /* \"#utility.yul\":2111:2115   */\n  dup3\n    /* \"#utility.yul\":2104:2209   */\n  sstore\n    /* \"#utility.yul\":2022:2215   */\n  pop\n    /* \"#utility.yul\":1946:2215   */\n  pop\n  pop\n  pop\n  jump\t// out\n    /* \"#utility.yul\":2221:2294   */\ntag_18:\n    /* \"#utility.yul\":2266:2269   */\n  0x00\n    /* \"#utility.yul\":2287:2288   */\n  0x00\n    /* \"#utility.yul\":2280:2288   */\n  swap1\n  pop\n    /* \"#utility.yul\":2221:2294   */\n  swap1\n  jump\t// out\n    /* \"#utility.yul\":2300:2489   */\ntag_19:\n    /* \"#utility.yul\":2377:2409   */\n  tag_52\n  tag_18\n  jump\t// in\ntag_52:\n    /* \"#utility.yul\":2418:2483   */\n  tag_53\n    /* \"#utility.yul\":2476:2482   */\n  dup2\n    /* \"#utility.yul\":2468:2474   */\n  dup5\n    /* \"#utility.yul\":2462:2466   */\n  dup5\n    /* \"#utility.yul\":2418:2483   */\n  tag_17\n  jump\t// in\ntag_53:\n    /* \"#utility.yul\":2353:2489   */\n  pop\n    /* \"#utility.yul\":2300:2489   */\n  pop\n  pop\n  jump\t// out\n    /* \"#utility.yul\":2495:2681   */\ntag_20:\n    /* \"#utility.yul\":2555:2675   */\ntag_55:\n    /* \"#utility.yul\":2572:2575   */\n  dup2\n    /* \"#utility.yul\":2565:2570   */\n  dup2\n    /* \"#utility.yul\":2562:2576   */\n  lt\n    /* \"#utility.yul\":2555:2675   */\n  iszero\n  tag_57\n  jumpi\n    /* \"#utility.yul\":2626:2665   */\n  tag_58\n    /* \"#utility.yul\":2663:2664   */\n  0x00\n    /* \"#utility.yul\":2656:2661   */\n  dup3\n    /* \"#utility.yul\":2626:2665   */\n  tag_19\n  jump\t// in\ntag_58:\n    /* \"#utility.yul\":2599:2600   */\n  0x01\n    /* \"#utility.yul\":2592:2597   */\n  dup2\n    /* \"#utility.yul\":2588:2601   */\n  add\n    /* \"#utility.yul\":2579:2601   */\n  swap1\n  pop\n    /* \"#utility.yul\":2555:2675   */\n  jump(tag_55)\ntag_57:\n    /* \"#utility.yul\":2495:2681   */\n  pop\n  pop\n  jump\t// out\n    /* \"#utility.yul\":2687:3230   */\ntag_21:\n    /* \"#utility.yul\":2788:2790   */\n  0x1f\n    /* \"#utility.yul\":2783:2786   */\n  dup3\n    /* \"#utility.yul\":2780:2791   */\n  gt\n    /* \"#utility.yul\":2777:3223   */\n  iszero\n  tag_60\n  jumpi\n    /* \"#utility.yul\":2822:2860   */\n  tag_61\n    /* \"#utility.yul\":2854:2859   */\n  dup2\n    /* \"#utility.yul\":2822:2860   */\n  tag_9\n  jump\t// in\ntag_61:\n    /* \"#utility.yul\":2906:2935   */\n  tag_62\n    /* \"#utility.yul\":2924:2934   */\n  dup5\n    /* \"#utility.yul\":2906:2935   */\n  tag_10\n  jump\t// in\ntag_62:\n    /* \"#utility.yul\":2896:2904   */\n  dup2\n    /* \"#utility.yul\":2892:2936   */\n  add\n    /* \"#utility.yul\":3089:3091   */\n  0x20\n    /* \"#utility.yul\":3077:3087   */\n  dup6\n    /* \"#utility.yul\":3074:3092   */\n  lt\n    /* \"#utility.yul\":3071:3120   */\n  iszero\n  tag_63\n  jumpi\n    /* \"#utility.yul\":3110:3118   */\n  dup2\n    /* \"#utility.yul\":3095:3118   */\n  swap1\n  pop\n    /* \"#utility.yul\":3071:3120   */\ntag_63:\n    /* \"#utility.yul\":3133:3213   */\n  tag_64\n    /* \"#utility.yul\":3189:3211   */\n  tag_65\n    /* \"#utility.yul\":3207:3210   */\n  dup6\n    /* \"#utility.yul\":3189:3211   */\n  tag_10\n  jump\t// in\ntag_65:\n    /* \"#utility.yul\":3179:3187   */\n  dup4\n    /* \"#utility.yul\":3175:3212   */\n  add\n    /* \"#utility.yul\":3162:3173   */\n  dup3\n    /* \"#utility.yul\":3133:3213   */\n  tag_20\n  jump\t// in\ntag_64:\n    /* \"#utility.yul\":2792:3223   */\n  pop\n  pop\n    /* \"#utility.yul\":2777:3223   */\ntag_60:\n    /* \"#utility.yul\":2687:3230   */\n  pop\n  pop\n  pop\n  jump\t// out\n    /* \"#utility.yul\":3236:3353   */\ntag_22:\n    /* \"#utility.yul\":3290:3298   */\n  0x00\n    /* \"#utility.yul\":3340:3345   */\n  dup3\n    /* \"#utility.yul\":3334:3338   */\n  dup3\n    /* \"#utility.yul\":3330:3346   */\n  shr\n    /* \"#utility.yul\":3309:3346   */\n  swap1\n  pop\n    /* \"#utility.yul\":3236:3353   */\n  swap3\n  swap2\n  pop\n  pop\n  jump\t// out\n    /* \"#utility.yul\":3359:3528   */\ntag_23:\n    /* \"#utility.yul\":3403:3409   */\n  0x00\n    /* \"#utility.yul\":3436:3487   */\n  tag_68\n    /* \"#utility.yul\":3484:3485   */\n  0x00\n    /* \"#utility.yul\":3480:3486   */\n  not\n    /* \"#utility.yul\":3472:3477   */\n  dup5\n    /* \"#utility.yul\":3469:3470   */\n  0x08\n    /* \"#utility.yul\":3465:3478   */\n  mul\n    /* \"#utility.yul\":3436:3487   */\n  tag_22\n  jump\t// in\ntag_68:\n    /* \"#utility.yul\":3432:3488   */\n  not\n    /* \"#utility.yul\":3517:3521   */\n  dup1\n    /* \"#utility.yul\":3511:3515   */\n  dup4\n    /* \"#utility.yul\":3507:3522   */\n  and\n    /* \"#utility.yul\":3497:3522   */\n  swap2\n  pop\n    /* \"#utility.yul\":3410:3528   */\n  pop\n    /* \"#utility.yul\":3359:3528   */\n  swap3\n  swap2\n  pop\n  pop\n  jump\t// out\n    /* \"#utility.yul\":3533:3828   */\ntag_24:\n    /* \"#utility.yul\":3609:3613   */\n  0x00\n    /* \"#utility.yul\":3755:3784   */\n  tag_70\n    /* \"#utility.yul\":3780:3783   */\n  dup4\n    /* \"#utility.yul\":3774:3778   */\n  dup4\n    /* \"#utility.yul\":3755:3784   */\n  tag_23\n  jump\t// in\ntag_70:\n    /* \"#utility.yul\":3747:3784   */\n  swap2\n  pop\n    /* \"#utility.yul\":3817:3820   */\n  dup3\n    /* \"#utility.yul\":3814:3815   */\n  0x02\n    /* \"#utility.yul\":3810:3821   */\n  mul\n    /* \"#utility.yul\":3804:3808   */\n  dup3\n    /* \"#utility.yul\":3801:3822   */\n  or\n    /* \"#utility.yul\":3793:3822   */\n  swap1\n  pop\n    /* \"#utility.yul\":3533:3828   */\n  swap3\n  swap2\n  pop\n  pop\n  jump\t// out\n    /* \"#utility.yul\":3833:5228   */\ntag_2:\n    /* \"#utility.yul\":3950:3987   */\n  tag_72\n    /* \"#utility.yul\":3983:3986   */\n  dup3\n    /* \"#utility.yul\":3950:3987   */\n  tag_5\n  jump\t// in\ntag_72:\n    /* \"#utility.yul\":4052:4070   */\n  0xffffffffffffffff\n    /* \"#utility.yul\":4044:4050   */\n  dup2\n    /* \"#utility.yul\":4041:4071   */\n  gt\n    /* \"#utility.yul\":4038:4094   */\n  iszero\n  tag_73\n  jumpi\n    /* \"#utility.yul\":4074:4092   */\n  tag_74\n  tag_6\n  jump\t// in\ntag_74:\n    /* \"#utility.yul\":4038:4094   */\ntag_73:\n    /* \"#utility.yul\":4118:4156   */\n  tag_75\n    /* \"#utility.yul\":4150:4154   */\n  dup3\n    /* \"#utility.yul\":4144:4155   */\n  sload\n    /* \"#utility.yul\":4118:4156   */\n  tag_8\n  jump\t// in\ntag_75:\n    /* \"#utility.yul\":4203:4270   */\n  tag_76\n    /* \"#utility.yul\":4263:4269   */\n  dup3\n    /* \"#utility.yul\":4255:4261   */\n  dup3\n    /* \"#utility.yul\":4249:4253   */\n  dup6\n    /* \"#utility.yul\":4203:4270   */\n  tag_21\n  jump\t// in\ntag_76:\n    /* \"#utility.yul\":4297:4298   */\n  0x00\n    /* \"#utility.yul\":4321:4325   */\n  0x20\n    /* \"#utility.yul\":4308:4325   */\n  swap1\n  pop\n    /* \"#utility.yul\":4353:4355   */\n  0x1f\n    /* \"#utility.yul\":4345:4351   */\n  dup4\n    /* \"#utility.yul\":4342:4356   */\n  gt\n    /* \"#utility.yul\":4370:4371   */\n  0x01\n    /* \"#utility.yul\":4365:4983   */\n  dup2\n  eq\n  tag_78\n  jumpi\n    /* \"#utility.yul\":5027:5028   */\n  0x00\n    /* \"#utility.yul\":5044:5050   */\n  dup5\n    /* \"#utility.yul\":5041:5118   */\n  iszero\n  tag_79\n  jumpi\n    /* \"#utility.yul\":5093:5102   */\n  dup3\n    /* \"#utility.yul\":5088:5091   */\n  dup8\n    /* \"#utility.yul\":5084:5103   */\n  add\n    /* \"#utility.yul\":5078:5104   */\n  mload\n    /* \"#utility.yul\":5069:5104   */\n  swap1\n  pop\n    /* \"#utility.yul\":5041:5118   */\ntag_79:\n    /* \"#utility.yul\":5144:5211   */\n  tag_80\n    /* \"#utility.yul\":5204:5210   */\n  dup6\n    /* \"#utility.yul\":5197:5202   */\n  dup3\n    /* \"#utility.yul\":5144:5211   */\n  tag_24\n  jump\t// in\ntag_80:\n    /* \"#utility.yul\":5138:5142   */\n  dup7\n    /* \"#utility.yul\":5131:5212   */\n  sstore\n    /* \"#utility.yul\":5000:5222   */\n  pop\n    /* \"#utility.yul\":4335:5222   */\n  jump(tag_77)\n    /* \"#utility.yul\":4365:4983   */\ntag_78:\n    /* \"#utility.yul\":4417:4421   */\n  0x1f\n    /* \"#utility.yul\":4413:4422   */\n  not\n    /* \"#utility.yul\":4405:4411   */\n  dup5\n    /* \"#utility.yul\":4401:4423   */\n  and\n    /* \"#utility.yul\":4451:4488   */\n  tag_81\n    /* \"#utility.yul\":4483:4487   */\n  dup7\n    /* \"#utility.yul\":4451:4488   */\n  tag_9\n  jump\t// in\ntag_81:\n    /* \"#utility.yul\":4510:4511   */\n  0x00\n    /* \"#utility.yul\":4524:4732   */\ntag_82:\n    /* \"#utility.yul\":4538:4545   */\n  dup3\n    /* \"#utility.yul\":4535:4536   */\n  dup2\n    /* \"#utility.yul\":4532:4546   */\n  lt\n    /* \"#utility.yul\":4524:4732   */\n  iszero\n  tag_84\n  jumpi\n    /* \"#utility.yul\":4617:4626   */\n  dup5\n    /* \"#utility.yul\":4612:4615   */\n  dup10\n    /* \"#utility.yul\":4608:4627   */\n  add\n    /* \"#utility.yul\":4602:4628   */\n  mload\n    /* \"#utility.yul\":4594:4600   */\n  dup3\n    /* \"#utility.yul\":4587:4629   */\n  sstore\n    /* \"#utility.yul\":4668:4669   */\n  0x01\n    /* \"#utility.yul\":4660:4666   */\n  dup3\n    /* \"#utility.yul\":4656:4670   */\n  add\n    /* \"#utility.yul\":4646:4670   */\n  swap2\n  pop\n    /* \"#utility.yul\":4715:4717   */\n  0x20\n    /* \"#utility.yul\":4704:4713   */\n  dup6\n    /* \"#utility.yul\":4700:4718   */\n  add\n    /* \"#utility.yul\":4687:4718   */\n  swap5\n  pop\n    /* \"#utility.yul\":4561:4565   */\n  0x20\n    /* \"#utility.yul\":4558:4559   */\n  dup2\n    /* \"#utility.yul\":4554:4566   */\n  add\n    /* \"#utility.yul\":4549:4566   */\n  swap1\n  pop\n    /* \"#utility.yul\":4524:4732   */\n  jump(tag_82)\ntag_84:\n    /* \"#utility.yul\":4760:4766   */\n  dup7\n    /* \"#utility.yul\":4751:4758   */\n  dup4\n    /* \"#utility.yul\":4748:4767   */\n  lt\n    /* \"#utility.yul\":4745:4924   */\n  iszero\n  tag_85\n  jumpi\n    /* \"#utility.yul\":4818:4827   */\n  dup5\n    /* \"#utility.yul\":4813:4816   */\n  dup10\n    /* \"#utility.yul\":4809:4828   */\n  add\n    /* \"#utility.yul\":4803:4829   */\n  mload\n    /* \"#utility.yul\":4861:4909   */\n  tag_86\n    /* \"#utility.yul\":4903:4907   */\n  0x1f\n    /* \"#utility.yul\":4895:4901   */\n  dup10\n    /* \"#utility.yul\":4891:4908   */\n  and\n    /* \"#utility.yul\":4880:4889   */\n  dup3\n    /* \"#utility.yul\":4861:4909   */\n  tag_23\n  jump\t// in\ntag_86:\n    /* \"#utility.yul\":4853:4859   */\n  dup4\n    /* \"#utility.yul\":4846:4910   */\n  sstore\n    /* \"#utility.yul\":4768:4924   */\n  pop\n    /* \"#utility.yul\":4745:4924   */\ntag_85:\n    /* \"#utility.yul\":4970:4971   */\n  0x01\n    /* \"#utility.yul\":4966:4967   */\n  0x02\n    /* \"#utility.yul\":4958:4964   */\n  dup9\n    /* \"#utility.yul\":4954:4968   */\n  mul\n    /* \"#utility.yul\":4950:4972   */\n  add\n    /* \"#utility.yul\":4944:4948   */\n  dup9\n    /* \"#utility.yul\":4937:4973   */\n  sstore\n    /* \"#utility.yul\":4372:4983   */\n  pop\n  pop\n  pop\n    /* \"#utility.yul\":4335:5222   */\ntag_77:\n  pop\n    /* \"#utility.yul\":3925:5228   */\n  pop\n  pop\n  pop\n    /* \"#utility.yul\":3833:5228   */\n  pop\n  pop\n  jump\t// out\n    /* \"contracts/Revise/FundMe.sol\":119:1313  contract FundMe{... */\ntag_4:\n  dataSize(sub_0)\n  dup1\n  dataOffset(sub_0)\n  0x00\n  codecopy\n  0x00\n  return\nstop\n\nsub_0: assembly {\n        /* \"contracts/Revise/FundMe.sol\":119:1313  contract FundMe{... */\n      mstore(0x40, 0x80)\n      jumpi(tag_1, lt(calldatasize, 0x04))\n      shr(0xe0, calldataload(0x00))\n      dup1\n      0x2e1a7d4d\n      eq\n      tag_2\n      jumpi\n      dup1\n      0xb60d4288\n      eq\n      tag_3\n      jumpi\n    tag_1:\n      revert(0x00, 0x00)\n        /* \"contracts/Revise/FundMe.sol\":755:1311  function withdraw(uint256 withdAmt)public {... */\n    tag_2:\n      callvalue\n      dup1\n      iszero\n      tag_4\n      jumpi\n      revert(0x00, 0x00)\n    tag_4:\n      pop\n      tag_5\n      0x04\n      dup1\n      calldatasize\n      sub\n      dup2\n      add\n      swap1\n      tag_6\n      swap2\n      swap1\n      tag_7\n      jump\t// in\n    tag_6:\n      tag_8\n      jump\t// in\n    tag_5:\n      stop\n        /* \"contracts/Revise/FundMe.sol\":542:749  function fund() public payable{... */\n    tag_3:\n      tag_9\n      tag_10\n      jump\t// in\n    tag_9:\n      stop\n        /* \"contracts/Revise/FundMe.sol\":755:1311  function withdraw(uint256 withdAmt)public {... */\n    tag_8:\n        /* \"contracts/Revise/FundMe.sol\":807:824  uint256 amtFunded */\n      0x00\n        /* \"contracts/Revise/FundMe.sol\":827:848  addressToAmountFunded */\n      0x00\n        /* \"contracts/Revise/FundMe.sol\":827:860  addressToAmountFunded[msg.sender] */\n      0x00\n        /* \"contracts/Revise/FundMe.sol\":849:859  msg.sender */\n      caller\n        /* \"contracts/Revise/FundMe.sol\":827:860  addressToAmountFunded[msg.sender] */\n      0xffffffffffffffffffffffffffffffffffffffff\n      and\n      0xffffffffffffffffffffffffffffffffffffffff\n      and\n      dup2\n      mstore\n      0x20\n      add\n      swap1\n      dup2\n      mstore\n      0x20\n      add\n      0x00\n      keccak256\n      sload\n        /* \"contracts/Revise/FundMe.sol\":807:860  uint256 amtFunded = addressToAmountFunded[msg.sender] */\n      swap1\n      pop\n        /* \"contracts/Revise/FundMe.sol\":911:932  address senderAddress */\n      0x00\n        /* \"contracts/Revise/FundMe.sol\":935:945  msg.sender */\n      caller\n        /* \"contracts/Revise/FundMe.sol\":911:945  address senderAddress = msg.sender */\n      swap1\n      pop\n        /* \"contracts/Revise/FundMe.sol\":975:983  withdAmt */\n      dup3\n        /* \"contracts/Revise/FundMe.sol\":964:973  amtFunded */\n      dup3\n        /* \"contracts/Revise/FundMe.sol\":964:983  amtFunded>=withdAmt */\n      lt\n      iszero\n        /* \"contracts/Revise/FundMe.sol\":956:1035  require(amtFunded>=withdAmt, \"You have not deposited enough funds to withdraw\") */\n      tag_12\n      jumpi\n      mload(0x40)\n      0x08c379a000000000000000000000000000000000000000000000000000000000\n      dup2\n      mstore\n      0x04\n      add\n      tag_13\n      swap1\n      tag_14\n      jump\t// in\n    tag_13:\n      mload(0x40)\n      dup1\n      swap2\n      sub\n      swap1\n      revert\n    tag_12:\n        /* \"contracts/Revise/FundMe.sol\":1047:1058  bool result */\n      0x00\n        /* \"contracts/Revise/FundMe.sol\":1071:1084  senderAddress */\n      dup2\n        /* \"contracts/Revise/FundMe.sol\":1063:1090  payable(senderAddress).call */\n      0xffffffffffffffffffffffffffffffffffffffff\n      and\n        /* \"contracts/Revise/FundMe.sol\":1097:1105  withdAmt */\n      dup5\n        /* \"contracts/Revise/FundMe.sol\":1063:1110  payable(senderAddress).call{value:withdAmt}('') */\n      mload(0x40)\n      tag_15\n      swap1\n      tag_16\n      jump\t// in\n    tag_15:\n      0x00\n      mload(0x40)\n      dup1\n      dup4\n      sub\n      dup2\n      dup6\n      dup8\n      gas\n      call\n      swap3\n      pop\n      pop\n      pop\n      returndatasize\n      dup1\n      0x00\n      dup2\n      eq\n      tag_19\n      jumpi\n      mload(0x40)\n      swap2\n      pop\n      and(add(returndatasize, 0x3f), not(0x1f))\n      dup3\n      add\n      0x40\n      mstore\n      returndatasize\n      dup3\n      mstore\n      returndatasize\n      0x00\n      0x20\n      dup5\n      add\n      returndatacopy\n      jump(tag_18)\n    tag_19:\n      0x60\n      swap2\n      pop\n    tag_18:\n      pop\n        /* \"contracts/Revise/FundMe.sol\":1046:1110  (bool result,) = payable(senderAddress).call{value:withdAmt}('') */\n      pop\n      swap1\n      pop\n        /* \"contracts/Revise/FundMe.sol\":1128:1134  result */\n      dup1\n        /* \"contracts/Revise/FundMe.sol\":1120:1158  require(result, \"Transaction Failure\") */\n      tag_20\n      jumpi\n      mload(0x40)\n      0x08c379a000000000000000000000000000000000000000000000000000000000\n      dup2\n      mstore\n      0x04\n      add\n      tag_21\n      swap1\n      tag_22\n      jump\t// in\n    tag_21:\n      mload(0x40)\n      dup1\n      swap2\n      sub\n      swap1\n      revert\n    tag_20:\n        /* \"contracts/Revise/FundMe.sol\":1173:1244  WithdrawlSuccess(address(this), senderAddress, successString, withdAmt) */\n      0x36995bccb71a1493533d2d10095138771086d22d95572020b644dbd86437a02e\n        /* \"contracts/Revise/FundMe.sol\":1198:1202  this */\n      address\n        /* \"contracts/Revise/FundMe.sol\":1205:1218  senderAddress */\n      dup4\n        /* \"contracts/Revise/FundMe.sol\":1220:1233  successString */\n      0x01\n        /* \"contracts/Revise/FundMe.sol\":1235:1243  withdAmt */\n      dup8\n        /* \"contracts/Revise/FundMe.sol\":1173:1244  WithdrawlSuccess(address(this), senderAddress, successString, withdAmt) */\n      mload(0x40)\n      tag_23\n      swap5\n      swap4\n      swap3\n      swap2\n      swap1\n      tag_24\n      jump\t// in\n    tag_23:\n      mload(0x40)\n      dup1\n      swap2\n      sub\n      swap1\n      log1\n        /* \"contracts/Revise/FundMe.sol\":1293:1294  0 */\n      0x00\n        /* \"contracts/Revise/FundMe.sol\":1254:1275  addressToAmountFunded */\n      0x00\n        /* \"contracts/Revise/FundMe.sol\":1254:1290  addressToAmountFunded[senderAddress] */\n      0x00\n        /* \"contracts/Revise/FundMe.sol\":1276:1289  senderAddress */\n      dup5\n        /* \"contracts/Revise/FundMe.sol\":1254:1290  addressToAmountFunded[senderAddress] */\n      0xffffffffffffffffffffffffffffffffffffffff\n      and\n      0xffffffffffffffffffffffffffffffffffffffff\n      and\n      dup2\n      mstore\n      0x20\n      add\n      swap1\n      dup2\n      mstore\n      0x20\n      add\n      0x00\n      keccak256\n        /* \"contracts/Revise/FundMe.sol\":1254:1294  addressToAmountFunded[senderAddress] = 0 */\n      dup2\n      swap1\n      sstore\n      pop\n        /* \"contracts/Revise/FundMe.sol\":797:1311  {... */\n      pop\n      pop\n      pop\n        /* \"contracts/Revise/FundMe.sol\":755:1311  function withdraw(uint256 withdAmt)public {... */\n      pop\n      jump\t// out\n        /* \"contracts/Revise/FundMe.sol\":542:749  function fund() public payable{... */\n    tag_10:\n        /* \"contracts/Revise/FundMe.sol\":628:635  min_usd */\n      sload(0x02)\n        /* \"contracts/Revise/FundMe.sol\":598:625  msg.value.priceConversion() */\n      tag_26\n        /* \"contracts/Revise/FundMe.sol\":598:607  msg.value */\n      callvalue\n        /* \"contracts/Revise/FundMe.sol\":598:623  msg.value.priceConversion */\n      tag_27\n        /* \"contracts/Revise/FundMe.sol\":598:625  msg.value.priceConversion() */\n      jump\t// in\n    tag_26:\n        /* \"contracts/Revise/FundMe.sol\":598:635  msg.value.priceConversion() >=min_usd */\n      lt\n      iszero\n        /* \"contracts/Revise/FundMe.sol\":590:668  require(msg.value.priceConversion() >=min_usd, \"Send Atleast $5 worth of ETH\") */\n      tag_28\n      jumpi\n      mload(0x40)\n      0x08c379a000000000000000000000000000000000000000000000000000000000\n      dup2\n      mstore\n      0x04\n      add\n      tag_29\n      swap1\n      tag_30\n      jump\t// in\n    tag_29:\n      mload(0x40)\n      dup1\n      swap2\n      sub\n      swap1\n      revert\n    tag_28:\n        /* \"contracts/Revise/FundMe.sol\":724:733  msg.value */\n      callvalue\n        /* \"contracts/Revise/FundMe.sol\":687:708  addressToAmountFunded */\n      0x00\n        /* \"contracts/Revise/FundMe.sol\":687:720  addressToAmountFunded[msg.sender] */\n      0x00\n        /* \"contracts/Revise/FundMe.sol\":709:719  msg.sender */\n      caller\n        /* \"contracts/Revise/FundMe.sol\":687:720  addressToAmountFunded[msg.sender] */\n      0xffffffffffffffffffffffffffffffffffffffff\n      and\n      0xffffffffffffffffffffffffffffffffffffffff\n      and\n      dup2\n      mstore\n      0x20\n      add\n      swap1\n      dup2\n      mstore\n      0x20\n      add\n      0x00\n      keccak256\n      0x00\n        /* \"contracts/Revise/FundMe.sol\":687:733  addressToAmountFunded[msg.sender] += msg.value */\n      dup3\n      dup3\n      sload\n      tag_31\n      swap2\n      swap1\n      tag_32\n      jump\t// in\n    tag_31:\n      swap3\n      pop\n      pop\n      dup2\n      swap1\n      sstore\n      pop\n        /* \"contracts/Revise/FundMe.sol\":542:749  function fund() public payable{... */\n      jump\t// out\n        /* \"contracts/Revise/PriceConversionLib.sol\":480:751  function priceConversion(uint256 eth_amt) internal  view returns(uint256){... */\n    tag_27:\n        /* \"contracts/Revise/PriceConversionLib.sol\":545:552  uint256 */\n      0x00\n        /* \"contracts/Revise/PriceConversionLib.sol\":636:649  uint256 price */\n      0x00\n        /* \"contracts/Revise/PriceConversionLib.sol\":652:666  getPriceFeed() */\n      tag_34\n        /* \"contracts/Revise/PriceConversionLib.sol\":652:664  getPriceFeed */\n      tag_35\n        /* \"contracts/Revise/PriceConversionLib.sol\":652:666  getPriceFeed() */\n      jump\t// in\n    tag_34:\n        /* \"contracts/Revise/PriceConversionLib.sol\":636:666  uint256 price = getPriceFeed() */\n      swap1\n      pop\n        /* \"contracts/Revise/PriceConversionLib.sol\":676:693  uint256 eth_price */\n      0x00\n        /* \"contracts/Revise/PriceConversionLib.sol\":713:717  1e18 */\n      0x0de0b6b3a7640000\n        /* \"contracts/Revise/PriceConversionLib.sol\":705:710  price */\n      dup3\n        /* \"contracts/Revise/PriceConversionLib.sol\":697:704  eth_amt */\n      dup6\n        /* \"contracts/Revise/PriceConversionLib.sol\":697:710  eth_amt*price */\n      tag_36\n      swap2\n      swap1\n      tag_37\n      jump\t// in\n    tag_36:\n        /* \"contracts/Revise/PriceConversionLib.sol\":696:718  (eth_amt*price)/(1e18) */\n      tag_38\n      swap2\n      swap1\n      tag_39\n      jump\t// in\n    tag_38:\n        /* \"contracts/Revise/PriceConversionLib.sol\":676:718  uint256 eth_price = (eth_amt*price)/(1e18) */\n      swap1\n      pop\n        /* \"contracts/Revise/PriceConversionLib.sol\":735:744  eth_price */\n      dup1\n        /* \"contracts/Revise/PriceConversionLib.sol\":728:744  return eth_price */\n      swap3\n      pop\n      pop\n      pop\n        /* \"contracts/Revise/PriceConversionLib.sol\":480:751  function priceConversion(uint256 eth_amt) internal  view returns(uint256){... */\n      swap2\n      swap1\n      pop\n      jump\t// out\n        /* \"contracts/Revise/PriceConversionLib.sol\":205:474  function getPriceFeed()internal view returns(uint256){... */\n    tag_35:\n        /* \"contracts/Revise/PriceConversionLib.sol\":250:257  uint256 */\n      0x00\n        /* \"contracts/Revise/PriceConversionLib.sol\":268:299  AggregatorV3Interface pricefeed */\n      0x00\n        /* \"contracts/Revise/PriceConversionLib.sol\":324:366  0x38cB7800C3Fddb8dda074C1c650A155154924C73 */\n      0x38cb7800c3fddb8dda074c1c650a155154924c73\n        /* \"contracts/Revise/PriceConversionLib.sol\":268:367  AggregatorV3Interface pricefeed = AggregatorV3Interface(0x38cB7800C3Fddb8dda074C1c650A155154924C73) */\n      swap1\n      pop\n        /* \"contracts/Revise/PriceConversionLib.sol\":381:393  int256 price */\n      0x00\n        /* \"contracts/Revise/PriceConversionLib.sol\":404:413  pricefeed */\n      dup2\n        /* \"contracts/Revise/PriceConversionLib.sol\":404:429  pricefeed.latestRoundData */\n      0xffffffffffffffffffffffffffffffffffffffff\n      and\n      0xfeaf968c\n        /* \"contracts/Revise/PriceConversionLib.sol\":404:431  pricefeed.latestRoundData() */\n      mload(0x40)\n      dup2\n      0xffffffff\n      and\n      0xe0\n      shl\n      dup2\n      mstore\n      0x04\n      add\n      0xa0\n      mload(0x40)\n      dup1\n      dup4\n      sub\n      dup2\n      dup7\n      gas\n      staticcall\n      iszero\n      dup1\n      iszero\n      tag_42\n      jumpi\n      returndatacopy(0x00, 0x00, returndatasize)\n      revert(0x00, returndatasize)\n    tag_42:\n      pop\n      pop\n      pop\n      pop\n      mload(0x40)\n      returndatasize\n      not(0x1f)\n      0x1f\n      dup3\n      add\n      and\n      dup3\n      add\n      dup1\n      0x40\n      mstore\n      pop\n      dup2\n      add\n      swap1\n      tag_43\n      swap2\n      swap1\n      tag_44\n      jump\t// in\n    tag_43:\n        /* \"contracts/Revise/PriceConversionLib.sol\":378:431  ( ,int256 price, , ,  ) = pricefeed.latestRoundData() */\n      pop\n      pop\n      pop\n      swap2\n      pop\n      pop\n        /* \"contracts/Revise/PriceConversionLib.sol\":462:466  1e10 */\n      0x02540be400\n        /* \"contracts/Revise/PriceConversionLib.sol\":456:461  price */\n      dup2\n        /* \"contracts/Revise/PriceConversionLib.sol\":456:466  price*1e10 */\n      tag_45\n      swap2\n      swap1\n      tag_46\n      jump\t// in\n    tag_45:\n        /* \"contracts/Revise/PriceConversionLib.sol\":441:467  return uint256(price*1e10) */\n      swap3\n      pop\n      pop\n      pop\n        /* \"contracts/Revise/PriceConversionLib.sol\":205:474  function getPriceFeed()internal view returns(uint256){... */\n      swap1\n      jump\t// out\n        /* \"#utility.yul\":88:205   */\n    tag_48:\n        /* \"#utility.yul\":197:198   */\n      0x00\n        /* \"#utility.yul\":194:195   */\n      0x00\n        /* \"#utility.yul\":187:199   */\n      revert\n        /* \"#utility.yul\":334:411   */\n    tag_50:\n        /* \"#utility.yul\":371:378   */\n      0x00\n        /* \"#utility.yul\":400:405   */\n      dup2\n        /* \"#utility.yul\":389:405   */\n      swap1\n      pop\n        /* \"#utility.yul\":334:411   */\n      swap2\n      swap1\n      pop\n      jump\t// out\n        /* \"#utility.yul\":417:539   */\n    tag_51:\n        /* \"#utility.yul\":490:514   */\n      tag_86\n        /* \"#utility.yul\":508:513   */\n      dup2\n        /* \"#utility.yul\":490:514   */\n      tag_50\n      jump\t// in\n    tag_86:\n        /* \"#utility.yul\":483:488   */\n      dup2\n        /* \"#utility.yul\":480:515   */\n      eq\n        /* \"#utility.yul\":470:533   */\n      tag_87\n      jumpi\n        /* \"#utility.yul\":529:530   */\n      0x00\n        /* \"#utility.yul\":526:527   */\n      0x00\n        /* \"#utility.yul\":519:531   */\n      revert\n        /* \"#utility.yul\":470:533   */\n    tag_87:\n        /* \"#utility.yul\":417:539   */\n      pop\n      jump\t// out\n        /* \"#utility.yul\":545:684   */\n    tag_52:\n        /* \"#utility.yul\":591:596   */\n      0x00\n        /* \"#utility.yul\":629:635   */\n      dup2\n        /* \"#utility.yul\":616:636   */\n      calldataload\n        /* \"#utility.yul\":607:636   */\n      swap1\n      pop\n        /* \"#utility.yul\":645:678   */\n      tag_89\n        /* \"#utility.yul\":672:677   */\n      dup2\n        /* \"#utility.yul\":645:678   */\n      tag_51\n      jump\t// in\n    tag_89:\n        /* \"#utility.yul\":545:684   */\n      swap3\n      swap2\n      pop\n      pop\n      jump\t// out\n        /* \"#utility.yul\":690:1019   */\n    tag_7:\n        /* \"#utility.yul\":749:755   */\n      0x00\n        /* \"#utility.yul\":798:800   */\n      0x20\n        /* \"#utility.yul\":786:795   */\n      dup3\n        /* \"#utility.yul\":777:784   */\n      dup5\n        /* \"#utility.yul\":773:796   */\n      sub\n        /* \"#utility.yul\":769:801   */\n      slt\n        /* \"#utility.yul\":766:885   */\n      iszero\n      tag_91\n      jumpi\n        /* \"#utility.yul\":804:883   */\n      tag_92\n      tag_48\n      jump\t// in\n    tag_92:\n        /* \"#utility.yul\":766:885   */\n    tag_91:\n        /* \"#utility.yul\":924:925   */\n      0x00\n        /* \"#utility.yul\":949:1002   */\n      tag_93\n        /* \"#utility.yul\":994:1001   */\n      dup5\n        /* \"#utility.yul\":985:991   */\n      dup3\n        /* \"#utility.yul\":974:983   */\n      dup6\n        /* \"#utility.yul\":970:992   */\n      add\n        /* \"#utility.yul\":949:1002   */\n      tag_52\n      jump\t// in\n    tag_93:\n        /* \"#utility.yul\":939:1002   */\n      swap2\n      pop\n        /* \"#utility.yul\":895:1012   */\n      pop\n        /* \"#utility.yul\":690:1019   */\n      swap3\n      swap2\n      pop\n      pop\n      jump\t// out\n        /* \"#utility.yul\":1025:1194   */\n    tag_53:\n        /* \"#utility.yul\":1109:1120   */\n      0x00\n        /* \"#utility.yul\":1143:1149   */\n      dup3\n        /* \"#utility.yul\":1138:1141   */\n      dup3\n        /* \"#utility.yul\":1131:1150   */\n      mstore\n        /* \"#utility.yul\":1183:1187   */\n      0x20\n        /* \"#utility.yul\":1178:1181   */\n      dup3\n        /* \"#utility.yul\":1174:1188   */\n      add\n        /* \"#utility.yul\":1159:1188   */\n      swap1\n      pop\n        /* \"#utility.yul\":1025:1194   */\n      swap3\n      swap2\n      pop\n      pop\n      jump\t// out\n        /* \"#utility.yul\":1200:1434   */\n    tag_54:\n        /* \"#utility.yul\":1340:1374   */\n      0x596f752068617665206e6f74206465706f736974656420656e6f756768206675\n        /* \"#utility.yul\":1336:1337   */\n      0x00\n        /* \"#utility.yul\":1328:1334   */\n      dup3\n        /* \"#utility.yul\":1324:1338   */\n      add\n        /* \"#utility.yul\":1317:1375   */\n      mstore\n        /* \"#utility.yul\":1409:1426   */\n      0x6e647320746f2077697468647261770000000000000000000000000000000000\n        /* \"#utility.yul\":1404:1406   */\n      0x20\n        /* \"#utility.yul\":1396:1402   */\n      dup3\n        /* \"#utility.yul\":1392:1407   */\n      add\n        /* \"#utility.yul\":1385:1427   */\n      mstore\n        /* \"#utility.yul\":1200:1434   */\n      pop\n      jump\t// out\n        /* \"#utility.yul\":1440:1806   */\n    tag_55:\n        /* \"#utility.yul\":1582:1585   */\n      0x00\n        /* \"#utility.yul\":1603:1670   */\n      tag_97\n        /* \"#utility.yul\":1667:1669   */\n      0x2f\n        /* \"#utility.yul\":1662:1665   */\n      dup4\n        /* \"#utility.yul\":1603:1670   */\n      tag_53\n      jump\t// in\n    tag_97:\n        /* \"#utility.yul\":1596:1670   */\n      swap2\n      pop\n        /* \"#utility.yul\":1679:1772   */\n      tag_98\n        /* \"#utility.yul\":1768:1771   */\n      dup3\n        /* \"#utility.yul\":1679:1772   */\n      tag_54\n      jump\t// in\n    tag_98:\n        /* \"#utility.yul\":1797:1799   */\n      0x40\n        /* \"#utility.yul\":1792:1795   */\n      dup3\n        /* \"#utility.yul\":1788:1800   */\n      add\n        /* \"#utility.yul\":1781:1800   */\n      swap1\n      pop\n        /* \"#utility.yul\":1440:1806   */\n      swap2\n      swap1\n      pop\n      jump\t// out\n        /* \"#utility.yul\":1812:2231   */\n    tag_14:\n        /* \"#utility.yul\":1978:1982   */\n      0x00\n        /* \"#utility.yul\":2016:2018   */\n      0x20\n        /* \"#utility.yul\":2005:2014   */\n      dup3\n        /* \"#utility.yul\":2001:2019   */\n      add\n        /* \"#utility.yul\":1993:2019   */\n      swap1\n      pop\n        /* \"#utility.yul\":2065:2074   */\n      dup2\n        /* \"#utility.yul\":2059:2063   */\n      dup2\n        /* \"#utility.yul\":2055:2075   */\n      sub\n        /* \"#utility.yul\":2051:2052   */\n      0x00\n        /* \"#utility.yul\":2040:2049   */\n      dup4\n        /* \"#utility.yul\":2036:2053   */\n      add\n        /* \"#utility.yul\":2029:2076   */\n      mstore\n        /* \"#utility.yul\":2093:2224   */\n      tag_100\n        /* \"#utility.yul\":2219:2223   */\n      dup2\n        /* \"#utility.yul\":2093:2224   */\n      tag_55\n      jump\t// in\n    tag_100:\n        /* \"#utility.yul\":2085:2224   */\n      swap1\n      pop\n        /* \"#utility.yul\":1812:2231   */\n      swap2\n      swap1\n      pop\n      jump\t// out\n        /* \"#utility.yul\":2237:2384   */\n    tag_56:\n        /* \"#utility.yul\":2338:2349   */\n      0x00\n        /* \"#utility.yul\":2375:2378   */\n      dup2\n        /* \"#utility.yul\":2360:2378   */\n      swap1\n      pop\n        /* \"#utility.yul\":2237:2384   */\n      swap3\n      swap2\n      pop\n      pop\n      jump\t// out\n        /* \"#utility.yul\":2390:2504   */\n    tag_57:\n      pop\n      jump\t// out\n        /* \"#utility.yul\":2510:2908   */\n    tag_58:\n        /* \"#utility.yul\":2669:2672   */\n      0x00\n        /* \"#utility.yul\":2690:2773   */\n      tag_104\n        /* \"#utility.yul\":2771:2772   */\n      0x00\n        /* \"#utility.yul\":2766:2769   */\n      dup4\n        /* \"#utility.yul\":2690:2773   */\n      tag_56\n      jump\t// in\n    tag_104:\n        /* \"#utility.yul\":2683:2773   */\n      swap2\n      pop\n        /* \"#utility.yul\":2782:2875   */\n      tag_105\n        /* \"#utility.yul\":2871:2874   */\n      dup3\n        /* \"#utility.yul\":2782:2875   */\n      tag_57\n      jump\t// in\n    tag_105:\n        /* \"#utility.yul\":2900:2901   */\n      0x00\n        /* \"#utility.yul\":2895:2898   */\n      dup3\n        /* \"#utility.yul\":2891:2902   */\n      add\n        /* \"#utility.yul\":2884:2902   */\n      swap1\n      pop\n        /* \"#utility.yul\":2510:2908   */\n      swap2\n      swap1\n      pop\n      jump\t// out\n        /* \"#utility.yul\":2914:3293   */\n    tag_16:\n        /* \"#utility.yul\":3098:3101   */\n      0x00\n        /* \"#utility.yul\":3120:3267   */\n      tag_107\n        /* \"#utility.yul\":3263:3266   */\n      dup3\n        /* \"#utility.yul\":3120:3267   */\n      tag_58\n      jump\t// in\n    tag_107:\n        /* \"#utility.yul\":3113:3267   */\n      swap2\n      pop\n        /* \"#utility.yul\":3284:3287   */\n      dup2\n        /* \"#utility.yul\":3277:3287   */\n      swap1\n      pop\n        /* \"#utility.yul\":2914:3293   */\n      swap2\n      swap1\n      pop\n      jump\t// out\n        /* \"#utility.yul\":3299:3468   */\n    tag_59:\n        /* \"#utility.yul\":3439:3460   */\n      0x5472616e73616374696f6e204661696c75726500000000000000000000000000\n        /* \"#utility.yul\":3435:3436   */\n      0x00\n        /* \"#utility.yul\":3427:3433   */\n      dup3\n        /* \"#utility.yul\":3423:3437   */\n      add\n        /* \"#utility.yul\":3416:3461   */\n      mstore\n        /* \"#utility.yul\":3299:3468   */\n      pop\n      jump\t// out\n        /* \"#utility.yul\":3474:3840   */\n    tag_60:\n        /* \"#utility.yul\":3616:3619   */\n      0x00\n        /* \"#utility.yul\":3637:3704   */\n      tag_110\n        /* \"#utility.yul\":3701:3703   */\n      0x13\n        /* \"#utility.yul\":3696:3699   */\n      dup4\n        /* \"#utility.yul\":3637:3704   */\n      tag_53\n      jump\t// in\n    tag_110:\n        /* \"#utility.yul\":3630:3704   */\n      swap2\n      pop\n        /* \"#utility.yul\":3713:3806   */\n      tag_111\n        /* \"#utility.yul\":3802:3805   */\n      dup3\n        /* \"#utility.yul\":3713:3806   */\n      tag_59\n      jump\t// in\n    tag_111:\n        /* \"#utility.yul\":3831:3833   */\n      0x20\n        /* \"#utility.yul\":3826:3829   */\n      dup3\n        /* \"#utility.yul\":3822:3834   */\n      add\n        /* \"#utility.yul\":3815:3834   */\n      swap1\n      pop\n        /* \"#utility.yul\":3474:3840   */\n      swap2\n      swap1\n      pop\n      jump\t// out\n        /* \"#utility.yul\":3846:4265   */\n    tag_22:\n        /* \"#utility.yul\":4012:4016   */\n      0x00\n        /* \"#utility.yul\":4050:4052   */\n      0x20\n        /* \"#utility.yul\":4039:4048   */\n      dup3\n        /* \"#utility.yul\":4035:4053   */\n      add\n        /* \"#utility.yul\":4027:4053   */\n      swap1\n      pop\n        /* \"#utility.yul\":4099:4108   */\n      dup2\n        /* \"#utility.yul\":4093:4097   */\n      dup2\n        /* \"#utility.yul\":4089:4109   */\n      sub\n        /* \"#utility.yul\":4085:4086   */\n      0x00\n        /* \"#utility.yul\":4074:4083   */\n      dup4\n        /* \"#utility.yul\":4070:4087   */\n      add\n        /* \"#utility.yul\":4063:4110   */\n      mstore\n        /* \"#utility.yul\":4127:4258   */\n      tag_113\n        /* \"#utility.yul\":4253:4257   */\n      dup2\n        /* \"#utility.yul\":4127:4258   */\n      tag_60\n      jump\t// in\n    tag_113:\n        /* \"#utility.yul\":4119:4258   */\n      swap1\n      pop\n        /* \"#utility.yul\":3846:4265   */\n      swap2\n      swap1\n      pop\n      jump\t// out\n        /* \"#utility.yul\":4271:4397   */\n    tag_61:\n        /* \"#utility.yul\":4308:4315   */\n      0x00\n        /* \"#utility.yul\":4348:4390   */\n      0xffffffffffffffffffffffffffffffffffffffff\n        /* \"#utility.yul\":4341:4346   */\n      dup3\n        /* \"#utility.yul\":4337:4391   */\n      and\n        /* \"#utility.yul\":4326:4391   */\n      swap1\n      pop\n        /* \"#utility.yul\":4271:4397   */\n      swap2\n      swap1\n      pop\n      jump\t// out\n        /* \"#utility.yul\":4403:4499   */\n    tag_62:\n        /* \"#utility.yul\":4440:4447   */\n      0x00\n        /* \"#utility.yul\":4469:4493   */\n      tag_116\n        /* \"#utility.yul\":4487:4492   */\n      dup3\n        /* \"#utility.yul\":4469:4493   */\n      tag_61\n      jump\t// in\n    tag_116:\n        /* \"#utility.yul\":4458:4493   */\n      swap1\n      pop\n        /* \"#utility.yul\":4403:4499   */\n      swap2\n      swap1\n      pop\n      jump\t// out\n        /* \"#utility.yul\":4505:4623   */\n    tag_63:\n        /* \"#utility.yul\":4592:4616   */\n      tag_118\n        /* \"#utility.yul\":4610:4615   */\n      dup2\n        /* \"#utility.yul\":4592:4616   */\n      tag_62\n      jump\t// in\n    tag_118:\n        /* \"#utility.yul\":4587:4590   */\n      dup3\n        /* \"#utility.yul\":4580:4617   */\n      mstore\n        /* \"#utility.yul\":4505:4623   */\n      pop\n      pop\n      jump\t// out\n        /* \"#utility.yul\":4629:4809   */\n    tag_64:\n        /* \"#utility.yul\":4677:4754   */\n      0x4e487b7100000000000000000000000000000000000000000000000000000000\n        /* \"#utility.yul\":4674:4675   */\n      0x00\n        /* \"#utility.yul\":4667:4755   */\n      mstore\n        /* \"#utility.yul\":4774:4778   */\n      0x22\n        /* \"#utility.yul\":4771:4772   */\n      0x04\n        /* \"#utility.yul\":4764:4779   */\n      mstore\n        /* \"#utility.yul\":4798:4802   */\n      0x24\n        /* \"#utility.yul\":4795:4796   */\n      0x00\n        /* \"#utility.yul\":4788:4803   */\n      revert\n        /* \"#utility.yul\":4815:5135   */\n    tag_65:\n        /* \"#utility.yul\":4859:4865   */\n      0x00\n        /* \"#utility.yul\":4896:4897   */\n      0x02\n        /* \"#utility.yul\":4890:4894   */\n      dup3\n        /* \"#utility.yul\":4886:4898   */\n      div\n        /* \"#utility.yul\":4876:4898   */\n      swap1\n      pop\n        /* \"#utility.yul\":4943:4944   */\n      0x01\n        /* \"#utility.yul\":4937:4941   */\n      dup3\n        /* \"#utility.yul\":4933:4945   */\n      and\n        /* \"#utility.yul\":4964:4982   */\n      dup1\n        /* \"#utility.yul\":4954:5035   */\n      tag_121\n      jumpi\n        /* \"#utility.yul\":5020:5024   */\n      0x7f\n        /* \"#utility.yul\":5012:5018   */\n      dup3\n        /* \"#utility.yul\":5008:5025   */\n      and\n        /* \"#utility.yul\":4998:5025   */\n      swap2\n      pop\n        /* \"#utility.yul\":4954:5035   */\n    tag_121:\n        /* \"#utility.yul\":5082:5084   */\n      0x20\n        /* \"#utility.yul\":5074:5080   */\n      dup3\n        /* \"#utility.yul\":5071:5085   */\n      lt\n        /* \"#utility.yul\":5051:5069   */\n      dup2\n        /* \"#utility.yul\":5048:5086   */\n      sub\n        /* \"#utility.yul\":5045:5129   */\n      tag_122\n      jumpi\n        /* \"#utility.yul\":5101:5119   */\n      tag_123\n      tag_64\n      jump\t// in\n    tag_123:\n        /* \"#utility.yul\":5045:5129   */\n    tag_122:\n        /* \"#utility.yul\":4866:5135   */\n      pop\n        /* \"#utility.yul\":4815:5135   */\n      swap2\n      swap1\n      pop\n      jump\t// out\n        /* \"#utility.yul\":5141:5282   */\n    tag_66:\n        /* \"#utility.yul\":5190:5194   */\n      0x00\n        /* \"#utility.yul\":5213:5216   */\n      dup2\n        /* \"#utility.yul\":5205:5216   */\n      swap1\n      pop\n        /* \"#utility.yul\":5236:5239   */\n      dup2\n        /* \"#utility.yul\":5233:5234   */\n      0x00\n        /* \"#utility.yul\":5226:5240   */\n      mstore\n        /* \"#utility.yul\":5270:5274   */\n      0x20\n        /* \"#utility.yul\":5267:5268   */\n      0x00\n        /* \"#utility.yul\":5257:5275   */\n      keccak256\n        /* \"#utility.yul\":5249:5275   */\n      swap1\n      pop\n        /* \"#utility.yul\":5141:5282   */\n      swap2\n      swap1\n      pop\n      jump\t// out\n        /* \"#utility.yul\":5312:6143   */\n    tag_67:\n        /* \"#utility.yul\":5397:5400   */\n      0x00\n        /* \"#utility.yul\":5434:5439   */\n      dup2\n        /* \"#utility.yul\":5428:5440   */\n      sload\n        /* \"#utility.yul\":5463:5499   */\n      tag_126\n        /* \"#utility.yul\":5489:5498   */\n      dup2\n        /* \"#utility.yul\":5463:5499   */\n      tag_65\n      jump\t// in\n    tag_126:\n        /* \"#utility.yul\":5515:5586   */\n      tag_127\n        /* \"#utility.yul\":5579:5585   */\n      dup2\n        /* \"#utility.yul\":5574:5577   */\n      dup7\n        /* \"#utility.yul\":5515:5586   */\n      tag_53\n      jump\t// in\n    tag_127:\n        /* \"#utility.yul\":5508:5586   */\n      swap5\n      pop\n        /* \"#utility.yul\":5617:5618   */\n      0x01\n        /* \"#utility.yul\":5606:5615   */\n      dup3\n        /* \"#utility.yul\":5602:5619   */\n      and\n        /* \"#utility.yul\":5633:5634   */\n      0x00\n        /* \"#utility.yul\":5628:5792   */\n      dup2\n      eq\n      tag_129\n      jumpi\n        /* \"#utility.yul\":5806:5807   */\n      0x01\n        /* \"#utility.yul\":5801:6137   */\n      dup2\n      eq\n      tag_130\n      jumpi\n        /* \"#utility.yul\":5595:6137   */\n      jump(tag_128)\n        /* \"#utility.yul\":5628:5792   */\n    tag_129:\n        /* \"#utility.yul\":5712:5716   */\n      0xff\n        /* \"#utility.yul\":5708:5717   */\n      not\n        /* \"#utility.yul\":5697:5706   */\n      dup4\n        /* \"#utility.yul\":5693:5718   */\n      and\n        /* \"#utility.yul\":5688:5691   */\n      dup7\n        /* \"#utility.yul\":5681:5719   */\n      mstore\n        /* \"#utility.yul\":5772:5778   */\n      dup2\n        /* \"#utility.yul\":5765:5779   */\n      iszero\n        /* \"#utility.yul\":5758:5780   */\n      iszero\n        /* \"#utility.yul\":5752:5756   */\n      0x20\n        /* \"#utility.yul\":5748:5781   */\n      mul\n        /* \"#utility.yul\":5743:5746   */\n      dup7\n        /* \"#utility.yul\":5739:5782   */\n      add\n        /* \"#utility.yul\":5732:5782   */\n      swap4\n      pop\n        /* \"#utility.yul\":5628:5792   */\n      jump(tag_128)\n        /* \"#utility.yul\":5801:6137   */\n    tag_130:\n        /* \"#utility.yul\":5868:5906   */\n      tag_131\n        /* \"#utility.yul\":5900:5905   */\n      dup6\n        /* \"#utility.yul\":5868:5906   */\n      tag_66\n      jump\t// in\n    tag_131:\n        /* \"#utility.yul\":5928:5929   */\n      0x00\n        /* \"#utility.yul\":5942:6096   */\n    tag_132:\n        /* \"#utility.yul\":5956:5962   */\n      dup4\n        /* \"#utility.yul\":5953:5954   */\n      dup2\n        /* \"#utility.yul\":5950:5963   */\n      lt\n        /* \"#utility.yul\":5942:6096   */\n      iszero\n      tag_134\n      jumpi\n        /* \"#utility.yul\":6030:6037   */\n      dup2\n        /* \"#utility.yul\":6024:6038   */\n      sload\n        /* \"#utility.yul\":6020:6021   */\n      dup2\n        /* \"#utility.yul\":6015:6018   */\n      dup10\n        /* \"#utility.yul\":6011:6022   */\n      add\n        /* \"#utility.yul\":6004:6039   */\n      mstore\n        /* \"#utility.yul\":6080:6081   */\n      0x01\n        /* \"#utility.yul\":6071:6078   */\n      dup3\n        /* \"#utility.yul\":6067:6082   */\n      add\n        /* \"#utility.yul\":6056:6082   */\n      swap2\n      pop\n        /* \"#utility.yul\":5978:5982   */\n      0x20\n        /* \"#utility.yul\":5975:5976   */\n      dup2\n        /* \"#utility.yul\":5971:5983   */\n      add\n        /* \"#utility.yul\":5966:5983   */\n      swap1\n      pop\n        /* \"#utility.yul\":5942:6096   */\n      jump(tag_132)\n    tag_134:\n        /* \"#utility.yul\":6125:6126   */\n      dup1\n        /* \"#utility.yul\":6120:6123   */\n      dup9\n        /* \"#utility.yul\":6116:6127   */\n      add\n        /* \"#utility.yul\":6109:6127   */\n      swap6\n      pop\n        /* \"#utility.yul\":5808:6137   */\n      pop\n      pop\n        /* \"#utility.yul\":5595:6137   */\n    tag_128:\n      pop\n        /* \"#utility.yul\":5401:6143   */\n      pop\n      pop\n        /* \"#utility.yul\":5312:6143   */\n      swap3\n      swap2\n      pop\n      pop\n      jump\t// out\n        /* \"#utility.yul\":6149:6267   */\n    tag_68:\n        /* \"#utility.yul\":6236:6260   */\n      tag_136\n        /* \"#utility.yul\":6254:6259   */\n      dup2\n        /* \"#utility.yul\":6236:6260   */\n      tag_50\n      jump\t// in\n    tag_136:\n        /* \"#utility.yul\":6231:6234   */\n      dup3\n        /* \"#utility.yul\":6224:6261   */\n      mstore\n        /* \"#utility.yul\":6149:6267   */\n      pop\n      pop\n      jump\t// out\n        /* \"#utility.yul\":6273:6911   */\n    tag_24:\n        /* \"#utility.yul\":6467:6471   */\n      0x00\n        /* \"#utility.yul\":6505:6508   */\n      0x80\n        /* \"#utility.yul\":6494:6503   */\n      dup3\n        /* \"#utility.yul\":6490:6509   */\n      add\n        /* \"#utility.yul\":6482:6509   */\n      swap1\n      pop\n        /* \"#utility.yul\":6519:6590   */\n      tag_138\n        /* \"#utility.yul\":6587:6588   */\n      0x00\n        /* \"#utility.yul\":6576:6585   */\n      dup4\n        /* \"#utility.yul\":6572:6589   */\n      add\n        /* \"#utility.yul\":6563:6569   */\n      dup8\n        /* \"#utility.yul\":6519:6590   */\n      tag_63\n      jump\t// in\n    tag_138:\n        /* \"#utility.yul\":6600:6672   */\n      tag_139\n        /* \"#utility.yul\":6668:6670   */\n      0x20\n        /* \"#utility.yul\":6657:6666   */\n      dup4\n        /* \"#utility.yul\":6653:6671   */\n      add\n        /* \"#utility.yul\":6644:6650   */\n      dup7\n        /* \"#utility.yul\":6600:6672   */\n      tag_63\n      jump\t// in\n    tag_139:\n        /* \"#utility.yul\":6719:6728   */\n      dup2\n        /* \"#utility.yul\":6713:6717   */\n      dup2\n        /* \"#utility.yul\":6709:6729   */\n      sub\n        /* \"#utility.yul\":6704:6706   */\n      0x40\n        /* \"#utility.yul\":6693:6702   */\n      dup4\n        /* \"#utility.yul\":6689:6707   */\n      add\n        /* \"#utility.yul\":6682:6730   */\n      mstore\n        /* \"#utility.yul\":6747:6822   */\n      tag_140\n        /* \"#utility.yul\":6817:6821   */\n      dup2\n        /* \"#utility.yul\":6808:6814   */\n      dup6\n        /* \"#utility.yul\":6747:6822   */\n      tag_67\n      jump\t// in\n    tag_140:\n        /* \"#utility.yul\":6739:6822   */\n      swap1\n      pop\n        /* \"#utility.yul\":6832:6904   */\n      tag_141\n        /* \"#utility.yul\":6900:6902   */\n      0x60\n        /* \"#utility.yul\":6889:6898   */\n      dup4\n        /* \"#utility.yul\":6885:6903   */\n      add\n        /* \"#utility.yul\":6876:6882   */\n      dup5\n        /* \"#utility.yul\":6832:6904   */\n      tag_68\n      jump\t// in\n    tag_141:\n        /* \"#utility.yul\":6273:6911   */\n      swap6\n      swap5\n      pop\n      pop\n      pop\n      pop\n      pop\n      jump\t// out\n        /* \"#utility.yul\":6917:7095   */\n    tag_69:\n        /* \"#utility.yul\":7057:7087   */\n      0x53656e642041746c6561737420243520776f727468206f662045544800000000\n        /* \"#utility.yul\":7053:7054   */\n      0x00\n        /* \"#utility.yul\":7045:7051   */\n      dup3\n        /* \"#utility.yul\":7041:7055   */\n      add\n        /* \"#utility.yul\":7034:7088   */\n      mstore\n        /* \"#utility.yul\":6917:7095   */\n      pop\n      jump\t// out\n        /* \"#utility.yul\":7101:7467   */\n    tag_70:\n        /* \"#utility.yul\":7243:7246   */\n      0x00\n        /* \"#utility.yul\":7264:7331   */\n      tag_144\n        /* \"#utility.yul\":7328:7330   */\n      0x1c\n        /* \"#utility.yul\":7323:7326   */\n      dup4\n        /* \"#utility.yul\":7264:7331   */\n      tag_53\n      jump\t// in\n    tag_144:\n        /* \"#utility.yul\":7257:7331   */\n      swap2\n      pop\n        /* \"#utility.yul\":7340:7433   */\n      tag_145\n        /* \"#utility.yul\":7429:7432   */\n      dup3\n        /* \"#utility.yul\":7340:7433   */\n      tag_69\n      jump\t// in\n    tag_145:\n        /* \"#utility.yul\":7458:7460   */\n      0x20\n        /* \"#utility.yul\":7453:7456   */\n      dup3\n        /* \"#utility.yul\":7449:7461   */\n      add\n        /* \"#utility.yul\":7442:7461   */\n      swap1\n      pop\n        /* \"#utility.yul\":7101:7467   */\n      swap2\n      swap1\n      pop\n      jump\t// out\n        /* \"#utility.yul\":7473:7892   */\n    tag_30:\n        /* \"#utility.yul\":7639:7643   */\n      0x00\n        /* \"#utility.yul\":7677:7679   */\n      0x20\n        /* \"#utility.yul\":7666:7675   */\n      dup3\n        /* \"#utility.yul\":7662:7680   */\n      add\n        /* \"#utility.yul\":7654:7680   */\n      swap1\n      pop\n        /* \"#utility.yul\":7726:7735   */\n      dup2\n        /* \"#utility.yul\":7720:7724   */\n      dup2\n        /* \"#utility.yul\":7716:7736   */\n      sub\n        /* \"#utility.yul\":7712:7713   */\n      0x00\n        /* \"#utility.yul\":7701:7710   */\n      dup4\n        /* \"#utility.yul\":7697:7714   */\n      add\n        /* \"#utility.yul\":7690:7737   */\n      mstore\n        /* \"#utility.yul\":7754:7885   */\n      tag_147\n        /* \"#utility.yul\":7880:7884   */\n      dup2\n        /* \"#utility.yul\":7754:7885   */\n      tag_70\n      jump\t// in\n    tag_147:\n        /* \"#utility.yul\":7746:7885   */\n      swap1\n      pop\n        /* \"#utility.yul\":7473:7892   */\n      swap2\n      swap1\n      pop\n      jump\t// out\n        /* \"#utility.yul\":7898:8078   */\n    tag_71:\n        /* \"#utility.yul\":7946:8023   */\n      0x4e487b7100000000000000000000000000000000000000000000000000000000\n        /* \"#utility.yul\":7943:7944   */\n      0x00\n        /* \"#utility.yul\":7936:8024   */\n      mstore\n        /* \"#utility.yul\":8043:8047   */\n      0x11\n        /* \"#utility.yul\":8040:8041   */\n      0x04\n        /* \"#utility.yul\":8033:8048   */\n      mstore\n        /* \"#utility.yul\":8067:8071   */\n      0x24\n        /* \"#utility.yul\":8064:8065   */\n      0x00\n        /* \"#utility.yul\":8057:8072   */\n      revert\n        /* \"#utility.yul\":8084:8275   */\n    tag_32:\n        /* \"#utility.yul\":8124:8127   */\n      0x00\n        /* \"#utility.yul\":8143:8163   */\n      tag_150\n        /* \"#utility.yul\":8161:8162   */\n      dup3\n        /* \"#utility.yul\":8143:8163   */\n      tag_50\n      jump\t// in\n    tag_150:\n        /* \"#utility.yul\":8138:8163   */\n      swap2\n      pop\n        /* \"#utility.yul\":8177:8197   */\n      tag_151\n        /* \"#utility.yul\":8195:8196   */\n      dup4\n        /* \"#utility.yul\":8177:8197   */\n      tag_50\n      jump\t// in\n    tag_151:\n        /* \"#utility.yul\":8172:8197   */\n      swap3\n      pop\n        /* \"#utility.yul\":8220:8221   */\n      dup3\n        /* \"#utility.yul\":8217:8218   */\n      dup3\n        /* \"#utility.yul\":8213:8222   */\n      add\n        /* \"#utility.yul\":8206:8222   */\n      swap1\n      pop\n        /* \"#utility.yul\":8241:8244   */\n      dup1\n        /* \"#utility.yul\":8238:8239   */\n      dup3\n        /* \"#utility.yul\":8235:8245   */\n      gt\n        /* \"#utility.yul\":8232:8268   */\n      iszero\n      tag_152\n      jumpi\n        /* \"#utility.yul\":8248:8266   */\n      tag_153\n      tag_71\n      jump\t// in\n    tag_153:\n        /* \"#utility.yul\":8232:8268   */\n    tag_152:\n        /* \"#utility.yul\":8084:8275   */\n      swap3\n      swap2\n      pop\n      pop\n      jump\t// out\n        /* \"#utility.yul\":8281:8691   */\n    tag_37:\n        /* \"#utility.yul\":8321:8328   */\n      0x00\n        /* \"#utility.yul\":8344:8364   */\n      tag_155\n        /* \"#utility.yul\":8362:8363   */\n      dup3\n        /* \"#utility.yul\":8344:8364   */\n      tag_50\n      jump\t// in\n    tag_155:\n        /* \"#utility.yul\":8339:8364   */\n      swap2\n      pop\n        /* \"#utility.yul\":8378:8398   */\n      tag_156\n        /* \"#utility.yul\":8396:8397   */\n      dup4\n        /* \"#utility.yul\":8378:8398   */\n      tag_50\n      jump\t// in\n    tag_156:\n        /* \"#utility.yul\":8373:8398   */\n      swap3\n      pop\n        /* \"#utility.yul\":8433:8434   */\n      dup3\n        /* \"#utility.yul\":8430:8431   */\n      dup3\n        /* \"#utility.yul\":8426:8435   */\n      mul\n        /* \"#utility.yul\":8455:8485   */\n      tag_157\n        /* \"#utility.yul\":8473:8484   */\n      dup2\n        /* \"#utility.yul\":8455:8485   */\n      tag_50\n      jump\t// in\n    tag_157:\n        /* \"#utility.yul\":8444:8485   */\n      swap2\n      pop\n        /* \"#utility.yul\":8634:8635   */\n      dup3\n        /* \"#utility.yul\":8625:8632   */\n      dup3\n        /* \"#utility.yul\":8621:8636   */\n      div\n        /* \"#utility.yul\":8618:8619   */\n      dup5\n        /* \"#utility.yul\":8615:8637   */\n      eq\n        /* \"#utility.yul\":8595:8596   */\n      dup4\n        /* \"#utility.yul\":8588:8597   */\n      iszero\n        /* \"#utility.yul\":8568:8651   */\n      or\n        /* \"#utility.yul\":8545:8684   */\n      tag_158\n      jumpi\n        /* \"#utility.yul\":8664:8682   */\n      tag_159\n      tag_71\n      jump\t// in\n    tag_159:\n        /* \"#utility.yul\":8545:8684   */\n    tag_158:\n        /* \"#utility.yul\":8329:8691   */\n      pop\n        /* \"#utility.yul\":8281:8691   */\n      swap3\n      swap2\n      pop\n      pop\n      jump\t// out\n        /* \"#utility.yul\":8697:8877   */\n    tag_72:\n        /* \"#utility.yul\":8745:8822   */\n      0x4e487b7100000000000000000000000000000000000000000000000000000000\n        /* \"#utility.yul\":8742:8743   */\n      0x00\n        /* \"#utility.yul\":8735:8823   */\n      mstore\n        /* \"#utility.yul\":8842:8846   */\n      0x12\n        /* \"#utility.yul\":8839:8840   */\n      0x04\n        /* \"#utility.yul\":8832:8847   */\n      mstore\n        /* \"#utility.yul\":8866:8870   */\n      0x24\n        /* \"#utility.yul\":8863:8864   */\n      0x00\n        /* \"#utility.yul\":8856:8871   */\n      revert\n        /* \"#utility.yul\":8883:9068   */\n    tag_39:\n        /* \"#utility.yul\":8923:8924   */\n      0x00\n        /* \"#utility.yul\":8940:8960   */\n      tag_162\n        /* \"#utility.yul\":8958:8959   */\n      dup3\n        /* \"#utility.yul\":8940:8960   */\n      tag_50\n      jump\t// in\n    tag_162:\n        /* \"#utility.yul\":8935:8960   */\n      swap2\n      pop\n        /* \"#utility.yul\":8974:8994   */\n      tag_163\n        /* \"#utility.yul\":8992:8993   */\n      dup4\n        /* \"#utility.yul\":8974:8994   */\n      tag_50\n      jump\t// in\n    tag_163:\n        /* \"#utility.yul\":8969:8994   */\n      swap3\n      pop\n        /* \"#utility.yul\":9013:9014   */\n      dup3\n        /* \"#utility.yul\":9003:9038   */\n      tag_164\n      jumpi\n        /* \"#utility.yul\":9018:9036   */\n      tag_165\n      tag_72\n      jump\t// in\n    tag_165:\n        /* \"#utility.yul\":9003:9038   */\n    tag_164:\n        /* \"#utility.yul\":9060:9061   */\n      dup3\n        /* \"#utility.yul\":9057:9058   */\n      dup3\n        /* \"#utility.yul\":9053:9062   */\n      div\n        /* \"#utility.yul\":9048:9062   */\n      swap1\n      pop\n        /* \"#utility.yul\":8883:9068   */\n      swap3\n      swap2\n      pop\n      pop\n      jump\t// out\n        /* \"#utility.yul\":9074:9179   */\n    tag_73:\n        /* \"#utility.yul\":9110:9117   */\n      0x00\n        /* \"#utility.yul\":9150:9172   */\n      0xffffffffffffffffffff\n        /* \"#utility.yul\":9143:9148   */\n      dup3\n        /* \"#utility.yul\":9139:9173   */\n      and\n        /* \"#utility.yul\":9128:9173   */\n      swap1\n      pop\n        /* \"#utility.yul\":9074:9179   */\n      swap2\n      swap1\n      pop\n      jump\t// out\n        /* \"#utility.yul\":9185:9305   */\n    tag_74:\n        /* \"#utility.yul\":9257:9280   */\n      tag_168\n        /* \"#utility.yul\":9274:9279   */\n      dup2\n        /* \"#utility.yul\":9257:9280   */\n      tag_73\n      jump\t// in\n    tag_168:\n        /* \"#utility.yul\":9250:9255   */\n      dup2\n        /* \"#utility.yul\":9247:9281   */\n      eq\n        /* \"#utility.yul\":9237:9299   */\n      tag_169\n      jumpi\n        /* \"#utility.yul\":9295:9296   */\n      0x00\n        /* \"#utility.yul\":9292:9293   */\n      0x00\n        /* \"#utility.yul\":9285:9297   */\n      revert\n        /* \"#utility.yul\":9237:9299   */\n    tag_169:\n        /* \"#utility.yul\":9185:9305   */\n      pop\n      jump\t// out\n        /* \"#utility.yul\":9311:9452   */\n    tag_75:\n        /* \"#utility.yul\":9367:9372   */\n      0x00\n        /* \"#utility.yul\":9398:9404   */\n      dup2\n        /* \"#utility.yul\":9392:9405   */\n      mload\n        /* \"#utility.yul\":9383:9405   */\n      swap1\n      pop\n        /* \"#utility.yul\":9414:9446   */\n      tag_171\n        /* \"#utility.yul\":9440:9445   */\n      dup2\n        /* \"#utility.yul\":9414:9446   */\n      tag_74\n      jump\t// in\n    tag_171:\n        /* \"#utility.yul\":9311:9452   */\n      swap3\n      swap2\n      pop\n      pop\n      jump\t// out\n        /* \"#utility.yul\":9458:9534   */\n    tag_76:\n        /* \"#utility.yul\":9494:9501   */\n      0x00\n        /* \"#utility.yul\":9523:9528   */\n      dup2\n        /* \"#utility.yul\":9512:9528   */\n      swap1\n      pop\n        /* \"#utility.yul\":9458:9534   */\n      swap2\n      swap1\n      pop\n      jump\t// out\n        /* \"#utility.yul\":9540:9660   */\n    tag_77:\n        /* \"#utility.yul\":9612:9635   */\n      tag_174\n        /* \"#utility.yul\":9629:9634   */\n      dup2\n        /* \"#utility.yul\":9612:9635   */\n      tag_76\n      jump\t// in\n    tag_174:\n        /* \"#utility.yul\":9605:9610   */\n      dup2\n        /* \"#utility.yul\":9602:9636   */\n      eq\n        /* \"#utility.yul\":9592:9654   */\n      tag_175\n      jumpi\n        /* \"#utility.yul\":9650:9651   */\n      0x00\n        /* \"#utility.yul\":9647:9648   */\n      0x00\n        /* \"#utility.yul\":9640:9652   */\n      revert\n        /* \"#utility.yul\":9592:9654   */\n    tag_175:\n        /* \"#utility.yul\":9540:9660   */\n      pop\n      jump\t// out\n        /* \"#utility.yul\":9666:9807   */\n    tag_78:\n        /* \"#utility.yul\":9722:9727   */\n      0x00\n        /* \"#utility.yul\":9753:9759   */\n      dup2\n        /* \"#utility.yul\":9747:9760   */\n      mload\n        /* \"#utility.yul\":9738:9760   */\n      swap1\n      pop\n        /* \"#utility.yul\":9769:9801   */\n      tag_177\n        /* \"#utility.yul\":9795:9800   */\n      dup2\n        /* \"#utility.yul\":9769:9801   */\n      tag_77\n      jump\t// in\n    tag_177:\n        /* \"#utility.yul\":9666:9807   */\n      swap3\n      swap2\n      pop\n      pop\n      jump\t// out\n        /* \"#utility.yul\":9813:9956   */\n    tag_79:\n        /* \"#utility.yul\":9870:9875   */\n      0x00\n        /* \"#utility.yul\":9901:9907   */\n      dup2\n        /* \"#utility.yul\":9895:9908   */\n      mload\n        /* \"#utility.yul\":9886:9908   */\n      swap1\n      pop\n        /* \"#utility.yul\":9917:9950   */\n      tag_179\n        /* \"#utility.yul\":9944:9949   */\n      dup2\n        /* \"#utility.yul\":9917:9950   */\n      tag_51\n      jump\t// in\n    tag_179:\n        /* \"#utility.yul\":9813:9956   */\n      swap3\n      swap2\n      pop\n      pop\n      jump\t// out\n        /* \"#utility.yul\":9962:10933   */\n    tag_44:\n        /* \"#utility.yul\":10065:10071   */\n      0x00\n        /* \"#utility.yul\":10073:10079   */\n      0x00\n        /* \"#utility.yul\":10081:10087   */\n      0x00\n        /* \"#utility.yul\":10089:10095   */\n      0x00\n        /* \"#utility.yul\":10097:10103   */\n      0x00\n        /* \"#utility.yul\":10146:10149   */\n      0xa0\n        /* \"#utility.yul\":10134:10143   */\n      dup7\n        /* \"#utility.yul\":10125:10132   */\n      dup9\n        /* \"#utility.yul\":10121:10144   */\n      sub\n        /* \"#utility.yul\":10117:10150   */\n      slt\n        /* \"#utility.yul\":10114:10234   */\n      iszero\n      tag_181\n      jumpi\n        /* \"#utility.yul\":10153:10232   */\n      tag_182\n      tag_48\n      jump\t// in\n    tag_182:\n        /* \"#utility.yul\":10114:10234   */\n    tag_181:\n        /* \"#utility.yul\":10273:10274   */\n      0x00\n        /* \"#utility.yul\":10298:10361   */\n      tag_183\n        /* \"#utility.yul\":10353:10360   */\n      dup9\n        /* \"#utility.yul\":10344:10350   */\n      dup3\n        /* \"#utility.yul\":10333:10342   */\n      dup10\n        /* \"#utility.yul\":10329:10351   */\n      add\n        /* \"#utility.yul\":10298:10361   */\n      tag_75\n      jump\t// in\n    tag_183:\n        /* \"#utility.yul\":10288:10361   */\n      swap6\n      pop\n        /* \"#utility.yul\":10244:10371   */\n      pop\n        /* \"#utility.yul\":10410:10412   */\n      0x20\n        /* \"#utility.yul\":10436:10499   */\n      tag_184\n        /* \"#utility.yul\":10491:10498   */\n      dup9\n        /* \"#utility.yul\":10482:10488   */\n      dup3\n        /* \"#utility.yul\":10471:10480   */\n      dup10\n        /* \"#utility.yul\":10467:10489   */\n      add\n        /* \"#utility.yul\":10436:10499   */\n      tag_78\n      jump\t// in\n    tag_184:\n        /* \"#utility.yul\":10426:10499   */\n      swap5\n      pop\n        /* \"#utility.yul\":10381:10509   */\n      pop\n        /* \"#utility.yul\":10548:10550   */\n      0x40\n        /* \"#utility.yul\":10574:10638   */\n      tag_185\n        /* \"#utility.yul\":10630:10637   */\n      dup9\n        /* \"#utility.yul\":10621:10627   */\n      dup3\n        /* \"#utility.yul\":10610:10619   */\n      dup10\n        /* \"#utility.yul\":10606:10628   */\n      add\n        /* \"#utility.yul\":10574:10638   */\n      tag_79\n      jump\t// in\n    tag_185:\n        /* \"#utility.yul\":10564:10638   */\n      swap4\n      pop\n        /* \"#utility.yul\":10519:10648   */\n      pop\n        /* \"#utility.yul\":10687:10689   */\n      0x60\n        /* \"#utility.yul\":10713:10777   */\n      tag_186\n        /* \"#utility.yul\":10769:10776   */\n      dup9\n        /* \"#utility.yul\":10760:10766   */\n      dup3\n        /* \"#utility.yul\":10749:10758   */\n      dup10\n        /* \"#utility.yul\":10745:10767   */\n      add\n        /* \"#utility.yul\":10713:10777   */\n      tag_79\n      jump\t// in\n    tag_186:\n        /* \"#utility.yul\":10703:10777   */\n      swap3\n      pop\n        /* \"#utility.yul\":10658:10787   */\n      pop\n        /* \"#utility.yul\":10826:10829   */\n      0x80\n        /* \"#utility.yul\":10853:10916   */\n      tag_187\n        /* \"#utility.yul\":10908:10915   */\n      dup9\n        /* \"#utility.yul\":10899:10905   */\n      dup3\n        /* \"#utility.yul\":10888:10897   */\n      dup10\n        /* \"#utility.yul\":10884:10906   */\n      add\n        /* \"#utility.yul\":10853:10916   */\n      tag_75\n      jump\t// in\n    tag_187:\n        /* \"#utility.yul\":10843:10916   */\n      swap2\n      pop\n        /* \"#utility.yul\":10797:10926   */\n      pop\n        /* \"#utility.yul\":9962:10933   */\n      swap3\n      swap6\n      pop\n      swap3\n      swap6\n      swap1\n      swap4\n      pop\n      jump\t// out\n        /* \"#utility.yul\":10939:11495   */\n    tag_46:\n        /* \"#utility.yul\":10978:10985   */\n      0x00\n        /* \"#utility.yul\":11001:11020   */\n      tag_189\n        /* \"#utility.yul\":11018:11019   */\n      dup3\n        /* \"#utility.yul\":11001:11020   */\n      tag_76\n      jump\t// in\n    tag_189:\n        /* \"#utility.yul\":10996:11020   */\n      swap2\n      pop\n        /* \"#utility.yul\":11034:11053   */\n      tag_190\n        /* \"#utility.yul\":11051:11052   */\n      dup4\n        /* \"#utility.yul\":11034:11053   */\n      tag_76\n      jump\t// in\n    tag_190:\n        /* \"#utility.yul\":11029:11053   */\n      swap3\n      pop\n        /* \"#utility.yul\":11088:11089   */\n      dup3\n        /* \"#utility.yul\":11085:11086   */\n      dup3\n        /* \"#utility.yul\":11081:11090   */\n      mul\n        /* \"#utility.yul\":11110:11139   */\n      tag_191\n        /* \"#utility.yul\":11127:11138   */\n      dup2\n        /* \"#utility.yul\":11110:11139   */\n      tag_76\n      jump\t// in\n    tag_191:\n        /* \"#utility.yul\":11099:11139   */\n      swap2\n      pop\n        /* \"#utility.yul\":11197:11263   */\n      0x8000000000000000000000000000000000000000000000000000000000000000\n        /* \"#utility.yul\":11194:11195   */\n      dup5\n        /* \"#utility.yul\":11191:11264   */\n      eq\n        /* \"#utility.yul\":11187:11188   */\n      0x00\n        /* \"#utility.yul\":11184:11185   */\n      dup5\n        /* \"#utility.yul\":11180:11189   */\n      slt\n        /* \"#utility.yul\":11176:11265   */\n      and\n        /* \"#utility.yul\":11173:11288   */\n      iszero\n      tag_192\n      jumpi\n        /* \"#utility.yul\":11268:11286   */\n      tag_193\n      tag_71\n      jump\t// in\n    tag_193:\n        /* \"#utility.yul\":11173:11288   */\n    tag_192:\n        /* \"#utility.yul\":11438:11439   */\n      dup3\n        /* \"#utility.yul\":11429:11436   */\n      dup3\n        /* \"#utility.yul\":11424:11440   */\n      sdiv\n        /* \"#utility.yul\":11421:11422   */\n      dup5\n        /* \"#utility.yul\":11418:11441   */\n      eq\n        /* \"#utility.yul\":11398:11399   */\n      dup4\n        /* \"#utility.yul\":11391:11400   */\n      iszero\n        /* \"#utility.yul\":11371:11455   */\n      or\n        /* \"#utility.yul\":11348:11488   */\n      tag_194\n      jumpi\n        /* \"#utility.yul\":11468:11486   */\n      tag_195\n      tag_71\n      jump\t// in\n    tag_195:\n        /* \"#utility.yul\":11348:11488   */\n    tag_194:\n        /* \"#utility.yul\":10986:11495   */\n      pop\n        /* \"#utility.yul\":10939:11495   */\n      swap3\n      swap2\n      pop\n      pop\n      jump\t// out\n\n    auxdata: 0xa26469706673582212206c8aa635b9809c89b5b1a135cb3c35edb3ad0ea7c45053d2e96a215d874fcb2d64736f6c634300081f0033\n}\n",
				"bytecode": {
					"linkReferences": {},
					"object": "60806040526040518060400160405280601781526020017f5472616e73616374696f6e207375636365737366756c6c0000000000000000008152506001908161004891906102a3565b50674563918244f40000600255348015610060575f5ffd5b50610372565b5f81519050919050565b7f4e487b71000000000000000000000000000000000000000000000000000000005f52604160045260245ffd5b7f4e487b71000000000000000000000000000000000000000000000000000000005f52602260045260245ffd5b5f60028204905060018216806100e157607f821691505b6020821081036100f4576100f361009d565b5b50919050565b5f819050815f5260205f209050919050565b5f6020601f8301049050919050565b5f82821b905092915050565b5f600883026101567fffffffffffffffffffffffffffffffffffffffffffffffffffffffffffffffff8261011b565b610160868361011b565b95508019841693508086168417925050509392505050565b5f819050919050565b5f819050919050565b5f6101a461019f61019a84610178565b610181565b610178565b9050919050565b5f819050919050565b6101bd8361018a565b6101d16101c9826101ab565b848454610127565b825550505050565b5f5f905090565b6101e86101d9565b6101f38184846101b4565b505050565b5b818110156102165761020b5f826101e0565b6001810190506101f9565b5050565b601f82111561025b5761022c816100fa565b6102358461010c565b81016020851015610244578190505b6102586102508561010c565b8301826101f8565b50505b505050565b5f82821c905092915050565b5f61027b5f1984600802610260565b1980831691505092915050565b5f610293838361026c565b9150826002028217905092915050565b6102ac82610066565b67ffffffffffffffff8111156102c5576102c4610070565b5b6102cf82546100ca565b6102da82828561021a565b5f60209050601f83116001811461030b575f84156102f9578287015190505b6103038582610288565b86555061036a565b601f198416610319866100fa565b5f5b828110156103405784890151825560018201915060208501945060208101905061031b565b8683101561035d5784890151610359601f89168261026c565b8355505b6001600288020188555050505b505050505050565b6109d08061037f5f395ff3fe608060405260043610610028575f3560e01c80632e1a7d4d1461002c578063b60d428814610054575b5f5ffd5b348015610037575f5ffd5b50610052600480360381019061004d91906103c7565b61005e565b005b61005c610212565b005b5f5f5f3373ffffffffffffffffffffffffffffffffffffffff1673ffffffffffffffffffffffffffffffffffffffff1681526020019081526020015f205490505f339050828210156100e5576040517f08c379a00000000000000000000000000000000000000000000000000000000081526004016100dc90610472565b60405180910390fd5b5f8173ffffffffffffffffffffffffffffffffffffffff168460405161010a906104bd565b5f6040518083038185875af1925050503d805f8114610144576040519150601f19603f3d011682016040523d82523d5f602084013e610149565b606091505b505090508061018d576040517f08c379a00000000000000000000000000000000000000000000000000000000081526004016101849061051b565b60405180910390fd5b7f36995bccb71a1493533d2d10095138771086d22d95572020b644dbd86437a02e30836001876040516101c39493929190610677565b60405180910390a15f5f5f8473ffffffffffffffffffffffffffffffffffffffff1673ffffffffffffffffffffffffffffffffffffffff1681526020019081526020015f208190555050505050565b60025461021e346102b3565b101561025f576040517f08c379a00000000000000000000000000000000000000000000000000000000081526004016102569061070b565b60405180910390fd5b345f5f3373ffffffffffffffffffffffffffffffffffffffff1673ffffffffffffffffffffffffffffffffffffffff1681526020019081526020015f205f8282546102aa9190610756565b92505081905550565b5f5f6102bd6102eb565b90505f670de0b6b3a764000082856102d59190610789565b6102df91906107f7565b90508092505050919050565b5f5f7338cb7800c3fddb8dda074c1c650a155154924c7390505f8173ffffffffffffffffffffffffffffffffffffffff1663feaf968c6040518163ffffffff1660e01b815260040160a060405180830381865afa15801561034e573d5f5f3e3d5ffd5b505050506040513d601f19601f8201168201806040525081019061037291906108ad565b5050509150506402540be400816103899190610924565b9250505090565b5f5ffd5b5f819050919050565b6103a681610394565b81146103b0575f5ffd5b50565b5f813590506103c18161039d565b92915050565b5f602082840312156103dc576103db610390565b5b5f6103e9848285016103b3565b91505092915050565b5f82825260208201905092915050565b7f596f752068617665206e6f74206465706f736974656420656e6f7567682066755f8201527f6e647320746f2077697468647261770000000000000000000000000000000000602082015250565b5f61045c602f836103f2565b915061046782610402565b604082019050919050565b5f6020820190508181035f83015261048981610450565b9050919050565b5f81905092915050565b50565b5f6104a85f83610490565b91506104b38261049a565b5f82019050919050565b5f6104c78261049d565b9150819050919050565b7f5472616e73616374696f6e204661696c757265000000000000000000000000005f82015250565b5f6105056013836103f2565b9150610510826104d1565b602082019050919050565b5f6020820190508181035f830152610532816104f9565b9050919050565b5f73ffffffffffffffffffffffffffffffffffffffff82169050919050565b5f61056282610539565b9050919050565b61057281610558565b82525050565b7f4e487b71000000000000000000000000000000000000000000000000000000005f52602260045260245ffd5b5f60028204905060018216806105bc57607f821691505b6020821081036105cf576105ce610578565b5b50919050565b5f819050815f5260205f209050919050565b5f81546105f3816105a5565b6105fd81866103f2565b9450600182165f8114610617576001811461062d5761065f565b60ff19831686528115156020028601935061065f565b610636856105d5565b5f5b8381101561065757815481890152600182019150602081019050610638565b808801955050505b50505092915050565b61067181610394565b82525050565b5f60808201905061068a5f830187610569565b6106976020830186610569565b81810360408301526106a981856105e7565b90506106b86060830184610668565b95945050505050565b7f53656e642041746c6561737420243520776f727468206f6620455448000000005f82015250565b5f6106f5601c836103f2565b9150610700826106c1565b602082019050919050565b5f6020820190508181035f830152610722816106e9565b9050919050565b7f4e487b71000000000000000000000000000000000000000000000000000000005f52601160045260245ffd5b5f61076082610394565b915061076b83610394565b925082820190508082111561078357610782610729565b5b92915050565b5f61079382610394565b915061079e83610394565b92508282026107ac81610394565b915082820484148315176107c3576107c2610729565b5b5092915050565b7f4e487b71000000000000000000000000000000000000000000000000000000005f52601260045260245ffd5b5f61080182610394565b915061080c83610394565b92508261081c5761081b6107ca565b5b828204905092915050565b5f69ffffffffffffffffffff82169050919050565b61084581610827565b811461084f575f5ffd5b50565b5f815190506108608161083c565b92915050565b5f819050919050565b61087881610866565b8114610882575f5ffd5b50565b5f815190506108938161086f565b92915050565b5f815190506108a78161039d565b92915050565b5f5f5f5f5f60a086880312156108c6576108c5610390565b5b5f6108d388828901610852565b95505060206108e488828901610885565b94505060406108f588828901610899565b935050606061090688828901610899565b925050608061091788828901610852565b9150509295509295909350565b5f61092e82610866565b915061093983610866565b925082820261094781610866565b91507f800000000000000000000000000000000000000000000000000000000000000084145f8412161561097e5761097d610729565b5b828205841483151761099357610992610729565b5b509291505056fea26469706673582212206c8aa635b9809c89b5b1a135cb3c35edb3ad0ea7c45053d2e96a215d874fcb2d64736f6c634300081f0033",
					"opcodes": "PUSH1 0x80 PUSH1 0x40 MSTORE PUSH1 0x40 MLOAD DUP1 PUSH1 0x40 ADD PUSH1 0x40 MSTORE DUP1 PUSH1 0x17 DUP2 MSTORE PUSH1 0x20 ADD PUSH32 0x5472616E73616374696F6E207375636365737366756C6C000000000000000000 DUP2 MSTORE POP PUSH1 0x1 SWAP1 DUP2 PUSH2 0x48 SWAP2 SWAP1 PUSH2 0x2A3 JUMP JUMPDEST POP PUSH8 0x4563918244F40000 PUSH1 0x2 SSTORE CALLVALUE DUP1 ISZERO PUSH2 0x60 JUMPI PUSH0 PUSH0 REVERT JUMPDEST POP PUSH2 0x372 JUMP JUMPDEST PUSH0 DUP2 MLOAD SWAP1 POP SWAP2 SWAP1 POP JUMP JUMPDEST PUSH32 0x4E487B7100000000000000000000000000000000000000000000000000000000 PUSH0 MSTORE PUSH1 0x41 PUSH1 0x4 MSTORE PUSH1 0x24 PUSH0 REVERT JUMPDEST PUSH32 0x4E487B7100000000000000000000000000000000000000000000000000000000 PUSH0 MSTORE PUSH1 0x22 PUSH1 0x4 MSTORE PUSH1 0x24 PUSH0 REVERT JUMPDEST PUSH0 PUSH1 0x2 DUP3 DIV SWAP1 POP PUSH1 0x1 DUP3 AND DUP1 PUSH2 0xE1 JUMPI PUSH1 0x7F DUP3 AND SWAP2 POP JUMPDEST PUSH1 0x20 DUP3 LT DUP2 SUB PUSH2 0xF4 JUMPI PUSH2 0xF3 PUSH2 0x9D JUMP JUMPDEST JUMPDEST POP SWAP2 SWAP1 POP JUMP JUMPDEST PUSH0 DUP2 SWAP1 POP DUP2 PUSH0 MSTORE PUSH1 0x20 PUSH0 KECCAK256 SWAP1 POP SWAP2 SWAP1 POP JUMP JUMPDEST PUSH0 PUSH1 0x20 PUSH1 0x1F DUP4 ADD DIV SWAP1 POP SWAP2 SWAP1 POP JUMP JUMPDEST PUSH0 DUP3 DUP3 SHL SWAP1 POP SWAP3 SWAP2 POP POP JUMP JUMPDEST PUSH0 PUSH1 0x8 DUP4 MUL PUSH2 0x156 PUSH32 0xFFFFFFFFFFFFFFFFFFFFFFFFFFFFFFFFFFFFFFFFFFFFFFFFFFFFFFFFFFFFFFFF DUP3 PUSH2 0x11B JUMP JUMPDEST PUSH2 0x160 DUP7 DUP4 PUSH2 0x11B JUMP JUMPDEST SWAP6 POP DUP1 NOT DUP5 AND SWAP4 POP DUP1 DUP7 AND DUP5 OR SWAP3 POP POP POP SWAP4 SWAP3 POP POP POP JUMP JUMPDEST PUSH0 DUP2 SWAP1 POP SWAP2 SWAP1 POP JUMP JUMPDEST PUSH0 DUP2 SWAP1 POP SWAP2 SWAP1 POP JUMP JUMPDEST PUSH0 PUSH2 0x1A4 PUSH2 0x19F PUSH2 0x19A DUP5 PUSH2 0x178 JUMP JUMPDEST PUSH2 0x181 JUMP JUMPDEST PUSH2 0x178 JUMP JUMPDEST SWAP1 POP SWAP2 SWAP1 POP JUMP JUMPDEST PUSH0 DUP2 SWAP1 POP SWAP2 SWAP1 POP JUMP JUMPDEST PUSH2 0x1BD DUP4 PUSH2 0x18A JUMP JUMPDEST PUSH2 0x1D1 PUSH2 0x1C9 DUP3 PUSH2 0x1AB JUMP JUMPDEST DUP5 DUP5 SLOAD PUSH2 0x127 JUMP JUMPDEST DUP3 SSTORE POP POP POP POP JUMP JUMPDEST PUSH0 PUSH0 SWAP1 POP SWAP1 JUMP JUMPDEST PUSH2 0x1E8 PUSH2 0x1D9 JUMP JUMPDEST PUSH2 0x1F3 DUP2 DUP5 DUP5 PUSH2 0x1B4 JUMP JUMPDEST POP POP POP JUMP JUMPDEST JUMPDEST DUP2 DUP2 LT ISZERO PUSH2 0x216 JUMPI PUSH2 0x20B PUSH0 DUP3 PUSH2 0x1E0 JUMP JUMPDEST PUSH1 0x1 DUP2 ADD SWAP1 POP PUSH2 0x1F9 JUMP JUMPDEST POP POP JUMP JUMPDEST PUSH1 0x1F DUP3 GT ISZERO PUSH2 0x25B JUMPI PUSH2 0x22C DUP2 PUSH2 0xFA JUMP JUMPDEST PUSH2 0x235 DUP5 PUSH2 0x10C JUMP JUMPDEST DUP2 ADD PUSH1 0x20 DUP6 LT ISZERO PUSH2 0x244 JUMPI DUP2 SWAP1 POP JUMPDEST PUSH2 0x258 PUSH2 0x250 DUP6 PUSH2 0x10C JUMP JUMPDEST DUP4 ADD DUP3 PUSH2 0x1F8 JUMP JUMPDEST POP POP JUMPDEST POP POP POP JUMP JUMPDEST PUSH0 DUP3 DUP3 SHR SWAP1 POP SWAP3 SWAP2 POP POP JUMP JUMPDEST PUSH0 PUSH2 0x27B PUSH0 NOT DUP5 PUSH1 0x8 MUL PUSH2 0x260 JUMP JUMPDEST NOT DUP1 DUP4 AND SWAP2 POP POP SWAP3 SWAP2 POP POP JUMP JUMPDEST PUSH0 PUSH2 0x293 DUP4 DUP4 PUSH2 0x26C JUMP JUMPDEST SWAP2 POP DUP3 PUSH1 0x2 MUL DUP3 OR SWAP1 POP SWAP3 SWAP2 POP POP JUMP JUMPDEST PUSH2 0x2AC DUP3 PUSH2 0x66 JUMP JUMPDEST PUSH8 0xFFFFFFFFFFFFFFFF DUP2 GT ISZERO PUSH2 0x2C5 JUMPI PUSH2 0x2C4 PUSH2 0x70 JUMP JUMPDEST JUMPDEST PUSH2 0x2CF DUP3 SLOAD PUSH2 0xCA JUMP JUMPDEST PUSH2 0x2DA DUP3 DUP3 DUP6 PUSH2 0x21A JUMP JUMPDEST PUSH0 PUSH1 0x20 SWAP1 POP PUSH1 0x1F DUP4 GT PUSH1 0x1 DUP2 EQ PUSH2 0x30B JUMPI PUSH0 DUP5 ISZERO PUSH2 0x2F9 JUMPI DUP3 DUP8 ADD MLOAD SWAP1 POP JUMPDEST PUSH2 0x303 DUP6 DUP3 PUSH2 0x288 JUMP JUMPDEST DUP7 SSTORE POP PUSH2 0x36A JUMP JUMPDEST PUSH1 0x1F NOT DUP5 AND PUSH2 0x319 DUP7 PUSH2 0xFA JUMP JUMPDEST PUSH0 JUMPDEST DUP3 DUP2 LT ISZERO PUSH2 0x340 JUMPI DUP5 DUP10 ADD MLOAD DUP3 SSTORE PUSH1 0x1 DUP3 ADD SWAP2 POP PUSH1 0x20 DUP6 ADD SWAP5 POP PUSH1 0x20 DUP2 ADD SWAP1 POP PUSH2 0x31B JUMP JUMPDEST DUP7 DUP4 LT ISZERO PUSH2 0x35D JUMPI DUP5 DUP10 ADD MLOAD PUSH2 0x359 PUSH1 0x1F DUP10 AND DUP3 PUSH2 0x26C JUMP JUMPDEST DUP4 SSTORE POP JUMPDEST PUSH1 0x1 PUSH1 0x2 DUP9 MUL ADD DUP9 SSTORE POP POP POP JUMPDEST POP POP POP POP POP POP JUMP JUMPDEST PUSH2 0x9D0 DUP1 PUSH2 0x37F PUSH0 CODECOPY PUSH0 RETURN INVALID PUSH1 0x80 PUSH1 0x40 MSTORE PUSH1 0x4 CALLDATASIZE LT PUSH2 0x28 JUMPI PUSH0 CALLDATALOAD PUSH1 0xE0 SHR DUP1 PUSH4 0x2E1A7D4D EQ PUSH2 0x2C JUMPI DUP1 PUSH4 0xB60D4288 EQ PUSH2 0x54 JUMPI JUMPDEST PUSH0 PUSH0 REVERT JUMPDEST CALLVALUE DUP1 ISZERO PUSH2 0x37 JUMPI PUSH0 PUSH0 REVERT JUMPDEST POP PUSH2 0x52 PUSH1 0x4 DUP1 CALLDATASIZE SUB DUP2 ADD SWAP1 PUSH2 0x4D SWAP2 SWAP1 PUSH2 0x3C7 JUMP JUMPDEST PUSH2 0x5E JUMP JUMPDEST STOP JUMPDEST PUSH2 0x5C PUSH2 0x212 JUMP JUMPDEST STOP JUMPDEST PUSH0 PUSH0 PUSH0 CALLER PUSH20 0xFFFFFFFFFFFFFFFFFFFFFFFFFFFFFFFFFFFFFFFF AND PUSH20 0xFFFFFFFFFFFFFFFFFFFFFFFFFFFFFFFFFFFFFFFF AND DUP2 MSTORE PUSH1 0x20 ADD SWAP1 DUP2 MSTORE PUSH1 0x20 ADD PUSH0 KECCAK256 SLOAD SWAP1 POP PUSH0 CALLER SWAP1 POP DUP3 DUP3 LT ISZERO PUSH2 0xE5 JUMPI PUSH1 0x40 MLOAD PUSH32 0x8C379A000000000000000000000000000000000000000000000000000000000 DUP2 MSTORE PUSH1 0x4 ADD PUSH2 0xDC SWAP1 PUSH2 0x472 JUMP JUMPDEST PUSH1 0x40 MLOAD DUP1 SWAP2 SUB SWAP1 REVERT JUMPDEST PUSH0 DUP2 PUSH20 0xFFFFFFFFFFFFFFFFFFFFFFFFFFFFFFFFFFFFFFFF AND DUP5 PUSH1 0x40 MLOAD PUSH2 0x10A SWAP1 PUSH2 0x4BD JUMP JUMPDEST PUSH0 PUSH1 0x40 MLOAD DUP1 DUP4 SUB DUP2 DUP6 DUP8 GAS CALL SWAP3 POP POP POP RETURNDATASIZE DUP1 PUSH0 DUP2 EQ PUSH2 0x144 JUMPI PUSH1 0x40 MLOAD SWAP2 POP PUSH1 0x1F NOT PUSH1 0x3F RETURNDATASIZE ADD AND DUP3 ADD PUSH1 0x40 MSTORE RETURNDATASIZE DUP3 MSTORE RETURNDATASIZE PUSH0 PUSH1 0x20 DUP5 ADD RETURNDATACOPY PUSH2 0x149 JUMP JUMPDEST PUSH1 0x60 SWAP2 POP JUMPDEST POP POP SWAP1 POP DUP1 PUSH2 0x18D JUMPI PUSH1 0x40 MLOAD PUSH32 0x8C379A000000000000000000000000000000000000000000000000000000000 DUP2 MSTORE PUSH1 0x4 ADD PUSH2 0x184 SWAP1 PUSH2 0x51B JUMP JUMPDEST PUSH1 0x40 MLOAD DUP1 SWAP2 SUB SWAP1 REVERT JUMPDEST PUSH32 0x36995BCCB71A1493533D2D10095138771086D22D95572020B644DBD86437A02E ADDRESS DUP4 PUSH1 0x1 DUP8 PUSH1 0x40 MLOAD PUSH2 0x1C3 SWAP5 SWAP4 SWAP3 SWAP2 SWAP1 PUSH2 0x677 JUMP JUMPDEST PUSH1 0x40 MLOAD DUP1 SWAP2 SUB SWAP1 LOG1 PUSH0 PUSH0 PUSH0 DUP5 PUSH20 0xFFFFFFFFFFFFFFFFFFFFFFFFFFFFFFFFFFFFFFFF AND PUSH20 0xFFFFFFFFFFFFFFFFFFFFFFFFFFFFFFFFFFFFFFFF AND DUP2 MSTORE PUSH1 0x20 ADD SWAP1 DUP2 MSTORE PUSH1 0x20 ADD PUSH0 KECCAK256 DUP2 SWAP1 SSTORE POP POP POP POP POP JUMP JUMPDEST PUSH1 0x2 SLOAD PUSH2 0x21E CALLVALUE PUSH2 0x2B3 JUMP JUMPDEST LT ISZERO PUSH2 0x25F JUMPI PUSH1 0x40 MLOAD PUSH32 0x8C379A000000000000000000000000000000000000000000000000000000000 DUP2 MSTORE PUSH1 0x4 ADD PUSH2 0x256 SWAP1 PUSH2 0x70B JUMP JUMPDEST PUSH1 0x40 MLOAD DUP1 SWAP2 SUB SWAP1 REVERT JUMPDEST CALLVALUE PUSH0 PUSH0 CALLER PUSH20 0xFFFFFFFFFFFFFFFFFFFFFFFFFFFFFFFFFFFFFFFF AND PUSH20 0xFFFFFFFFFFFFFFFFFFFFFFFFFFFFFFFFFFFFFFFF AND DUP2 MSTORE PUSH1 0x20 ADD SWAP1 DUP2 MSTORE PUSH1 0x20 ADD PUSH0 KECCAK256 PUSH0 DUP3 DUP3 SLOAD PUSH2 0x2AA SWAP2 SWAP1 PUSH2 0x756 JUMP JUMPDEST SWAP3 POP POP DUP2 SWAP1 SSTORE POP JUMP JUMPDEST PUSH0 PUSH0 PUSH2 0x2BD PUSH2 0x2EB JUMP JUMPDEST SWAP1 POP PUSH0 PUSH8 0xDE0B6B3A7640000 DUP3 DUP6 PUSH2 0x2D5 SWAP2 SWAP1 PUSH2 0x789 JUMP JUMPDEST PUSH2 0x2DF SWAP2 SWAP1 PUSH2 0x7F7 JUMP JUMPDEST SWAP1 POP DUP1 SWAP3 POP POP POP SWAP2 SWAP1 POP JUMP JUMPDEST PUSH0 PUSH0 PUSH20 0x38CB7800C3FDDB8DDA074C1C650A155154924C73 SWAP1 POP PUSH0 DUP2 PUSH20 0xFFFFFFFFFFFFFFFFFFFFFFFFFFFFFFFFFFFFFFFF AND PUSH4 0xFEAF968C PUSH1 0x40 MLOAD DUP2 PUSH4 0xFFFFFFFF AND PUSH1 0xE0 SHL DUP2 MSTORE PUSH1 0x4 ADD PUSH1 0xA0 PUSH1 0x40 MLOAD DUP1 DUP4 SUB DUP2 DUP7 GAS STATICCALL ISZERO DUP1 ISZERO PUSH2 0x34E JUMPI RETURNDATASIZE PUSH0 PUSH0 RETURNDATACOPY RETURNDATASIZE PUSH0 REVERT JUMPDEST POP POP POP POP PUSH1 0x40 MLOAD RETURNDATASIZE PUSH1 0x1F NOT PUSH1 0x1F DUP3 ADD AND DUP3 ADD DUP1 PUSH1 0x40 MSTORE POP DUP2 ADD SWAP1 PUSH2 0x372 SWAP2 SWAP1 PUSH2 0x8AD JUMP JUMPDEST POP POP POP SWAP2 POP POP PUSH5 0x2540BE400 DUP2 PUSH2 0x389 SWAP2 SWAP1 PUSH2 0x924 JUMP JUMPDEST SWAP3 POP POP POP SWAP1 JUMP JUMPDEST PUSH0 PUSH0 REVERT JUMPDEST PUSH0 DUP2 SWAP1 POP SWAP2 SWAP1 POP JUMP JUMPDEST PUSH2 0x3A6 DUP2 PUSH2 0x394 JUMP JUMPDEST DUP2 EQ PUSH2 0x3B0 JUMPI PUSH0 PUSH0 REVERT JUMPDEST POP JUMP JUMPDEST PUSH0 DUP2 CALLDATALOAD SWAP1 POP PUSH2 0x3C1 DUP2 PUSH2 0x39D JUMP JUMPDEST SWAP3 SWAP2 POP POP JUMP JUMPDEST PUSH0 PUSH1 0x20 DUP3 DUP5 SUB SLT ISZERO PUSH2 0x3DC JUMPI PUSH2 0x3DB PUSH2 0x390 JUMP JUMPDEST JUMPDEST PUSH0 PUSH2 0x3E9 DUP5 DUP3 DUP6 ADD PUSH2 0x3B3 JUMP JUMPDEST SWAP2 POP POP SWAP3 SWAP2 POP POP JUMP JUMPDEST PUSH0 DUP3 DUP3 MSTORE PUSH1 0x20 DUP3 ADD SWAP1 POP SWAP3 SWAP2 POP POP JUMP JUMPDEST PUSH32 0x596F752068617665206E6F74206465706F736974656420656E6F756768206675 PUSH0 DUP3 ADD MSTORE PUSH32 0x6E647320746F2077697468647261770000000000000000000000000000000000 PUSH1 0x20 DUP3 ADD MSTORE POP JUMP JUMPDEST PUSH0 PUSH2 0x45C PUSH1 0x2F DUP4 PUSH2 0x3F2 JUMP JUMPDEST SWAP2 POP PUSH2 0x467 DUP3 PUSH2 0x402 JUMP JUMPDEST PUSH1 0x40 DUP3 ADD SWAP1 POP SWAP2 SWAP1 POP JUMP JUMPDEST PUSH0 PUSH1 0x20 DUP3 ADD SWAP1 POP DUP2 DUP2 SUB PUSH0 DUP4 ADD MSTORE PUSH2 0x489 DUP2 PUSH2 0x450 JUMP JUMPDEST SWAP1 POP SWAP2 SWAP1 POP JUMP JUMPDEST PUSH0 DUP2 SWAP1 POP SWAP3 SWAP2 POP POP JUMP JUMPDEST POP JUMP JUMPDEST PUSH0 PUSH2 0x4A8 PUSH0 DUP4 PUSH2 0x490 JUMP JUMPDEST SWAP2 POP PUSH2 0x4B3 DUP3 PUSH2 0x49A JUMP JUMPDEST PUSH0 DUP3 ADD SWAP1 POP SWAP2 SWAP1 POP JUMP JUMPDEST PUSH0 PUSH2 0x4C7 DUP3 PUSH2 0x49D JUMP JUMPDEST SWAP2 POP DUP2 SWAP1 POP SWAP2 SWAP1 POP JUMP JUMPDEST PUSH32 0x5472616E73616374696F6E204661696C75726500000000000000000000000000 PUSH0 DUP3 ADD MSTORE POP JUMP JUMPDEST PUSH0 PUSH2 0x505 PUSH1 0x13 DUP4 PUSH2 0x3F2 JUMP JUMPDEST SWAP2 POP PUSH2 0x510 DUP3 PUSH2 0x4D1 JUMP JUMPDEST PUSH1 0x20 DUP3 ADD SWAP1 POP SWAP2 SWAP1 POP JUMP JUMPDEST PUSH0 PUSH1 0x20 DUP3 ADD SWAP1 POP DUP2 DUP2 SUB PUSH0 DUP4 ADD MSTORE PUSH2 0x532 DUP2 PUSH2 0x4F9 JUMP JUMPDEST SWAP1 POP SWAP2 SWAP1 POP JUMP JUMPDEST PUSH0 PUSH20 0xFFFFFFFFFFFFFFFFFFFFFFFFFFFFFFFFFFFFFFFF DUP3 AND SWAP1 POP SWAP2 SWAP1 POP JUMP JUMPDEST PUSH0 PUSH2 0x562 DUP3 PUSH2 0x539 JUMP JUMPDEST SWAP1 POP SWAP2 SWAP1 POP JUMP JUMPDEST PUSH2 0x572 DUP2 PUSH2 0x558 JUMP JUMPDEST DUP3 MSTORE POP POP JUMP JUMPDEST PUSH32 0x4E487B7100000000000000000000000000000000000000000000000000000000 PUSH0 MSTORE PUSH1 0x22 PUSH1 0x4 MSTORE PUSH1 0x24 PUSH0 REVERT JUMPDEST PUSH0 PUSH1 0x2 DUP3 DIV SWAP1 POP PUSH1 0x1 DUP3 AND DUP1 PUSH2 0x5BC JUMPI PUSH1 0x7F DUP3 AND SWAP2 POP JUMPDEST PUSH1 0x20 DUP3 LT DUP2 SUB PUSH2 0x5CF JUMPI PUSH2 0x5CE PUSH2 0x578 JUMP JUMPDEST JUMPDEST POP SWAP2 SWAP1 POP JUMP JUMPDEST PUSH0 DUP2 SWAP1 POP DUP2 PUSH0 MSTORE PUSH1 0x20 PUSH0 KECCAK256 SWAP1 POP SWAP2 SWAP1 POP JUMP JUMPDEST PUSH0 DUP2 SLOAD PUSH2 0x5F3 DUP2 PUSH2 0x5A5 JUMP JUMPDEST PUSH2 0x5FD DUP2 DUP7 PUSH2 0x3F2 JUMP JUMPDEST SWAP5 POP PUSH1 0x1 DUP3 AND PUSH0 DUP2 EQ PUSH2 0x617 JUMPI PUSH1 0x1 DUP2 EQ PUSH2 0x62D JUMPI PUSH2 0x65F JUMP JUMPDEST PUSH1 0xFF NOT DUP4 AND DUP7 MSTORE DUP2 ISZERO ISZERO PUSH1 0x20 MUL DUP7 ADD SWAP4 POP PUSH2 0x65F JUMP JUMPDEST PUSH2 0x636 DUP6 PUSH2 0x5D5 JUMP JUMPDEST PUSH0 JUMPDEST DUP4 DUP2 LT ISZERO PUSH2 0x657 JUMPI DUP2 SLOAD DUP2 DUP10 ADD MSTORE PUSH1 0x1 DUP3 ADD SWAP2 POP PUSH1 0x20 DUP2 ADD SWAP1 POP PUSH2 0x638 JUMP JUMPDEST DUP1 DUP9 ADD SWAP6 POP POP POP JUMPDEST POP POP POP SWAP3 SWAP2 POP POP JUMP JUMPDEST PUSH2 0x671 DUP2 PUSH2 0x394 JUMP JUMPDEST DUP3 MSTORE POP POP JUMP JUMPDEST PUSH0 PUSH1 0x80 DUP3 ADD SWAP1 POP PUSH2 0x68A PUSH0 DUP4 ADD DUP8 PUSH2 0x569 JUMP JUMPDEST PUSH2 0x697 PUSH1 0x20 DUP4 ADD DUP7 PUSH2 0x569 JUMP JUMPDEST DUP2 DUP2 SUB PUSH1 0x40 DUP4 ADD MSTORE PUSH2 0x6A9 DUP2 DUP6 PUSH2 0x5E7 JUMP JUMPDEST SWAP1 POP PUSH2 0x6B8 PUSH1 0x60 DUP4 ADD DUP5 PUSH2 0x668 JUMP JUMPDEST SWAP6 SWAP5 POP POP POP POP POP JUMP JUMPDEST PUSH32 0x53656E642041746C6561737420243520776F727468206F662045544800000000 PUSH0 DUP3 ADD MSTORE POP JUMP JUMPDEST PUSH0 PUSH2 0x6F5 PUSH1 0x1C DUP4 PUSH2 0x3F2 JUMP JUMPDEST SWAP2 POP PUSH2 0x700 DUP3 PUSH2 0x6C1 JUMP JUMPDEST PUSH1 0x20 DUP3 ADD SWAP1 POP SWAP2 SWAP1 POP JUMP JUMPDEST PUSH0 PUSH1 0x20 DUP3 ADD SWAP1 POP DUP2 DUP2 SUB PUSH0 DUP4 ADD MSTORE PUSH2 0x722 DUP2 PUSH2 0x6E9 JUMP JUMPDEST SWAP1 POP SWAP2 SWAP1 POP JUMP JUMPDEST PUSH32 0x4E487B7100000000000000000000000000000000000000000000000000000000 PUSH0 MSTORE PUSH1 0x11 PUSH1 0x4 MSTORE PUSH1 0x24 PUSH0 REVERT JUMPDEST PUSH0 PUSH2 0x760 DUP3 PUSH2 0x394 JUMP JUMPDEST SWAP2 POP PUSH2 0x76B DUP4 PUSH2 0x394 JUMP JUMPDEST SWAP3 POP DUP3 DUP3 ADD SWAP1 POP DUP1 DUP3 GT ISZERO PUSH2 0x783 JUMPI PUSH2 0x782 PUSH2 0x729 JUMP JUMPDEST JUMPDEST SWAP3 SWAP2 POP POP JUMP JUMPDEST PUSH0 PUSH2 0x793 DUP3 PUSH2 0x394 JUMP JUMPDEST SWAP2 POP PUSH2 0x79E DUP4 PUSH2 0x394 JUMP JUMPDEST SWAP3 POP DUP3 DUP3 MUL PUSH2 0x7AC DUP2 PUSH2 0x394 JUMP JUMPDEST SWAP2 POP DUP3 DUP3 DIV DUP5 EQ DUP4 ISZERO OR PUSH2 0x7C3 JUMPI PUSH2 0x7C2 PUSH2 0x729 JUMP JUMPDEST JUMPDEST POP SWAP3 SWAP2 POP POP JUMP JUMPDEST PUSH32 0x4E487B7100000000000000000000000000000000000000000000000000000000 PUSH0 MSTORE PUSH1 0x12 PUSH1 0x4 MSTORE PUSH1 0x24 PUSH0 REVERT JUMPDEST PUSH0 PUSH2 0x801 DUP3 PUSH2 0x394 JUMP JUMPDEST SWAP2 POP PUSH2 0x80C DUP4 PUSH2 0x394 JUMP JUMPDEST SWAP3 POP DUP3 PUSH2 0x81C JUMPI PUSH2 0x81B PUSH2 0x7CA JUMP JUMPDEST JUMPDEST DUP3 DUP3 DIV SWAP1 POP SWAP3 SWAP2 POP POP JUMP JUMPDEST PUSH0 PUSH10 0xFFFFFFFFFFFFFFFFFFFF DUP3 AND SWAP1 POP SWAP2 SWAP1 POP JUMP JUMPDEST PUSH2 0x845 DUP2 PUSH2 0x827 JUMP JUMPDEST DUP2 EQ PUSH2 0x84F JUMPI PUSH0 PUSH0 REVERT JUMPDEST POP JUMP JUMPDEST PUSH0 DUP2 MLOAD SWAP1 POP PUSH2 0x860 DUP2 PUSH2 0x83C JUMP JUMPDEST SWAP3 SWAP2 POP POP JUMP JUMPDEST PUSH0 DUP2 SWAP1 POP SWAP2 SWAP1 POP JUMP JUMPDEST PUSH2 0x878 DUP2 PUSH2 0x866 JUMP JUMPDEST DUP2 EQ PUSH2 0x882 JUMPI PUSH0 PUSH0 REVERT JUMPDEST POP JUMP JUMPDEST PUSH0 DUP2 MLOAD SWAP1 POP PUSH2 0x893 DUP2 PUSH2 0x86F JUMP JUMPDEST SWAP3 SWAP2 POP POP JUMP JUMPDEST PUSH0 DUP2 MLOAD SWAP1 POP PUSH2 0x8A7 DUP2 PUSH2 0x39D JUMP JUMPDEST SWAP3 SWAP2 POP POP JUMP JUMPDEST PUSH0 PUSH0 PUSH0 PUSH0 PUSH0 PUSH1 0xA0 DUP7 DUP9 SUB SLT ISZERO PUSH2 0x8C6 JUMPI PUSH2 0x8C5 PUSH2 0x390 JUMP JUMPDEST JUMPDEST PUSH0 PUSH2 0x8D3 DUP9 DUP3 DUP10 ADD PUSH2 0x852 JUMP JUMPDEST SWAP6 POP POP PUSH1 0x20 PUSH2 0x8E4 DUP9 DUP3 DUP10 ADD PUSH2 0x885 JUMP JUMPDEST SWAP5 POP POP PUSH1 0x40 PUSH2 0x8F5 DUP9 DUP3 DUP10 ADD PUSH2 0x899 JUMP JUMPDEST SWAP4 POP POP PUSH1 0x60 PUSH2 0x906 DUP9 DUP3 DUP10 ADD PUSH2 0x899 JUMP JUMPDEST SWAP3 POP POP PUSH1 0x80 PUSH2 0x917 DUP9 DUP3 DUP10 ADD PUSH2 0x852 JUMP JUMPDEST SWAP2 POP POP SWAP3 SWAP6 POP SWAP3 SWAP6 SWAP1 SWAP4 POP JUMP JUMPDEST PUSH0 PUSH2 0x92E DUP3 PUSH2 0x866 JUMP JUMPDEST SWAP2 POP PUSH2 0x939 DUP4 PUSH2 0x866 JUMP JUMPDEST SWAP3 POP DUP3 DUP3 MUL PUSH2 0x947 DUP2 PUSH2 0x866 JUMP JUMPDEST SWAP2 POP PUSH32 0x8000000000000000000000000000000000000000000000000000000000000000 DUP5 EQ PUSH0 DUP5 SLT AND ISZERO PUSH2 0x97E JUMPI PUSH2 0x97D PUSH2 0x729 JUMP JUMPDEST JUMPDEST DUP3 DUP3 SDIV DUP5 EQ DUP4 ISZERO OR PUSH2 0x993 JUMPI PUSH2 0x992 PUSH2 0x729 JUMP JUMPDEST JUMPDEST POP SWAP3 SWAP2 POP POP JUMP INVALID LOG2 PUSH5 0x6970667358 0x22 SLT KECCAK256 PUSH13 0x8AA635B9809C89B5B1A135CB3C CALLDATALOAD 0xED 0xB3 0xAD 0xE 0xA7 0xC4 POP MSTORE8 0xD2 0xE9 PUSH11 0x215D874FCB2D64736F6C63 NUMBER STOP ADDMOD 0x1F STOP CALLER "
				},
				"gasEstimates": {
					"creation": {
						"codeDepositCost": "502400",
						"executionCost": "infinite",
						"totalCost": "infinite"
					},
					"external": {
						"fund()": "infinite",
						"withdraw(uint256)": "infinite"
					}
				},
				"methodIdentifiers": {
					"fund()": "b60d4288",
					"withdraw(uint256)": "2e1a7d4d"
				}
			},
			"storageLayout": {
				"storage": [
					{
						"astId": 56,
						"contract": "contracts/Revise/FundMe.sol:FundMe",
						"label": "addressToAmountFunded",
						"offset": 0,
						"slot": "0",
						"type": "t_mapping(t_address,t_uint256)"
					},
					{
						"astId": 59,
						"contract": "contracts/Revise/FundMe.sol:FundMe",
						"label": "successString",
						"offset": 0,
						"slot": "1",
						"type": "t_string_storage"
					},
					{
						"astId": 82,
						"contract": "contracts/Revise/FundMe.sol:FundMe",
						"label": "min_usd",
						"offset": 0,
						"slot": "2",
						"type": "t_uint256"
					}
				],
				"types": {
					"t_address": {
						"encoding": "inplace",
						"label": "address",
						"numberOfBytes": "20"
					},
					"t_mapping(t_address,t_uint256)": {
						"encoding": "mapping",
						"key": "t_address",
						"label": "mapping(address => uint256)",
						"numberOfBytes": "32",
						"value": "t_uint256"
					},
					"t_string_storage": {
						"encoding": "bytes",
						"label": "string",
						"numberOfBytes": "32"
					},
					"t_uint256": {
						"encoding": "inplace",
						"label": "uint256",
						"numberOfBytes": "32"
					}
				}
			},
			"userdoc": {
				"kind": "user",
				"methods": {},
				"version": 1
			}
		}
	}
}